{
  "_format": "hh-sol-artifact-1",
  "contractName": "CimpleDAO",
  "sourceName": "contracts/CimpleDAO.sol",
  "abi": [
    {
      "inputs": [
        {
          "internalType": "address",
          "name": "nftaddress",
          "type": "address"
        }
      ],
      "stateMutability": "nonpayable",
      "type": "constructor"
    },
    {
      "anonymous": false,
      "inputs": [
        {
          "indexed": true,
          "internalType": "address",
          "name": "account",
          "type": "address"
        },
        {
          "indexed": true,
          "internalType": "address",
          "name": "operator",
          "type": "address"
        },
        {
          "indexed": false,
          "internalType": "bool",
          "name": "approved",
          "type": "bool"
        }
      ],
      "name": "ApprovalForAll",
      "type": "event"
    },
    {
      "anonymous": false,
      "inputs": [
        {
          "indexed": true,
          "internalType": "address",
          "name": "",
          "type": "address"
        },
        {
          "indexed": false,
          "internalType": "string",
          "name": "",
          "type": "string"
        }
      ],
      "name": "CreatedNewUser",
      "type": "event"
    },
    {
      "anonymous": false,
      "inputs": [
        {
          "indexed": true,
          "internalType": "address",
          "name": "previousOwner",
          "type": "address"
        },
        {
          "indexed": true,
          "internalType": "address",
          "name": "newOwner",
          "type": "address"
        }
      ],
      "name": "OwnershipTransferred",
      "type": "event"
    },
    {
      "anonymous": false,
      "inputs": [
        {
          "indexed": false,
          "internalType": "address",
          "name": "",
          "type": "address"
        },
        {
          "indexed": false,
          "internalType": "uint256",
          "name": "",
          "type": "uint256"
        },
        {
          "indexed": false,
          "internalType": "uint256",
          "name": "",
          "type": "uint256"
        }
      ],
      "name": "PayFee",
      "type": "event"
    },
    {
      "anonymous": false,
      "inputs": [
        {
          "indexed": false,
          "internalType": "address",
          "name": "",
          "type": "address"
        },
        {
          "indexed": false,
          "internalType": "uint256",
          "name": "",
          "type": "uint256"
        },
        {
          "indexed": false,
          "internalType": "uint256",
          "name": "",
          "type": "uint256"
        }
      ],
      "name": "StakingCimpleToken",
      "type": "event"
    },
    {
      "anonymous": false,
      "inputs": [
        {
          "indexed": true,
          "internalType": "address",
          "name": "operator",
          "type": "address"
        },
        {
          "indexed": true,
          "internalType": "address",
          "name": "from",
          "type": "address"
        },
        {
          "indexed": true,
          "internalType": "address",
          "name": "to",
          "type": "address"
        },
        {
          "indexed": false,
          "internalType": "uint256[]",
          "name": "ids",
          "type": "uint256[]"
        },
        {
          "indexed": false,
          "internalType": "uint256[]",
          "name": "values",
          "type": "uint256[]"
        }
      ],
      "name": "TransferBatch",
      "type": "event"
    },
    {
      "anonymous": false,
      "inputs": [
        {
          "indexed": true,
          "internalType": "address",
          "name": "operator",
          "type": "address"
        },
        {
          "indexed": true,
          "internalType": "address",
          "name": "from",
          "type": "address"
        },
        {
          "indexed": true,
          "internalType": "address",
          "name": "to",
          "type": "address"
        },
        {
          "indexed": false,
          "internalType": "uint256",
          "name": "id",
          "type": "uint256"
        },
        {
          "indexed": false,
          "internalType": "uint256",
          "name": "value",
          "type": "uint256"
        }
      ],
      "name": "TransferSingle",
      "type": "event"
    },
    {
      "anonymous": false,
      "inputs": [
        {
          "indexed": false,
          "internalType": "string",
          "name": "value",
          "type": "string"
        },
        {
          "indexed": true,
          "internalType": "uint256",
          "name": "id",
          "type": "uint256"
        }
      ],
      "name": "URI",
      "type": "event"
    },
    {
      "anonymous": false,
      "inputs": [
        {
          "indexed": true,
          "internalType": "address",
          "name": "",
          "type": "address"
        },
        {
          "indexed": false,
          "internalType": "uint256",
          "name": "",
          "type": "uint256"
        },
        {
          "indexed": false,
          "internalType": "uint256",
          "name": "",
          "type": "uint256"
        }
      ],
      "name": "UnstakingCimpleToken",
      "type": "event"
    },
    {
      "anonymous": false,
      "inputs": [
        {
          "indexed": false,
          "internalType": "address",
          "name": "",
          "type": "address"
        },
        {
          "indexed": false,
          "internalType": "uint256",
          "name": "",
          "type": "uint256"
        },
        {
          "indexed": false,
          "internalType": "uint256",
          "name": "",
          "type": "uint256"
        },
        {
          "indexed": false,
          "internalType": "uint256",
          "name": "",
          "type": "uint256"
        },
        {
          "indexed": false,
          "internalType": "string",
          "name": "",
          "type": "string"
        },
        {
          "indexed": false,
          "internalType": "string",
          "name": "",
          "type": "string"
        }
      ],
      "name": "UpdatedUserInfo",
      "type": "event"
    },
    {
      "inputs": [],
      "name": "CMPG",
      "outputs": [
        {
          "internalType": "uint256",
          "name": "",
          "type": "uint256"
        }
      ],
      "stateMutability": "view",
      "type": "function"
    },
    {
      "inputs": [],
      "name": "CMPGDecimal",
      "outputs": [
        {
          "internalType": "uint256",
          "name": "",
          "type": "uint256"
        }
      ],
      "stateMutability": "view",
      "type": "function"
    },
    {
      "inputs": [],
      "name": "CMPGDistributionPercentDecimal",
      "outputs": [
        {
          "internalType": "uint256",
          "name": "",
          "type": "uint256"
        }
      ],
      "stateMutability": "view",
      "type": "function"
    },
    {
      "inputs": [],
      "name": "Cimple",
      "outputs": [
        {
          "internalType": "uint256",
          "name": "",
          "type": "uint256"
        }
      ],
      "stateMutability": "view",
      "type": "function"
    },
    {
      "inputs": [],
      "name": "DailyCMPGSupplyDecreasePercentDecimal",
      "outputs": [
        {
          "internalType": "uint256",
          "name": "",
          "type": "uint256"
        }
      ],
      "stateMutability": "view",
      "type": "function"
    },
    {
      "inputs": [
        {
          "internalType": "uint256",
          "name": "_days",
          "type": "uint256"
        }
      ],
      "name": "_calculateDailySupplyOfCMPG",
      "outputs": [
        {
          "internalType": "uint256",
          "name": "",
          "type": "uint256"
        },
        {
          "internalType": "uint256",
          "name": "",
          "type": "uint256"
        }
      ],
      "stateMutability": "pure",
      "type": "function"
    },
    {
      "inputs": [
        {
          "internalType": "address",
          "name": "_address",
          "type": "address"
        }
      ],
      "name": "_calculateDistributionPercentOfCMPG",
      "outputs": [
        {
          "internalType": "uint256",
          "name": "",
          "type": "uint256"
        }
      ],
      "stateMutability": "view",
      "type": "function"
    },
    {
      "inputs": [
        {
          "internalType": "address",
          "name": "_stakeholder",
          "type": "address"
        },
        {
          "internalType": "uint256",
          "name": "_timeStamp",
          "type": "uint256"
        }
      ],
      "name": "addStakeholder",
      "outputs": [],
      "stateMutability": "nonpayable",
      "type": "function"
    },
    {
      "inputs": [
        {
          "internalType": "address",
          "name": "account",
          "type": "address"
        },
        {
          "internalType": "uint256",
          "name": "id",
          "type": "uint256"
        }
      ],
      "name": "balanceOf",
      "outputs": [
        {
          "internalType": "uint256",
          "name": "",
          "type": "uint256"
        }
      ],
      "stateMutability": "view",
      "type": "function"
    },
    {
      "inputs": [
        {
          "internalType": "address[]",
          "name": "accounts",
          "type": "address[]"
        },
        {
          "internalType": "uint256[]",
          "name": "ids",
          "type": "uint256[]"
        }
      ],
      "name": "balanceOfBatch",
      "outputs": [
        {
          "internalType": "uint256[]",
          "name": "",
          "type": "uint256[]"
        }
      ],
      "stateMutability": "view",
      "type": "function"
    },
    {
      "inputs": [
        {
          "internalType": "address",
          "name": "account",
          "type": "address"
        },
        {
          "internalType": "uint256",
          "name": "id",
          "type": "uint256"
        },
        {
          "internalType": "uint256",
          "name": "amount",
          "type": "uint256"
        }
      ],
      "name": "burn",
      "outputs": [],
      "stateMutability": "nonpayable",
      "type": "function"
    },
    {
      "inputs": [
        {
          "internalType": "address",
          "name": "from",
          "type": "address"
        },
        {
          "internalType": "uint256[]",
          "name": "ids",
          "type": "uint256[]"
        },
        {
          "internalType": "uint256[]",
          "name": "amounts",
          "type": "uint256[]"
        }
      ],
      "name": "burnBatch",
      "outputs": [],
      "stateMutability": "nonpayable",
      "type": "function"
    },
    {
      "inputs": [
        {
          "internalType": "uint256",
          "name": "_currentTimeStamp",
          "type": "uint256"
        }
      ],
      "name": "calculateCimpleIR",
      "outputs": [
        {
          "internalType": "uint256",
          "name": "",
          "type": "uint256"
        },
        {
          "internalType": "uint256",
          "name": "",
          "type": "uint256"
        },
        {
          "internalType": "uint256",
          "name": "",
          "type": "uint256"
        }
      ],
      "stateMutability": "view",
      "type": "function"
    },
    {
      "inputs": [
        {
          "internalType": "address",
          "name": "_stakeholder",
          "type": "address"
        },
        {
          "internalType": "uint256",
          "name": "_holdTimeStamp",
          "type": "uint256"
        },
        {
          "internalType": "uint256",
          "name": "_nowTimeStamp",
          "type": "uint256"
        }
      ],
      "name": "calculateReward",
      "outputs": [
        {
          "internalType": "uint256",
          "name": "",
          "type": "uint256"
        },
        {
          "internalType": "uint256",
          "name": "",
          "type": "uint256"
        },
        {
          "internalType": "uint256",
          "name": "",
          "type": "uint256"
        }
      ],
      "stateMutability": "view",
      "type": "function"
    },
    {
      "inputs": [
        {
          "internalType": "address",
          "name": "userAddress",
          "type": "address"
        },
        {
          "internalType": "string",
          "name": "referralID",
          "type": "string"
        }
      ],
      "name": "createAccount",
      "outputs": [
        {
          "internalType": "bool",
          "name": "",
          "type": "bool"
        }
      ],
      "stateMutability": "payable",
      "type": "function"
    },
    {
      "inputs": [
        {
          "internalType": "address",
          "name": "staker",
          "type": "address"
        },
        {
          "internalType": "uint256",
          "name": "_stake",
          "type": "uint256"
        }
      ],
      "name": "createStake",
      "outputs": [
        {
          "internalType": "bool",
          "name": "",
          "type": "bool"
        }
      ],
      "stateMutability": "payable",
      "type": "function"
    },
    {
      "inputs": [],
      "name": "getNFTUserListAtFirst",
      "outputs": [
        {
          "internalType": "address[]",
          "name": "users",
          "type": "address[]"
        },
        {
          "internalType": "uint256[]",
          "name": "times",
          "type": "uint256[]"
        },
        {
          "internalType": "uint256[]",
          "name": "prices",
          "type": "uint256[]"
        }
      ],
      "stateMutability": "view",
      "type": "function"
    },
    {
      "inputs": [],
      "name": "getStakeHolders",
      "outputs": [
        {
          "internalType": "address[]",
          "name": "",
          "type": "address[]"
        },
        {
          "internalType": "uint256[]",
          "name": "",
          "type": "uint256[]"
        }
      ],
      "stateMutability": "view",
      "type": "function"
    },
    {
      "inputs": [
        {
          "internalType": "address",
          "name": "userAddress",
          "type": "address"
        }
      ],
      "name": "getUserInfo",
      "outputs": [
        {
          "components": [
            {
              "internalType": "address",
              "name": "userAddress",
              "type": "address"
            },
            {
              "internalType": "uint256",
              "name": "cimpleValue",
              "type": "uint256"
            },
            {
              "internalType": "uint256",
              "name": "stCimpleValue",
              "type": "uint256"
            },
            {
              "internalType": "uint256",
              "name": "CMPGValue",
              "type": "uint256"
            },
            {
              "internalType": "string",
              "name": "referralID",
              "type": "string"
            },
            {
              "internalType": "string",
              "name": "referredBy",
              "type": "string"
            }
          ],
          "internalType": "struct CimpleDAO.UserDetail",
          "name": "tempUserInfo",
          "type": "tuple"
        }
      ],
      "stateMutability": "view",
      "type": "function"
    },
    {
      "inputs": [],
      "name": "getUsersInfo",
      "outputs": [
        {
          "internalType": "address[]",
          "name": "",
          "type": "address[]"
        },
        {
          "internalType": "string[]",
          "name": "",
          "type": "string[]"
        }
      ],
      "stateMutability": "view",
      "type": "function"
    },
    {
      "inputs": [
        {
          "internalType": "address",
          "name": "account",
          "type": "address"
        },
        {
          "internalType": "address",
          "name": "operator",
          "type": "address"
        }
      ],
      "name": "isApprovedForAll",
      "outputs": [
        {
          "internalType": "bool",
          "name": "",
          "type": "bool"
        }
      ],
      "stateMutability": "view",
      "type": "function"
    },
    {
      "inputs": [
        {
          "internalType": "address",
          "name": "_address",
          "type": "address"
        }
      ],
      "name": "isUser",
      "outputs": [
        {
          "internalType": "bool",
          "name": "",
          "type": "bool"
        },
        {
          "internalType": "uint256",
          "name": "",
          "type": "uint256"
        }
      ],
      "stateMutability": "view",
      "type": "function"
    },
    {
      "inputs": [
        {
          "internalType": "address",
          "name": "account",
          "type": "address"
        },
        {
          "internalType": "uint256",
          "name": "id",
          "type": "uint256"
        },
        {
          "internalType": "uint256",
          "name": "amount",
          "type": "uint256"
        }
      ],
      "name": "mint",
      "outputs": [],
      "stateMutability": "nonpayable",
      "type": "function"
    },
    {
      "inputs": [
        {
          "internalType": "address",
          "name": "to",
          "type": "address"
        },
        {
          "internalType": "uint256[]",
          "name": "ids",
          "type": "uint256[]"
        },
        {
          "internalType": "uint256[]",
          "name": "amounts",
          "type": "uint256[]"
        },
        {
          "internalType": "bytes",
          "name": "data",
          "type": "bytes"
        }
      ],
      "name": "mintBatch",
      "outputs": [],
      "stateMutability": "nonpayable",
      "type": "function"
    },
    {
      "inputs": [
        {
          "internalType": "address",
          "name": "",
          "type": "address"
        }
      ],
      "name": "mintRoleList",
      "outputs": [
        {
          "internalType": "bool",
          "name": "",
          "type": "bool"
        }
      ],
      "stateMutability": "view",
      "type": "function"
    },
    {
      "inputs": [
        {
          "internalType": "address[]",
          "name": "addresses",
          "type": "address[]"
        }
      ],
      "name": "multipleAddressesToMintableRoleList",
      "outputs": [],
      "stateMutability": "nonpayable",
      "type": "function"
    },
    {
      "inputs": [],
      "name": "nftIdIndex",
      "outputs": [
        {
          "internalType": "uint256",
          "name": "",
          "type": "uint256"
        }
      ],
      "stateMutability": "view",
      "type": "function"
    },
    {
      "inputs": [],
      "name": "owner",
      "outputs": [
        {
          "internalType": "address",
          "name": "",
          "type": "address"
        }
      ],
      "stateMutability": "view",
      "type": "function"
    },
    {
      "inputs": [],
      "name": "payFee",
      "outputs": [
        {
          "internalType": "bool",
          "name": "",
          "type": "bool"
        }
      ],
      "stateMutability": "payable",
      "type": "function"
    },
    {
      "inputs": [
        {
          "internalType": "address",
          "name": "spender",
          "type": "address"
        },
        {
          "internalType": "uint256",
          "name": "cimpleAmount",
          "type": "uint256"
        }
      ],
      "name": "payFeeByToken",
      "outputs": [
        {
          "internalType": "bool",
          "name": "",
          "type": "bool"
        }
      ],
      "stateMutability": "nonpayable",
      "type": "function"
    },
    {
      "inputs": [
        {
          "internalType": "address",
          "name": "userAddress",
          "type": "address"
        }
      ],
      "name": "removeAddressFromMintableRoleList",
      "outputs": [],
      "stateMutability": "nonpayable",
      "type": "function"
    },
    {
      "inputs": [
        {
          "internalType": "address[]",
          "name": "addresses",
          "type": "address[]"
        }
      ],
      "name": "removeAddressesFromMintableRoleList",
      "outputs": [],
      "stateMutability": "nonpayable",
      "type": "function"
    },
    {
      "inputs": [
        {
          "internalType": "address",
          "name": "unstaker",
          "type": "address"
        },
        {
          "internalType": "uint256",
          "name": "_stake",
          "type": "uint256"
        }
      ],
      "name": "removeStake",
      "outputs": [
        {
          "internalType": "bool",
          "name": "",
          "type": "bool"
        }
      ],
      "stateMutability": "payable",
      "type": "function"
    },
    {
      "inputs": [
        {
          "internalType": "address",
          "name": "_stakeholder",
          "type": "address"
        }
      ],
      "name": "removeStakeholder",
      "outputs": [],
      "stateMutability": "nonpayable",
      "type": "function"
    },
    {
      "inputs": [],
      "name": "renounceOwnership",
      "outputs": [],
      "stateMutability": "nonpayable",
      "type": "function"
    },
    {
      "inputs": [
        {
          "internalType": "address",
          "name": "from",
          "type": "address"
        },
        {
          "internalType": "address",
          "name": "to",
          "type": "address"
        },
        {
          "internalType": "uint256[]",
          "name": "ids",
          "type": "uint256[]"
        },
        {
          "internalType": "uint256[]",
          "name": "amounts",
          "type": "uint256[]"
        },
        {
          "internalType": "bytes",
          "name": "data",
          "type": "bytes"
        }
      ],
      "name": "safeBatchTransferFrom",
      "outputs": [],
      "stateMutability": "nonpayable",
      "type": "function"
    },
    {
      "inputs": [
        {
          "internalType": "address",
          "name": "from",
          "type": "address"
        },
        {
          "internalType": "address",
          "name": "to",
          "type": "address"
        },
        {
          "internalType": "uint256",
          "name": "id",
          "type": "uint256"
        },
        {
          "internalType": "uint256",
          "name": "amount",
          "type": "uint256"
        },
        {
          "internalType": "bytes",
          "name": "data",
          "type": "bytes"
        }
      ],
      "name": "safeTransferFrom",
      "outputs": [],
      "stateMutability": "nonpayable",
      "type": "function"
    },
    {
      "inputs": [
        {
          "internalType": "address",
          "name": "operator",
          "type": "address"
        },
        {
          "internalType": "bool",
          "name": "approved",
          "type": "bool"
        }
      ],
      "name": "setApprovalForAll",
      "outputs": [],
      "stateMutability": "nonpayable",
      "type": "function"
    },
    {
      "inputs": [
        {
          "internalType": "string",
          "name": "newuri",
          "type": "string"
        }
      ],
      "name": "setURI",
      "outputs": [],
      "stateMutability": "nonpayable",
      "type": "function"
    },
    {
      "inputs": [
        {
          "internalType": "address",
          "name": "userAddress",
          "type": "address"
        }
      ],
      "name": "singleAddressToMintableRoleList",
      "outputs": [],
      "stateMutability": "nonpayable",
      "type": "function"
    },
    {
      "inputs": [],
      "name": "stCimple",
      "outputs": [
        {
          "internalType": "uint256",
          "name": "",
          "type": "uint256"
        }
      ],
      "stateMutability": "view",
      "type": "function"
    },
    {
      "inputs": [
        {
          "internalType": "bytes4",
          "name": "interfaceId",
          "type": "bytes4"
        }
      ],
      "name": "supportsInterface",
      "outputs": [
        {
          "internalType": "bool",
          "name": "",
          "type": "bool"
        }
      ],
      "stateMutability": "view",
      "type": "function"
    },
    {
      "inputs": [
        {
          "internalType": "address",
          "name": "_stakeholder",
          "type": "address"
        },
        {
          "internalType": "uint256",
          "name": "_timeStamp",
          "type": "uint256"
        }
      ],
      "name": "testCalculateReward",
      "outputs": [
        {
          "internalType": "uint256",
          "name": "",
          "type": "uint256"
        },
        {
          "internalType": "uint256",
          "name": "",
          "type": "uint256"
        },
        {
          "internalType": "uint256",
          "name": "",
          "type": "uint256"
        }
      ],
      "stateMutability": "view",
      "type": "function"
    },
    {
      "inputs": [
        {
          "internalType": "uint256",
          "name": "",
          "type": "uint256"
        }
      ],
      "name": "tokenBurn",
      "outputs": [
        {
          "internalType": "uint256",
          "name": "",
          "type": "uint256"
        }
      ],
      "stateMutability": "view",
      "type": "function"
    },
    {
      "inputs": [
        {
          "internalType": "uint256",
          "name": "",
          "type": "uint256"
        }
      ],
      "name": "tokenSupply",
      "outputs": [
        {
          "internalType": "uint256",
          "name": "",
          "type": "uint256"
        }
      ],
      "stateMutability": "view",
      "type": "function"
    },
    {
      "inputs": [
        {
          "internalType": "uint256",
          "name": "",
          "type": "uint256"
        }
      ],
      "name": "tokenSupplyLimit",
      "outputs": [
        {
          "internalType": "uint256",
          "name": "",
          "type": "uint256"
        }
      ],
      "stateMutability": "view",
      "type": "function"
    },
    {
      "inputs": [],
      "name": "totalMintRoleList",
      "outputs": [
        {
          "internalType": "uint256",
          "name": "",
          "type": "uint256"
        }
      ],
      "stateMutability": "view",
      "type": "function"
    },
    {
      "inputs": [],
      "name": "totalRewards",
      "outputs": [
        {
          "internalType": "uint256",
          "name": "",
          "type": "uint256"
        }
      ],
      "stateMutability": "view",
      "type": "function"
    },
    {
      "inputs": [],
      "name": "totalStakes",
      "outputs": [
        {
          "internalType": "uint256",
          "name": "",
          "type": "uint256"
        }
      ],
      "stateMutability": "view",
      "type": "function"
    },
    {
      "inputs": [
        {
          "internalType": "address",
          "name": "newOwner",
          "type": "address"
        }
      ],
      "name": "transferOwnership",
      "outputs": [],
      "stateMutability": "nonpayable",
      "type": "function"
    },
    {
      "inputs": [
        {
          "internalType": "address",
          "name": "userAddress",
          "type": "address"
        },
        {
          "internalType": "string",
          "name": "referredByID",
          "type": "string"
        }
      ],
      "name": "updateUserInfo",
      "outputs": [
        {
          "internalType": "bool",
          "name": "",
          "type": "bool"
        }
      ],
      "stateMutability": "payable",
      "type": "function"
    },
    {
      "inputs": [
        {
          "internalType": "uint256",
          "name": "",
          "type": "uint256"
        }
      ],
      "name": "uri",
      "outputs": [
        {
          "internalType": "string",
          "name": "",
          "type": "string"
        }
      ],
      "stateMutability": "view",
      "type": "function"
    }
  ],
  "bytecode": "0x60806040523480156200001157600080fd5b50604051620051ba380380620051ba833981016040819052620000349162000195565b6040805160208101909152600081526200004e8162000084565b506200005a336200009d565b600480546001600160a01b0319166001600160a01b039290921691909117905542600a5562000202565b805162000099906002906020840190620000ef565b5050565b600380546001600160a01b038381166001600160a01b0319831681179093556040519116919082907f8be0079c531659141344cd1fd0a4f28419497f9722a3daafe3b4186f6b6457e090600090a35050565b828054620000fd90620001c5565b90600052602060002090601f0160209004810192826200012157600085556200016c565b82601f106200013c57805160ff19168380011785556200016c565b828001600101855582156200016c579182015b828111156200016c5782518255916020019190600101906200014f565b506200017a9291506200017e565b5090565b5b808211156200017a57600081556001016200017f565b600060208284031215620001a7578081fd5b81516001600160a01b0381168114620001be578182fd5b9392505050565b600181811c90821680620001da57607f821691505b60208210811415620001fc57634e487b7160e01b600052602260045260246000fd5b50919050565b614fa880620002126000396000f3fe6080604052600436106102fe5760003560e01c80636b20c45411610190578063c55fc9d4116100dc578063f217c9aa11610095578063f37eeedc1161006f578063f37eeedc14610958578063f528c72e146103ea578063f5298aca1461096d578063f7fecc271461098d57600080fd5b8063f217c9aa146108f8578063f242432a14610918578063f2fde38b1461093857600080fd5b8063c55fc9d414610827578063c876321f14610847578063d86f5a6b14610867578063ddfc193d1461087a578063df15d76f1461088f578063e985e9c5146108af57600080fd5b8063a93bbad511610149578063ac80a88811610123578063ac80a888146107bf578063b367ebed146107d2578063bcb0c2d7146107f2578063bf9befb11461081257600080fd5b8063a93bbad51461074c578063aaa3de261461077c578063ac428b111461079f57600080fd5b80636b20c4541461069a578063715018a6146106ba5780638da5cb5b146106cf578063939031b5146106f75780639aec312e1461070c578063a22cb4651461072c57600080fd5b8063296102521161024f57806346f3257f116102085780635a003861116101e25780635a003861146106245780636386c1c71461063a578063679cef4d1461066757806368ce7d8a1461068757600080fd5b806346f3257f146105cc5780634e1273f4146105e15780635050c2031461060e57600080fd5b806329610252146104fc5780632c32c360146105045780632eb2c2d61461052457806339451a88146105445780634209fff114610571578063469b9e23146105a857600080fd5b80631bff8a67116102bc57806324fd565d1161029657806324fd565d1461045a5780632659f3941461048f5780632693ebf2146104a257806328fd70ec146104cf57600080fd5b80631bff8a67146103ea5780631ca98cdc146103ff5780631f7fdffa1461043a57600080fd5b8062fdd58e1461030357806301ffc9a71461033657806302fe5305146103665780630e15561a146103885780630e89341c1461039d578063156e29f6146103ca575b600080fd5b34801561030f57600080fd5b5061032361031e366004614373565b6109b0565b6040519081526020015b60405180910390f35b34801561034257600080fd5b5061035661035136600461454a565b610a4a565b604051901515815260200161032d565b34801561037257600080fd5b50610386610381366004614582565b610a9a565b005b34801561039457600080fd5b50610323610ad0565b3480156103a957600080fd5b506103bd6103b83660046145b4565b610b47565b60405161032d9190614909565b3480156103d657600080fd5b506103866103e536600461439e565b610bdb565b3480156103f657600080fd5b50610323600a81565b34801561040b57600080fd5b5061041f61041a366004614373565b610c7e565b6040805193845260208401929092529082015260600161032d565b34801561044657600080fd5b5061038661045536600461425f565b610d2a565b34801561046657600080fd5b5061047a6104753660046145b4565b610e41565b6040805192835260208301919091520161032d565b61035661049d366004614326565b610ed1565b3480156104ae57600080fd5b506103236104bd3660046145b4565b60056020526000908152604090205481565b3480156104db57600080fd5b506103236104ea3660046145b4565b60076020526000908152604090205481565b610356611021565b34801561051057600080fd5b5061041f61051f36600461439e565b611151565b34801561053057600080fd5b5061038661053f3660046140de565b6112fe565b34801561055057600080fd5b5061032361055f3660046145b4565b60066020526000908152604090205481565b34801561057d57600080fd5b5061059161058c36600461408a565b611395565b60408051921515835260208301919091520161032d565b3480156105b457600080fd5b506105bd611413565b60405161032d939291906148aa565b3480156105d857600080fd5b50610323601281565b3480156105ed57600080fd5b506106016105fc36600461440c565b6114ae565b60405161032d91906148e3565b34801561061a57600080fd5b5061032360095481565b34801561063057600080fd5b50610323600c5481565b34801561064657600080fd5b5061065a61065536600461408a565b61160f565b60405161032d9190614b84565b34801561067357600080fd5b5061038661068236600461408a565b61187a565b610356610695366004614373565b611953565b3480156106a657600080fd5b506103866106b53660046141ed565b611cf0565b3480156106c657600080fd5b50610386611e8d565b3480156106db57600080fd5b506003546040516001600160a01b03909116815260200161032d565b34801561070357600080fd5b50610323600281565b34801561071857600080fd5b50610386610727366004614373565b611ec3565b34801561073857600080fd5b506103866107473660046142f5565b611f6c565b34801561075857600080fd5b5061035661076736600461408a565b600b6020526000908152604090205460ff1681565b34801561078857600080fd5b50610791611f7b565b60405161032d92919061480b565b3480156107ab57600080fd5b506103566107ba366004614373565b6121c4565b6103566107cd366004614326565b6122ec565b3480156107de57600080fd5b506103866107ed36600461408a565b6123e0565b3480156107fe57600080fd5b5061038661080d36600461408a565b6124b1565b34801561081e57600080fd5b506103236125a9565b34801561083357600080fd5b5061032361084236600461408a565b612614565b34801561085357600080fd5b5061041f6108623660046145b4565b612688565b610356610875366004614373565b6129a6565b34801561088657600080fd5b50610323600081565b34801561089b57600080fd5b506103866108aa3660046143d2565b612bbd565b3480156108bb57600080fd5b506103566108ca3660046140a6565b6001600160a01b03918216600090815260016020908152604080832093909416825291909152205460ff1690565b34801561090457600080fd5b506103866109133660046143d2565b612c35565b34801561092457600080fd5b50610386610933366004614187565b612cad565b34801561094457600080fd5b5061038661095336600461408a565b612d34565b34801561096457600080fd5b50610323600181565b34801561097957600080fd5b5061038661098836600461439e565b612dcc565b34801561099957600080fd5b506109a2612e71565b60405161032d92919061487c565b60006001600160a01b038316610a215760405162461bcd60e51b815260206004820152602b60248201527f455243313135353a2062616c616e636520717565727920666f7220746865207a60448201526a65726f206164647265737360a81b60648201526084015b60405180910390fd5b506000818152602081815260408083206001600160a01b03861684529091529020545b92915050565b60006001600160e01b03198216636cdb3d1360e11b1480610a7b57506001600160e01b031982166303a24d0760e21b145b80610a4457506301ffc9a760e01b6001600160e01b0319831614610a44565b6003546001600160a01b03163314610ac45760405162461bcd60e51b8152600401610a1890614ac6565b610acd8161300f565b50565b600080805b600e54811015610b4157610b2d610b26600e8381548110610b0657634e487b7160e01b600052603260045260246000fd5b60009182526020909120600291820201546001600160a01b0316906109b0565b8390613022565b9150610b3a600182614c10565b9050610ad5565b50919050565b606060028054610b5690614d74565b80601f0160208091040260200160405190810160405280929190818152602001828054610b8290614d74565b8015610bcf5780601f10610ba457610100808354040283529160200191610bcf565b820191906000526020600020905b815481529060010190602001808311610bb257829003601f168201915b50505050509050919050565b336000908152600b602052604090205460ff1680610c0357506003546001600160a01b031633145b610c1f5760405162461bcd60e51b8152600401610a1890614a7a565b610c4883838360405180604001604052806005815260200164030783030360dc1b815250613035565b600082815260056020526040902054610c619082613022565b600083815260056020526040902055610c7983613105565b505050565b6000806000806000610c8f876132f5565b915091508115610d15576000600e8281548110610cbc57634e487b7160e01b600052603260045260246000fd5b600091825260208083206040805180820190915260029093020180546001600160a01b031680845260019091015491830182905291935082918291610d0291908c611151565b919a5098509650610d2395505050505050565b600080600094509450945050505b9250925092565b6003546001600160a01b03163314610d545760405162461bcd60e51b8152600401610a1890614ac6565b610d6084848484613367565b60005b8351811015610e3157610de0838281518110610d8f57634e487b7160e01b600052603260045260246000fd5b602002602001015160056000878581518110610dbb57634e487b7160e01b600052603260045260246000fd5b602002602001015181526020019081526020016000205461302290919063ffffffff16565b60056000868481518110610e0457634e487b7160e01b600052603260045260246000fd5b60200260200101518152602001908152602001600020819055508080610e2990614dd5565b915050610d63565b50610e3b84613105565b50505050565b60008080610e516012600a614c7f565b610e5d90618091614d27565b90506315578dae6402540be4008260018710610eb35760005b87811015610eb15782610e898584614d27565b610e939190614c28565b610e9d9083614d46565b915080610ea981614dd5565b915050610e76565b505b6000610ec26201518083614c28565b91989197509095505050505050565b600080610edd84611395565b5090508061101757600d6040518060c00160405280866001600160a01b03168152602001610f0c8760006109b0565b8152602001610f1c8760016109b0565b8152602001610f2c8760026109b0565b8152602080820187905260408051808301825260008082529382015284546001808201875595845292829020845160069094020180546001600160a01b0319166001600160a01b039094169390931783558382015194830194909455928201516002820155606082015160038201556080820151805192939192610fb69260048501920190613e19565b5060a08201518051610fd2916005840191602090910190613e19565b505050836001600160a01b03167fce4142e8977faf4f1090912e8e426eb2aa77063afe611a71d092fd530fe753458460405161100e9190614909565b60405180910390a25b5060019392505050565b60008034116110725760405162461bcd60e51b815260206004820152601e60248201527f4572726f722c20506179696e6720666565206d757374206265203e3d203000006044820152606401610a18565b346000808061108042612688565b91945092509050600061109385856134ce565b90506110bf3360008360405180604001604052806005815260200164030783030360dc1b815250613035565b600080526005602052600080516020614f33833981519152546110e29082613022565b600080526005602052600080516020614f338339815191525561110433613105565b60408051338152600060208201529081018290527f31ceeb53a9be80f14ab4807bbbb9924118891627212791db900e78a9a9fd38309060600160405180910390a160019550505050505090565b600080600084841180156111675750600a548510155b156112eb57600061117787612614565b9050600061119d62015180611197600a54896134da90919063ffffffff16565b906134ce565b905060006111c3620151806111bd600a548a6134da90919063ffffffff16565b906134e6565b905060006111e362015180611197600a548c6134da90919063ffffffff16565b90506000611203620151806111bd600a548d6134da90919063ffffffff16565b905060006112118386614d46565b905060008061121f85610e41565b91508890506112318562015180614d46565b61123b9083614d27565b6112459190614d27565b9150600083156112985760005b84811015611296576000611269610475838a614c10565b5090506112768b82614d27565b6112809084614c10565b925050808061128e90614dd5565b915050611252565b505b6000806112a48a610e41565b91508b90506112b38a83614d27565b6112bd9190614d27565b9150846112ca8385614c10565b6112d49190614c10565b9d50989b509699506112f598505050505050505050565b5060009150819050805b93509350939050565b6001600160a01b03851633148061131a575061131a85336108ca565b6113815760405162461bcd60e51b815260206004820152603260248201527f455243313135353a207472616e736665722063616c6c6572206973206e6f74206044820152711bdddb995c881b9bdc88185c1c1c9bdd995960721b6064820152608401610a18565b61138e85858585856134f2565b5050505050565b60008060005b600d5481101561140757600d81815481106113c657634e487b7160e01b600052603260045260246000fd5b60009182526020909120600690910201546001600160a01b03858116911614156113f557600194909350915050565b611400600182614c10565b905061139b565b50600093849350915050565b6060806060600460009054906101000a90046001600160a01b03166001600160a01b03166320978fdd6040518163ffffffff1660e01b815260040160006040518083038186803b15801561146657600080fd5b505afa15801561147a573d6000803e3d6000fd5b505050506040513d6000823e601f3d908101601f191682016040526114a29190810190614462565b91959094509092509050565b606081518351146115135760405162461bcd60e51b815260206004820152602960248201527f455243313135353a206163636f756e747320616e6420696473206c656e677468604482015268040dad2e6dac2e8c6d60bb1b6064820152608401610a18565b600083516001600160401b0381111561153c57634e487b7160e01b600052604160045260246000fd5b604051908082528060200260200182016040528015611565578160200160208202803683370190505b50905060005b8451811015611607576115cc85828151811061159757634e487b7160e01b600052603260045260246000fd5b60200260200101518583815181106115bf57634e487b7160e01b600052603260045260246000fd5b60200260200101516109b0565b8282815181106115ec57634e487b7160e01b600052603260045260246000fd5b602090810291909101015261160081614dd5565b905061156b565b509392505050565b6116516040518060c0016040528060006001600160a01b0316815260200160008152602001600081526020016000815260200160608152602001606081525090565b60008061165d84611395565b91509150811561181957600d818154811061168857634e487b7160e01b600052603260045260246000fd5b90600052602060002090600602016040518060c00160405290816000820160009054906101000a90046001600160a01b03166001600160a01b03166001600160a01b031681526020016001820154815260200160028201548152602001600382015481526020016004820180546116fe90614d74565b80601f016020809104026020016040519081016040528092919081815260200182805461172a90614d74565b80156117775780601f1061174c57610100808354040283529160200191611777565b820191906000526020600020905b81548152906001019060200180831161175a57829003601f168201915b5050505050815260200160058201805461179090614d74565b80601f01602080910402602001604051908101604052809291908181526020018280546117bc90614d74565b80156118095780601f106117de57610100808354040283529160200191611809565b820191906000526020600020905b8154815290600101906020018083116117ec57829003601f168201915b5050505050815250509250611873565b6040518060c00160405280856001600160a01b031681526020016000815260200160008152602001600081526020016040518060200160405280600081525081526020016040518060200160405280600081525081525092505b5050919050565b6003546001600160a01b031633146118a45760405162461bcd60e51b8152600401610a1890614ac6565b6001600160a01b0381166118f45760405162461bcd60e51b8152602060048201526017602482015276416464726573732063616e206e6f74206265207a65726f60481b6044820152606401610a18565b6001600160a01b0381166000908152600b602052604090205460ff16610acd576001600160a01b0381166000908152600b60205260408120805460ff19166001179055600c80549161194583614dd5565b9190505550610acd81613105565b60006119608360016109b0565b8211156119e05760405162461bcd60e51b815260206004820152604260248201527f4572726f722c20756e7374616b6520616d6f756e74206d757374206265203e3d60448201527f20686f6c64696e6720616d6f756e74206f6620737443696d706c6520546f6b65606482015261371760f11b608482015260a401610a18565b6000806119ec856132f5565b915091506000600e8281548110611a1357634e487b7160e01b600052603260045260246000fd5b600091825260208083206040805180820190915260029093020180546001600160a01b0316835260010154908201819052909250611a5390889042611151565b50909150508315611c9e57611a6a876001886136a2565b611a948760008860405180604001604052806005815260200164030783030360dc1b815250613035565b60016000526005602052600080516020614f1383398151915254611ab890876134da565b6005602052600080516020614f138339815191525560008052600080516020614f3383398151915254611aeb9087613022565b600080516020614f3383398151915255600160005260066020527f3e5fec24aa4dc4e5aee2e025e51e1392c72a2500577559fae9665c6d52bd6a3154611b319087613022565b6001600081905260066020527f3e5fec24aa4dc4e5aee2e025e51e1392c72a2500577559fae9665c6d52bd6a3191909155611b6d9088906109b0565b611c0b57611b9b8760028360405180604001604052806005815260200164030783030360dc1b815250613035565b600260005260056020527f89832631fb3c3307a103ba2c84ab569c64d6182a18893dcd163f0f1c2090733a54611bd19082613022565b600260005260056020527f89832631fb3c3307a103ba2c84ab569c64d6182a18893dcd163f0f1c2090733a55611c06876124b1565b611c43565b42600e8481548110611c2d57634e487b7160e01b600052603260045260246000fd5b9060005260206000209060020201600101819055505b611c4c87613105565b6040805160008152602081018890526001600160a01b038916917f02e3e22c9e1a0e7844cecbe14fa26629cbf782fa7342f6a4fe0c46d154e16c1c910160405180910390a26001945050505050610a44565b6040805160008152602081018890526001600160a01b038916917f02e3e22c9e1a0e7844cecbe14fa26629cbf782fa7342f6a4fe0c46d154e16c1c910160405180910390a26000945050505050610a44565b6003546001600160a01b03163314611d1a5760405162461bcd60e51b8152600401610a1890614ac6565b611d258383836137a4565b60005b8251811015611e8357611da5828281518110611d5457634e487b7160e01b600052603260045260246000fd5b602002602001015160056000868581518110611d8057634e487b7160e01b600052603260045260246000fd5b60200260200101518152602001908152602001600020546134da90919063ffffffff16565b60056000858481518110611dc957634e487b7160e01b600052603260045260246000fd5b6020026020010151815260200190815260200160002081905550611e32828281518110611e0657634e487b7160e01b600052603260045260246000fd5b602002602001015160066000868581518110610dbb57634e487b7160e01b600052603260045260246000fd5b60066000858481518110611e5657634e487b7160e01b600052603260045260246000fd5b60200260200101518152602001908152602001600020819055508080611e7b90614dd5565b915050611d28565b50610c7983613105565b6003546001600160a01b03163314611eb75760405162461bcd60e51b8152600401610a1890614ac6565b611ec1600061393b565b565b6000611ece836132f5565b50905080610c795750604080518082019091526001600160a01b03928316815260208101918252600e805460018101825560009190915290517fbb7b4a454dc3493923482f07822329ed19e8244eff582cc204f8554c3620c3fd600290920291820180546001600160a01b0319169190941617909255517fbb7b4a454dc3493923482f07822329ed19e8244eff582cc204f8554c3620c3fe90910155565b611f7733838361398d565b5050565b600d5460609081906000816001600160401b03811115611fab57634e487b7160e01b600052604160045260246000fd5b604051908082528060200260200182016040528015611fd4578160200160208202803683370190505b5090506000826001600160401b03811115611fff57634e487b7160e01b600052604160045260246000fd5b60405190808252806020026020018201604052801561203257816020015b606081526020019060019003908161201d5790505b50905060005b838110156121b957600d818154811061206157634e487b7160e01b600052603260045260246000fd5b600091825260209091206006909102015483516001600160a01b03909116908490839081106120a057634e487b7160e01b600052603260045260246000fd5b60200260200101906001600160a01b031690816001600160a01b031681525050600d81815481106120e157634e487b7160e01b600052603260045260246000fd5b906000526020600020906006020160040180546120fd90614d74565b80601f016020809104026020016040519081016040528092919081815260200182805461212990614d74565b80156121765780601f1061214b57610100808354040283529160200191612176565b820191906000526020600020905b81548152906001019060200180831161215957829003601f168201915b505050505082828151811061219b57634e487b7160e01b600052603260045260246000fd5b602002602001018190525080806121b190614dd5565b915050612038565b509094909350915050565b60008082116122155760405162461bcd60e51b815260206004820181905260248201527f4572726f722c20616d6f756e74206f6620706179206d757374206265203e20306044820152606401610a18565b612221836000846136a2565b600080526005602052600080516020614f338339815191525461224490836134da565b60008052600080516020614f33833981519152556006602052600080516020614f53833981519152546122779083613022565b600080526006602052600080516020614f538339815191525561229983613105565b604080516001600160a01b0385168152600060208201529081018390527f31ceeb53a9be80f14ab4807bbbb9924118891627212791db900e78a9a9fd38309060600160405180910390a150600192915050565b60008060006122fa85611395565b9150915081156123d5576000600d828154811061232757634e487b7160e01b600052603260045260246000fd5b906000526020600020906006020190506123428660006109b0565b81600101819055506123558660016109b0565b81600201819055506123688660026109b0565b600382015584516123829060058301906020880190613e19565b507f745388f1f2066314e78147ed8debd092c88cecb8224f8d01385c9cba55c3945786826001015483600201548460030154856004018a6040516123cb9695949392919061472c565b60405180910390a1505b506001949350505050565b6003546001600160a01b0316331461240a5760405162461bcd60e51b8152600401610a1890614ac6565b6001600160a01b03811661245a5760405162461bcd60e51b8152602060048201526017602482015276416464726573732063616e206e6f74206265207a65726f60481b6044820152606401610a18565b6001600160a01b0381166000908152600b602052604090205460ff1615610acd576001600160a01b0381166000908152600b60205260408120805460ff19169055600c8054916124a983614d5d565b919050555050565b6000806124bd836132f5565b915091508115610c7957600e80546124d790600190614d46565b815481106124f557634e487b7160e01b600052603260045260246000fd5b9060005260206000209060020201600e828154811061252457634e487b7160e01b600052603260045260246000fd5b60009182526020909120825460029092020180546001600160a01b0319166001600160a01b03909216919091178155600191820154910155600e80548061257b57634e487b7160e01b600052603160045260246000fd5b60008281526020812060026000199093019283020180546001600160a01b0319168155600101559055505050565b600080805b600e54811015610b4157612600610b26600e83815481106125df57634e487b7160e01b600052603260045260246000fd5b60009182526020909120600290910201546001600160a01b031660016109b0565b915061260d600182614c10565b90506125ae565b600080612620836132f5565b50600e54909150158015906126325750805b1561267f5760006126416125a9565b905060006126508560016109b0565b905060008282612661600a80614c7f565b61266b9190614d27565b6126759190614c28565b9695505050505050565b50600092915050565b600080600083600a54106126fc5760405162461bcd60e51b815260206004820152603560248201527f4572726f722c2073656c65637465642064617465206973206c6f776572207468604482015274616e20746f6b656e207075626c697368206461746560581b6064820152608401610a18565b600a54849060009061270f9083906134da565b9050600061272661016d6111bd84620151806134ce565b90506000612738836301e143206134ce565b905064174876e80064e8d4a5100061274e613e9d565b612756613e9d565b64174876e800825264e8d4a510008152601e85111561277457601e94505b60018510156127a9578185601f811061279d57634e487b7160e01b600052603260045260246000fd5b60200201519350612936565b60015b8581116128745760006064846127c3600185614d46565b601f81106127e157634e487b7160e01b600052603260045260246000fd5b60200201516127f19060af614d27565b6127fb9190614c28565b905060015b82811161283a576402540be40061281c83640248c58113614d27565b6128269190614c28565b91508061283281614dd5565b915050612800565b50808483601f811061285c57634e487b7160e01b600052603260045260246000fd5b6020020152508061286c81614dd5565b9150506127ac565b508185601f811061289557634e487b7160e01b600052603260045260246000fd5b60200201519350816128a8600187614d46565b601f81106128c657634e487b7160e01b600052603260045260246000fd5b60200201516128d79061016d614d27565b816128e3600188614d46565b601f811061290157634e487b7160e01b600052603260045260246000fd5b60200201516129109190614c10565b8186601f811061293057634e487b7160e01b600052603260045260246000fd5b60200201525b60006129428786614d27565b90508186601f811061296457634e487b7160e01b600052603260045260246000fd5b602002015193506129758185614c10565b9350670de0b6b3a7640000841061299257670de0b6b3a764000093505b50919b929a50939850909650505050505050565b60006129b38360006109b0565b821115612a285760405162461bcd60e51b815260206004820152603d60248201527f4572726f722c207374616b6520616d6f756e74206d757374206265203e3d206860448201527f6f6c64696e6720616d6f756e74206f662043696d706c6520546f6b656e0000006064820152608401610a18565b612a34836000846136a2565b612a5e8360018460405180604001604052806005815260200164030783030360dc1b815250613035565b60016000526005602052600080516020614f1383398151915254612a829083613022565b6005602052600080516020614f138339815191525560008052600080516020614f3383398151915254612ab590836134da565b60008052600080516020614f33833981519152556006602052600080516020614f5383398151915254612ae89083613022565b60008080526006602052600080516020614f538339815191529190915580612b0f856132f5565b9150915081612b2757612b228542611ec3565b612b5f565b42600e8281548110612b4957634e487b7160e01b600052603260045260246000fd5b9060005260206000209060020201600101819055505b612b6885613105565b604080516001600160a01b0387168152600160208201529081018590527fdbeaac4dc3e2a9b50f12b26e4b2808d88ad3888d63249c6ea992214e1384b35d9060600160405180910390a1506001949350505050565b6003546001600160a01b03163314612be75760405162461bcd60e51b8152600401610a1890614ac6565b60005b8151811015611f7757612c23828281518110612c1657634e487b7160e01b600052603260045260246000fd5b602002602001015161187a565b80612c2d81614dd5565b915050612bea565b6003546001600160a01b03163314612c5f5760405162461bcd60e51b8152600401610a1890614ac6565b60005b8151811015611f7757612c9b828281518110612c8e57634e487b7160e01b600052603260045260246000fd5b60200260200101516123e0565b80612ca581614dd5565b915050612c62565b6001600160a01b038516331480612cc95750612cc985336108ca565b612d275760405162461bcd60e51b815260206004820152602960248201527f455243313135353a2063616c6c6572206973206e6f74206f776e6572206e6f7260448201526808185c1c1c9bdd995960ba1b6064820152608401610a18565b61138e8585858585613a6e565b6003546001600160a01b03163314612d5e5760405162461bcd60e51b8152600401610a1890614ac6565b6001600160a01b038116612dc35760405162461bcd60e51b815260206004820152602660248201527f4f776e61626c653a206e6577206f776e657220697320746865207a65726f206160448201526564647265737360d01b6064820152608401610a18565b610acd8161393b565b336000908152600b602052604090205460ff1680612df457506003546001600160a01b031633145b612e105760405162461bcd60e51b8152600401610a1890614a7a565b612e1b8383836136a2565b600082815260056020526040902054612e3490826134da565b600083815260056020908152604080832093909355600690522054612e599082613022565b600083815260066020526040902055610c7983613105565b600e5460609081906000816001600160401b03811115612ea157634e487b7160e01b600052604160045260246000fd5b604051908082528060200260200182016040528015612eca578160200160208202803683370190505b5090506000826001600160401b03811115612ef557634e487b7160e01b600052604160045260246000fd5b604051908082528060200260200182016040528015612f1e578160200160208202803683370190505b50905060005b600e548110156121b9576000600e8281548110612f5157634e487b7160e01b600052603260045260246000fd5b60009182526020918290206040805180820190915260029092020180546001600160a01b0316808352600190910154928201929092528551909250859084908110612fac57634e487b7160e01b600052603260045260246000fd5b60200260200101906001600160a01b031690816001600160a01b0316815250508060200151838381518110612ff157634e487b7160e01b600052603260045260246000fd5b602090810291909101015250613008600182614c10565b9050612f24565b8051611f77906002906020840190613e19565b600061302e8284614c10565b9392505050565b6001600160a01b03841661305b5760405162461bcd60e51b8152600401610a1890614b43565b336130758160008761306c88613b8b565b61138e88613b8b565b6000848152602081815260408083206001600160a01b0389168452909152812080548592906130a5908490614c10565b909155505060408051858152602081018590526001600160a01b0380881692600092918516917fc3d58168c5ae7397731d063d5bbf3d657854427343f4c083240f7aacaa2d0f62910160405180910390a461138e81600087878787613be4565b60008061311183611395565b91509150811561318a576000600d828154811061313e57634e487b7160e01b600052603260045260246000fd5b906000526020600020906006020190506131598460006109b0565b816001018190555061316c8460016109b0565b816002018190555061317f8460026109b0565b600390910155505050565b6040805160c0810182526001600160a01b03858116825260006020808401828152848601838152606086018481528751808501895285815260808801908152885180860190995285895260a0880198909852600d8054600181018255955286517fd7b6990105719101dabeb77144f2a3385c8033acd3af97e9423a695e81ad1eb5600690960295860180546001600160a01b0319169190971617865591517fd7b6990105719101dabeb77144f2a3385c8033acd3af97e9423a695e81ad1eb6850155517fd7b6990105719101dabeb77144f2a3385c8033acd3af97e9423a695e81ad1eb7840155517fd7b6990105719101dabeb77144f2a3385c8033acd3af97e9423a695e81ad1eb883015593518051939492936132d1937fd7b6990105719101dabeb77144f2a3385c8033acd3af97e9423a695e81ad1eb9909301929190910190613e19565b5060a082015180516132ed916005840191602090910190613e19565b505050505050565b60008060005b600e5481101561140757600e818154811061332657634e487b7160e01b600052603260045260246000fd5b60009182526020909120600290910201546001600160a01b038581169116141561335557600194909350915050565b613360600182614c10565b90506132fb565b6001600160a01b03841661338d5760405162461bcd60e51b8152600401610a1890614b43565b81518351146133ae5760405162461bcd60e51b8152600401610a1890614afb565b3360005b8451811015613466578381815181106133db57634e487b7160e01b600052603260045260246000fd5b602002602001015160008087848151811061340657634e487b7160e01b600052603260045260246000fd5b602002602001015181526020019081526020016000206000886001600160a01b03166001600160a01b03168152602001908152602001600020600082825461344e9190614c10565b9091555081905061345e81614dd5565b9150506133b2565b50846001600160a01b031660006001600160a01b0316826001600160a01b03167f4a39dc06d4c0dbc64b70af90fd698a233a518aa5d07e595d983b8c0526c8f7fb87876040516134b79291906148f6565b60405180910390a461138e81600087878787613d4f565b600061302e8284614c28565b600061302e8284614d46565b600061302e8284614df0565b81518351146135135760405162461bcd60e51b8152600401610a1890614afb565b6001600160a01b0384166135395760405162461bcd60e51b8152600401610a18906149a8565b3360005b845181101561363c57600085828151811061356857634e487b7160e01b600052603260045260246000fd5b60200260200101519050600085838151811061359457634e487b7160e01b600052603260045260246000fd5b602090810291909101810151600084815280835260408082206001600160a01b038e1683529093529190912054909150818110156135e45760405162461bcd60e51b8152600401610a1890614a30565b6000838152602081815260408083206001600160a01b038e8116855292528083208585039055908b16825281208054849290613621908490614c10565b925050819055505050508061363590614dd5565b905061353d565b50846001600160a01b0316866001600160a01b0316826001600160a01b03167f4a39dc06d4c0dbc64b70af90fd698a233a518aa5d07e595d983b8c0526c8f7fb878760405161368c9291906148f6565b60405180910390a46132ed818787878787613d4f565b6001600160a01b0383166136c85760405162461bcd60e51b8152600401610a18906149ed565b336136f8818560006136d987613b8b565b6136e287613b8b565b5050604080516020810190915260009052505050565b6000838152602081815260408083206001600160a01b0388168452909152902054828110156137395760405162461bcd60e51b8152600401610a1890614964565b6000848152602081815260408083206001600160a01b03898116808652918452828520888703905582518981529384018890529092908616917fc3d58168c5ae7397731d063d5bbf3d657854427343f4c083240f7aacaa2d0f62910160405180910390a45050505050565b6001600160a01b0383166137ca5760405162461bcd60e51b8152600401610a18906149ed565b80518251146137eb5760405162461bcd60e51b8152600401610a1890614afb565b6040805160208101909152600090523360005b83518110156138dc57600084828151811061382957634e487b7160e01b600052603260045260246000fd5b60200260200101519050600084838151811061385557634e487b7160e01b600052603260045260246000fd5b602090810291909101810151600084815280835260408082206001600160a01b038c1683529093529190912054909150818110156138a55760405162461bcd60e51b8152600401610a1890614964565b6000928352602083815260408085206001600160a01b038b16865290915290922091039055806138d481614dd5565b9150506137fe565b5060006001600160a01b0316846001600160a01b0316826001600160a01b03167f4a39dc06d4c0dbc64b70af90fd698a233a518aa5d07e595d983b8c0526c8f7fb868660405161392d9291906148f6565b60405180910390a450505050565b600380546001600160a01b038381166001600160a01b0319831681179093556040519116919082907f8be0079c531659141344cd1fd0a4f28419497f9722a3daafe3b4186f6b6457e090600090a35050565b816001600160a01b0316836001600160a01b03161415613a015760405162461bcd60e51b815260206004820152602960248201527f455243313135353a2073657474696e6720617070726f76616c20737461747573604482015268103337b91039b2b63360b91b6064820152608401610a18565b6001600160a01b03838116600081815260016020908152604080832094871680845294825291829020805460ff191686151590811790915591519182527f17307eab39ab6107e8899845ad3d59bd9653f200f220920489ca2b5937696c31910160405180910390a3505050565b6001600160a01b038416613a945760405162461bcd60e51b8152600401610a18906149a8565b33613aa481878761306c88613b8b565b6000848152602081815260408083206001600160a01b038a16845290915290205483811015613ae55760405162461bcd60e51b8152600401610a1890614a30565b6000858152602081815260408083206001600160a01b038b8116855292528083208785039055908816825281208054869290613b22908490614c10565b909155505060408051868152602081018690526001600160a01b03808916928a821692918616917fc3d58168c5ae7397731d063d5bbf3d657854427343f4c083240f7aacaa2d0f62910160405180910390a4613b82828888888888613be4565b50505050505050565b60408051600180825281830190925260609160009190602080830190803683370190505090508281600081518110613bd357634e487b7160e01b600052603260045260246000fd5b602090810291909101015292915050565b6001600160a01b0384163b156132ed5760405163f23a6e6160e01b81526001600160a01b0385169063f23a6e6190613c2890899089908890889088906004016146e7565b602060405180830381600087803b158015613c4257600080fd5b505af1925050508015613c72575060408051601f3d908101601f19168201909252613c6f91810190614566565b60015b613d1f57613c7e614e46565b806308c379a01415613cb85750613c93614e5e565b80613c9e5750613cba565b8060405162461bcd60e51b8152600401610a189190614909565b505b60405162461bcd60e51b815260206004820152603460248201527f455243313135353a207472616e7366657220746f206e6f6e20455243313135356044820152732932b1b2b4bb32b91034b6b83632b6b2b73a32b960611b6064820152608401610a18565b6001600160e01b0319811663f23a6e6160e01b14613b825760405162461bcd60e51b8152600401610a189061491c565b6001600160a01b0384163b156132ed5760405163bc197c8160e01b81526001600160a01b0385169063bc197c8190613d939089908990889088908890600401614689565b602060405180830381600087803b158015613dad57600080fd5b505af1925050508015613ddd575060408051601f3d908101601f19168201909252613dda91810190614566565b60015b613de957613c7e614e46565b6001600160e01b0319811663bc197c8160e01b14613b825760405162461bcd60e51b8152600401610a189061491c565b828054613e2590614d74565b90600052602060002090601f016020900481019282613e475760008555613e8d565b82601f10613e6057805160ff1916838001178555613e8d565b82800160010185558215613e8d579182015b82811115613e8d578251825591602001919060010190613e72565b50613e99929150613ebc565b5090565b604051806103e00160405280601f906020820280368337509192915050565b5b80821115613e995760008155600101613ebd565b600082601f830112613ee1578081fd5b81356020613eee82614bed565b604051613efb8282614da9565b8381528281019150858301600585901b87018401881015613f1a578586fd5b855b85811015613f41578135613f2f81614ee7565b84529284019290840190600101613f1c565b5090979650505050505050565b600082601f830112613f5e578081fd5b81356020613f6b82614bed565b604051613f788282614da9565b8381528281019150858301600585901b87018401881015613f97578586fd5b855b85811015613f4157813584529284019290840190600101613f99565b600082601f830112613fc5578081fd5b81516020613fd282614bed565b604051613fdf8282614da9565b8381528281019150858301600585901b87018401881015613ffe578586fd5b855b85811015613f4157815184529284019290840190600101614000565b600082601f83011261402c578081fd5b81356001600160401b0381111561404557614045614e30565b60405161405c601f8301601f191660200182614da9565b818152846020838601011115614070578283fd5b816020850160208301379081016020019190915292915050565b60006020828403121561409b578081fd5b813561302e81614ee7565b600080604083850312156140b8578081fd5b82356140c381614ee7565b915060208301356140d381614ee7565b809150509250929050565b600080600080600060a086880312156140f5578081fd5b853561410081614ee7565b9450602086013561411081614ee7565b935060408601356001600160401b038082111561412b578283fd5b61413789838a01613f4e565b9450606088013591508082111561414c578283fd5b61415889838a01613f4e565b9350608088013591508082111561416d578283fd5b5061417a8882890161401c565b9150509295509295909350565b600080600080600060a0868803121561419e578081fd5b85356141a981614ee7565b945060208601356141b981614ee7565b9350604086013592506060860135915060808601356001600160401b038111156141e1578182fd5b61417a8882890161401c565b600080600060608486031215614201578081fd5b833561420c81614ee7565b925060208401356001600160401b0380821115614227578283fd5b61423387838801613f4e565b93506040860135915080821115614248578283fd5b5061425586828701613f4e565b9150509250925092565b60008060008060808587031215614274578182fd5b843561427f81614ee7565b935060208501356001600160401b038082111561429a578384fd5b6142a688838901613f4e565b945060408701359150808211156142bb578384fd5b6142c788838901613f4e565b935060608701359150808211156142dc578283fd5b506142e98782880161401c565b91505092959194509250565b60008060408385031215614307578182fd5b823561431281614ee7565b9150602083013580151581146140d3578182fd5b60008060408385031215614338578182fd5b823561434381614ee7565b915060208301356001600160401b0381111561435d578182fd5b6143698582860161401c565b9150509250929050565b60008060408385031215614385578182fd5b823561439081614ee7565b946020939093013593505050565b6000806000606084860312156143b2578081fd5b83356143bd81614ee7565b95602085013595506040909401359392505050565b6000602082840312156143e3578081fd5b81356001600160401b038111156143f8578182fd5b61440484828501613ed1565b949350505050565b6000806040838503121561441e578182fd5b82356001600160401b0380821115614434578384fd5b61444086838701613ed1565b93506020850135915080821115614455578283fd5b5061436985828601613f4e565b600080600060608486031215614476578081fd5b83516001600160401b038082111561448c578283fd5b818601915086601f83011261449f578283fd5b815160206144ac82614bed565b6040516144b98282614da9565b8381528281019150858301600585901b870184018c10156144d8578788fd5b8796505b848710156145035780516144ef81614ee7565b8352600196909601959183019183016144dc565b509189015191975090935050508082111561451c578283fd5b61452887838801613fb5565b9350604086015191508082111561453d578283fd5b5061425586828701613fb5565b60006020828403121561455b578081fd5b813561302e81614efc565b600060208284031215614577578081fd5b815161302e81614efc565b600060208284031215614593578081fd5b81356001600160401b038111156145a8578182fd5b6144048482850161401c565b6000602082840312156145c5578081fd5b5035919050565b6000815180845260208085019450808401835b838110156146045781516001600160a01b0316875295820195908201906001016145df565b509495945050505050565b6000815180845260208085019450808401835b8381101561460457815187529582019590820190600101614622565b60008151808452815b8181101561466357602081850181015186830182015201614647565b818111156146745782602083870101525b50601f01601f19169290920160200192915050565b6001600160a01b0386811682528516602082015260a0604082018190526000906146b59083018661460f565b82810360608401526146c7818661460f565b905082810360808401526146db818561463e565b98975050505050505050565b6001600160a01b03868116825285166020820152604081018490526060810183905260a0608082018190526000906147219083018461463e565b979650505050505050565b60018060a01b038716815260006020878184015286604084015285606084015260c0608084015281855483600182811c91508083168061476d57607f831692505b85831081141561478b57634e487b7160e01b87526022600452602487fd5b60c0880183905260e088018180156147aa57600181146147bb576147e5565b60ff198616825287820196506147e5565b60008c815260209020895b868110156147df578154848201529085019089016147c6565b83019750505b50505050505083810360a08501526147fd818661463e565b9a9950505050505050505050565b60408152600061481e60408301856145cc565b6020838203818501528185518084528284019150828160051b850101838801865b8381101561486d57601f1987840301855261485b83835161463e565b9486019492509085019060010161483f565b50909998505050505050505050565b60408152600061488f60408301856145cc565b82810360208401526148a1818561460f565b95945050505050565b6060815260006148bd60608301866145cc565b82810360208401526148cf818661460f565b90508281036040840152612675818561460f565b60208152600061302e602083018461460f565b60408152600061488f604083018561460f565b60208152600061302e602083018461463e565b60208082526028908201527f455243313135353a204552433131353552656365697665722072656a656374656040820152676420746f6b656e7360c01b606082015260800190565b60208082526024908201527f455243313135353a206275726e20616d6f756e7420657863656564732062616c604082015263616e636560e01b606082015260800190565b60208082526025908201527f455243313135353a207472616e7366657220746f20746865207a65726f206164604082015264647265737360d81b606082015260800190565b60208082526023908201527f455243313135353a206275726e2066726f6d20746865207a65726f206164647260408201526265737360e81b606082015260800190565b6020808252602a908201527f455243313135353a20696e73756666696369656e742062616c616e636520666f60408201526939103a3930b739b332b960b11b606082015260800190565b6020808252602c908201527f536f7272792c20746869732061646472657373206973206e6f74206f6e20746860408201526b32903bb434ba32b634b9ba1760a11b606082015260800190565b6020808252818101527f4f776e61626c653a2063616c6c6572206973206e6f7420746865206f776e6572604082015260600190565b60208082526028908201527f455243313135353a2069647320616e6420616d6f756e7473206c656e677468206040820152670dad2e6dac2e8c6d60c31b606082015260800190565b60208082526021908201527f455243313135353a206d696e7420746f20746865207a65726f206164647265736040820152607360f81b606082015260800190565b6020815260018060a01b0382511660208201526020820151604082015260408201516060820152606082015160808201526000608083015160c060a0840152614bd060e084018261463e565b905060a0840151601f198483030160c08501526148a1828261463e565b60006001600160401b03821115614c0657614c06614e30565b5060051b60200190565b60008219821115614c2357614c23614e04565b500190565b600082614c3757614c37614e1a565b500490565b600181815b80851115614c77578160001904821115614c5d57614c5d614e04565b80851615614c6a57918102915b93841c9390800290614c41565b509250929050565b600061302e8383600082614c9557506001610a44565b81614ca257506000610a44565b8160018114614cb85760028114614cc257614cde565b6001915050610a44565b60ff841115614cd357614cd3614e04565b50506001821b610a44565b5060208310610133831016604e8410600b8410161715614d01575081810a610a44565b614d0b8383614c3c565b8060001904821115614d1f57614d1f614e04565b029392505050565b6000816000190483118215151615614d4157614d41614e04565b500290565b600082821015614d5857614d58614e04565b500390565b600081614d6c57614d6c614e04565b506000190190565b600181811c90821680614d8857607f821691505b60208210811415610b4157634e487b7160e01b600052602260045260246000fd5b601f8201601f191681016001600160401b0381118282101715614dce57614dce614e30565b6040525050565b6000600019821415614de957614de9614e04565b5060010190565b600082614dff57614dff614e1a565b500690565b634e487b7160e01b600052601160045260246000fd5b634e487b7160e01b600052601260045260246000fd5b634e487b7160e01b600052604160045260246000fd5b600060033d1115614e5b57600481823e5160e01c5b90565b600060443d1015614e6c5790565b6040516003193d81016004833e81513d6001600160401b038160248401118184111715614e9b57505050505090565b8285019150815181811115614eb35750505050505090565b843d8701016020828501011115614ecd5750505050505090565b614edc60208286010187614da9565b509095945050505050565b6001600160a01b0381168114610acd57600080fd5b6001600160e01b031981168114610acd57600080fdfe1471eb6eb2c5e789fc3de43f8ce62938c7d1836ec861730447e2ada8fd81017b05b8ccbb9d4d8fb16ea74ce3c29a41f1b461fbdaff4714a0d9a8eb05499746bc54cdd369e4e8a8515e52ca72ec816c2101831ad1f18bf44102ed171459c9b4f8a26469706673582212208787e77346b228a6dbaff65d52e5e62f877bcba527e2da1e032eff990c5cb8ce64736f6c63430008040033",
  "linkReferences": {},
  "deployedLinkReferences": {}
}