{
  "contractName": "CimpleDAO",
  "abi": [
    {
      "inputs": [],
      "stateMutability": "nonpayable",
      "type": "constructor"
    },
    {
      "anonymous": false,
      "inputs": [
        {
          "indexed": true,
          "internalType": "address",
          "name": "account",
          "type": "address"
        },
        {
          "indexed": true,
          "internalType": "address",
          "name": "operator",
          "type": "address"
        },
        {
          "indexed": false,
          "internalType": "bool",
          "name": "approved",
          "type": "bool"
        }
      ],
      "name": "ApprovalForAll",
      "type": "event"
    },
    {
      "anonymous": false,
      "inputs": [
        {
          "indexed": true,
          "internalType": "address",
          "name": "previousOwner",
          "type": "address"
        },
        {
          "indexed": true,
          "internalType": "address",
          "name": "newOwner",
          "type": "address"
        }
      ],
      "name": "OwnershipTransferred",
      "type": "event"
    },
    {
      "anonymous": false,
      "inputs": [
        {
          "indexed": true,
          "internalType": "address",
          "name": "operator",
          "type": "address"
        },
        {
          "indexed": true,
          "internalType": "address",
          "name": "from",
          "type": "address"
        },
        {
          "indexed": true,
          "internalType": "address",
          "name": "to",
          "type": "address"
        },
        {
          "indexed": false,
          "internalType": "uint256[]",
          "name": "ids",
          "type": "uint256[]"
        },
        {
          "indexed": false,
          "internalType": "uint256[]",
          "name": "values",
          "type": "uint256[]"
        }
      ],
      "name": "TransferBatch",
      "type": "event"
    },
    {
      "anonymous": false,
      "inputs": [
        {
          "indexed": true,
          "internalType": "address",
          "name": "operator",
          "type": "address"
        },
        {
          "indexed": true,
          "internalType": "address",
          "name": "from",
          "type": "address"
        },
        {
          "indexed": true,
          "internalType": "address",
          "name": "to",
          "type": "address"
        },
        {
          "indexed": false,
          "internalType": "uint256",
          "name": "id",
          "type": "uint256"
        },
        {
          "indexed": false,
          "internalType": "uint256",
          "name": "value",
          "type": "uint256"
        }
      ],
      "name": "TransferSingle",
      "type": "event"
    },
    {
      "anonymous": false,
      "inputs": [
        {
          "indexed": false,
          "internalType": "string",
          "name": "value",
          "type": "string"
        },
        {
          "indexed": true,
          "internalType": "uint256",
          "name": "id",
          "type": "uint256"
        }
      ],
      "name": "URI",
      "type": "event"
    },
    {
      "inputs": [],
      "name": "CMPG",
      "outputs": [
        {
          "internalType": "uint256",
          "name": "",
          "type": "uint256"
        }
      ],
      "stateMutability": "view",
      "type": "function"
    },
    {
      "inputs": [],
      "name": "CMPGDecimal",
      "outputs": [
        {
          "internalType": "uint256",
          "name": "",
          "type": "uint256"
        }
      ],
      "stateMutability": "view",
      "type": "function"
    },
    {
      "inputs": [],
      "name": "CMPGDistributionPercentDecimal",
      "outputs": [
        {
          "internalType": "uint256",
          "name": "",
          "type": "uint256"
        }
      ],
      "stateMutability": "view",
      "type": "function"
    },
    {
      "inputs": [],
      "name": "Cimple",
      "outputs": [
        {
          "internalType": "uint256",
          "name": "",
          "type": "uint256"
        }
      ],
      "stateMutability": "view",
      "type": "function"
    },
    {
      "inputs": [],
      "name": "DailyCMPGSupplyDecreasePercentDecimal",
      "outputs": [
        {
          "internalType": "uint256",
          "name": "",
          "type": "uint256"
        }
      ],
      "stateMutability": "view",
      "type": "function"
    },
    {
      "inputs": [
        {
          "internalType": "address",
          "name": "account",
          "type": "address"
        },
        {
          "internalType": "uint256",
          "name": "id",
          "type": "uint256"
        }
      ],
      "name": "balanceOf",
      "outputs": [
        {
          "internalType": "uint256",
          "name": "",
          "type": "uint256"
        }
      ],
      "stateMutability": "view",
      "type": "function"
    },
    {
      "inputs": [
        {
          "internalType": "address[]",
          "name": "accounts",
          "type": "address[]"
        },
        {
          "internalType": "uint256[]",
          "name": "ids",
          "type": "uint256[]"
        }
      ],
      "name": "balanceOfBatch",
      "outputs": [
        {
          "internalType": "uint256[]",
          "name": "",
          "type": "uint256[]"
        }
      ],
      "stateMutability": "view",
      "type": "function"
    },
    {
      "inputs": [
        {
          "internalType": "address",
          "name": "account",
          "type": "address"
        },
        {
          "internalType": "address",
          "name": "operator",
          "type": "address"
        }
      ],
      "name": "isApprovedForAll",
      "outputs": [
        {
          "internalType": "bool",
          "name": "",
          "type": "bool"
        }
      ],
      "stateMutability": "view",
      "type": "function"
    },
    {
      "inputs": [
        {
          "internalType": "address",
          "name": "",
          "type": "address"
        }
      ],
      "name": "mintRoleList",
      "outputs": [
        {
          "internalType": "bool",
          "name": "",
          "type": "bool"
        }
      ],
      "stateMutability": "view",
      "type": "function"
    },
    {
      "inputs": [],
      "name": "nftIdIndex",
      "outputs": [
        {
          "internalType": "uint256",
          "name": "",
          "type": "uint256"
        }
      ],
      "stateMutability": "view",
      "type": "function"
    },
    {
      "inputs": [],
      "name": "owner",
      "outputs": [
        {
          "internalType": "address",
          "name": "",
          "type": "address"
        }
      ],
      "stateMutability": "view",
      "type": "function"
    },
    {
      "inputs": [
        {
          "internalType": "address",
          "name": "",
          "type": "address"
        }
      ],
      "name": "registeredUsers",
      "outputs": [
        {
          "internalType": "bool",
          "name": "",
          "type": "bool"
        }
      ],
      "stateMutability": "view",
      "type": "function"
    },
    {
      "inputs": [],
      "name": "renounceOwnership",
      "outputs": [],
      "stateMutability": "nonpayable",
      "type": "function"
    },
    {
      "inputs": [
        {
          "internalType": "address",
          "name": "from",
          "type": "address"
        },
        {
          "internalType": "address",
          "name": "to",
          "type": "address"
        },
        {
          "internalType": "uint256[]",
          "name": "ids",
          "type": "uint256[]"
        },
        {
          "internalType": "uint256[]",
          "name": "amounts",
          "type": "uint256[]"
        },
        {
          "internalType": "bytes",
          "name": "data",
          "type": "bytes"
        }
      ],
      "name": "safeBatchTransferFrom",
      "outputs": [],
      "stateMutability": "nonpayable",
      "type": "function"
    },
    {
      "inputs": [
        {
          "internalType": "address",
          "name": "from",
          "type": "address"
        },
        {
          "internalType": "address",
          "name": "to",
          "type": "address"
        },
        {
          "internalType": "uint256",
          "name": "id",
          "type": "uint256"
        },
        {
          "internalType": "uint256",
          "name": "amount",
          "type": "uint256"
        },
        {
          "internalType": "bytes",
          "name": "data",
          "type": "bytes"
        }
      ],
      "name": "safeTransferFrom",
      "outputs": [],
      "stateMutability": "nonpayable",
      "type": "function"
    },
    {
      "inputs": [
        {
          "internalType": "address",
          "name": "operator",
          "type": "address"
        },
        {
          "internalType": "bool",
          "name": "approved",
          "type": "bool"
        }
      ],
      "name": "setApprovalForAll",
      "outputs": [],
      "stateMutability": "nonpayable",
      "type": "function"
    },
    {
      "inputs": [],
      "name": "stCimple",
      "outputs": [
        {
          "internalType": "uint256",
          "name": "",
          "type": "uint256"
        }
      ],
      "stateMutability": "view",
      "type": "function"
    },
    {
      "inputs": [
        {
          "internalType": "bytes4",
          "name": "interfaceId",
          "type": "bytes4"
        }
      ],
      "name": "supportsInterface",
      "outputs": [
        {
          "internalType": "bool",
          "name": "",
          "type": "bool"
        }
      ],
      "stateMutability": "view",
      "type": "function"
    },
    {
      "inputs": [
        {
          "internalType": "uint256",
          "name": "",
          "type": "uint256"
        }
      ],
      "name": "tokenBurn",
      "outputs": [
        {
          "internalType": "uint256",
          "name": "",
          "type": "uint256"
        }
      ],
      "stateMutability": "view",
      "type": "function"
    },
    {
      "inputs": [
        {
          "internalType": "uint256",
          "name": "",
          "type": "uint256"
        }
      ],
      "name": "tokenSupply",
      "outputs": [
        {
          "internalType": "uint256",
          "name": "",
          "type": "uint256"
        }
      ],
      "stateMutability": "view",
      "type": "function"
    },
    {
      "inputs": [
        {
          "internalType": "uint256",
          "name": "",
          "type": "uint256"
        }
      ],
      "name": "tokenSupplyLimit",
      "outputs": [
        {
          "internalType": "uint256",
          "name": "",
          "type": "uint256"
        }
      ],
      "stateMutability": "view",
      "type": "function"
    },
    {
      "inputs": [],
      "name": "totalMintRoleList",
      "outputs": [
        {
          "internalType": "uint256",
          "name": "",
          "type": "uint256"
        }
      ],
      "stateMutability": "view",
      "type": "function"
    },
    {
      "inputs": [
        {
          "internalType": "address",
          "name": "newOwner",
          "type": "address"
        }
      ],
      "name": "transferOwnership",
      "outputs": [],
      "stateMutability": "nonpayable",
      "type": "function"
    },
    {
      "inputs": [
        {
          "internalType": "uint256",
          "name": "",
          "type": "uint256"
        }
      ],
      "name": "uri",
      "outputs": [
        {
          "internalType": "string",
          "name": "",
          "type": "string"
        }
      ],
      "stateMutability": "view",
      "type": "function"
    },
    {
      "inputs": [],
      "name": "getCMPGDecimal",
      "outputs": [
        {
          "internalType": "uint256",
          "name": "",
          "type": "uint256"
        }
      ],
      "stateMutability": "view",
      "type": "function"
    },
    {
      "inputs": [
        {
          "internalType": "address[]",
          "name": "addresses",
          "type": "address[]"
        }
      ],
      "name": "multipleAddressesToMintableRoleList",
      "outputs": [],
      "stateMutability": "nonpayable",
      "type": "function"
    },
    {
      "inputs": [
        {
          "internalType": "address",
          "name": "userAddress",
          "type": "address"
        }
      ],
      "name": "singleAddressToMintableRoleList",
      "outputs": [],
      "stateMutability": "nonpayable",
      "type": "function"
    },
    {
      "inputs": [
        {
          "internalType": "address[]",
          "name": "addresses",
          "type": "address[]"
        }
      ],
      "name": "removeAddressesFromMintableRoleList",
      "outputs": [],
      "stateMutability": "nonpayable",
      "type": "function"
    },
    {
      "inputs": [
        {
          "internalType": "address",
          "name": "userAddress",
          "type": "address"
        }
      ],
      "name": "removeAddressFromMintableRoleList",
      "outputs": [],
      "stateMutability": "nonpayable",
      "type": "function"
    },
    {
      "inputs": [
        {
          "internalType": "string",
          "name": "newuri",
          "type": "string"
        }
      ],
      "name": "setURI",
      "outputs": [],
      "stateMutability": "nonpayable",
      "type": "function"
    },
    {
      "inputs": [
        {
          "internalType": "address",
          "name": "account",
          "type": "address"
        },
        {
          "internalType": "uint256",
          "name": "id",
          "type": "uint256"
        },
        {
          "internalType": "uint256",
          "name": "amount",
          "type": "uint256"
        }
      ],
      "name": "mint",
      "outputs": [],
      "stateMutability": "nonpayable",
      "type": "function"
    },
    {
      "inputs": [
        {
          "internalType": "address",
          "name": "account",
          "type": "address"
        },
        {
          "internalType": "uint256",
          "name": "id",
          "type": "uint256"
        }
      ],
      "name": "mintNFT",
      "outputs": [],
      "stateMutability": "nonpayable",
      "type": "function"
    },
    {
      "inputs": [
        {
          "internalType": "address",
          "name": "to",
          "type": "address"
        },
        {
          "internalType": "uint256[]",
          "name": "ids",
          "type": "uint256[]"
        },
        {
          "internalType": "uint256[]",
          "name": "amounts",
          "type": "uint256[]"
        },
        {
          "internalType": "bytes",
          "name": "data",
          "type": "bytes"
        }
      ],
      "name": "mintBatch",
      "outputs": [],
      "stateMutability": "nonpayable",
      "type": "function"
    },
    {
      "inputs": [
        {
          "internalType": "address",
          "name": "to",
          "type": "address"
        },
        {
          "internalType": "uint256[]",
          "name": "ids",
          "type": "uint256[]"
        }
      ],
      "name": "mintBatchNFT",
      "outputs": [],
      "stateMutability": "nonpayable",
      "type": "function"
    },
    {
      "inputs": [
        {
          "internalType": "address",
          "name": "account",
          "type": "address"
        },
        {
          "internalType": "uint256",
          "name": "id",
          "type": "uint256"
        },
        {
          "internalType": "uint256",
          "name": "amount",
          "type": "uint256"
        }
      ],
      "name": "burn",
      "outputs": [],
      "stateMutability": "nonpayable",
      "type": "function"
    },
    {
      "inputs": [
        {
          "internalType": "address",
          "name": "account",
          "type": "address"
        },
        {
          "internalType": "uint256",
          "name": "id",
          "type": "uint256"
        }
      ],
      "name": "burnNFT",
      "outputs": [],
      "stateMutability": "nonpayable",
      "type": "function"
    },
    {
      "inputs": [
        {
          "internalType": "address",
          "name": "from",
          "type": "address"
        },
        {
          "internalType": "uint256[]",
          "name": "ids",
          "type": "uint256[]"
        },
        {
          "internalType": "uint256[]",
          "name": "amounts",
          "type": "uint256[]"
        }
      ],
      "name": "burnBatch",
      "outputs": [],
      "stateMutability": "nonpayable",
      "type": "function"
    },
    {
      "inputs": [
        {
          "internalType": "address",
          "name": "from",
          "type": "address"
        },
        {
          "internalType": "uint256[]",
          "name": "ids",
          "type": "uint256[]"
        }
      ],
      "name": "burnBatchNFT",
      "outputs": [],
      "stateMutability": "nonpayable",
      "type": "function"
    },
    {
      "inputs": [
        {
          "internalType": "uint256",
          "name": "_currentTimeStamp",
          "type": "uint256"
        }
      ],
      "name": "calculateCimpleIR",
      "outputs": [
        {
          "internalType": "uint256",
          "name": "",
          "type": "uint256"
        },
        {
          "internalType": "uint256",
          "name": "",
          "type": "uint256"
        },
        {
          "internalType": "uint256",
          "name": "",
          "type": "uint256"
        }
      ],
      "stateMutability": "view",
      "type": "function"
    },
    {
      "inputs": [
        {
          "internalType": "address",
          "name": "userAddress",
          "type": "address"
        }
      ],
      "name": "getUserInfo",
      "outputs": [
        {
          "components": [
            {
              "internalType": "uint256",
              "name": "cimpleValue",
              "type": "uint256"
            },
            {
              "internalType": "uint256",
              "name": "stCimpleValue",
              "type": "uint256"
            },
            {
              "internalType": "uint256",
              "name": "CMPGValue",
              "type": "uint256"
            },
            {
              "internalType": "uint256",
              "name": "referralID",
              "type": "uint256"
            },
            {
              "internalType": "uint256",
              "name": "referredBy",
              "type": "uint256"
            }
          ],
          "internalType": "struct CimpleDAO.UserDetail",
          "name": "tempUserInfo",
          "type": "tuple"
        }
      ],
      "stateMutability": "view",
      "type": "function"
    },
    {
      "inputs": [
        {
          "internalType": "address",
          "name": "_stakeholder",
          "type": "address"
        },
        {
          "internalType": "uint256",
          "name": "_timeStamp",
          "type": "uint256"
        }
      ],
      "name": "addStakeholder",
      "outputs": [],
      "stateMutability": "nonpayable",
      "type": "function"
    },
    {
      "inputs": [
        {
          "internalType": "address",
          "name": "_stakeholder",
          "type": "address"
        }
      ],
      "name": "removeStakeholder",
      "outputs": [],
      "stateMutability": "nonpayable",
      "type": "function"
    },
    {
      "inputs": [],
      "name": "totalStakes",
      "outputs": [
        {
          "internalType": "uint256",
          "name": "",
          "type": "uint256"
        }
      ],
      "stateMutability": "view",
      "type": "function"
    },
    {
      "inputs": [
        {
          "internalType": "address",
          "name": "staker",
          "type": "address"
        },
        {
          "internalType": "uint256",
          "name": "_stake",
          "type": "uint256"
        }
      ],
      "name": "createStake",
      "outputs": [],
      "stateMutability": "nonpayable",
      "type": "function"
    },
    {
      "inputs": [
        {
          "internalType": "address",
          "name": "unstaker",
          "type": "address"
        },
        {
          "internalType": "uint256",
          "name": "_stake",
          "type": "uint256"
        }
      ],
      "name": "removeStake",
      "outputs": [],
      "stateMutability": "nonpayable",
      "type": "function"
    },
    {
      "inputs": [],
      "name": "totalRewards",
      "outputs": [
        {
          "internalType": "uint256",
          "name": "",
          "type": "uint256"
        }
      ],
      "stateMutability": "view",
      "type": "function"
    },
    {
      "inputs": [
        {
          "internalType": "address",
          "name": "_stakeholder",
          "type": "address"
        },
        {
          "internalType": "uint256",
          "name": "_holdTimeStamp",
          "type": "uint256"
        },
        {
          "internalType": "uint256",
          "name": "_nowTimeStamp",
          "type": "uint256"
        }
      ],
      "name": "calculateReward",
      "outputs": [
        {
          "internalType": "uint256",
          "name": "",
          "type": "uint256"
        }
      ],
      "stateMutability": "view",
      "type": "function"
    },
    {
      "inputs": [
        {
          "internalType": "uint256",
          "name": "_days",
          "type": "uint256"
        }
      ],
      "name": "_calculateDailySupplyOfCMPG",
      "outputs": [
        {
          "internalType": "uint256",
          "name": "",
          "type": "uint256"
        },
        {
          "internalType": "uint256",
          "name": "",
          "type": "uint256"
        }
      ],
      "stateMutability": "view",
      "type": "function"
    },
    {
      "inputs": [
        {
          "internalType": "address",
          "name": "_address",
          "type": "address"
        }
      ],
      "name": "_calculateDistributionPercentOfCMPG",
      "outputs": [
        {
          "internalType": "uint256",
          "name": "",
          "type": "uint256"
        }
      ],
      "stateMutability": "view",
      "type": "function"
    },
    {
      "inputs": [
        {
          "internalType": "uint256",
          "name": "_timeStamp",
          "type": "uint256"
        }
      ],
      "name": "distributeRewards",
      "outputs": [],
      "stateMutability": "nonpayable",
      "type": "function"
    }
  ],
  "bytecode": "0x60806040523480156200001157600080fd5b50604051806020016040528060008152506200003a6301ffc9a760e01b6200013a60201b60201c565b6200004b816200024360201b60201c565b6200006363d9b67a2660e01b6200013a60201b60201c565b6200007b630e89341c60e01b6200013a60201b60201c565b5060006200008e6200025f60201b60201c565b905080600460006101000a81548173ffffffffffffffffffffffffffffffffffffffff021916908373ffffffffffffffffffffffffffffffffffffffff1602179055508073ffffffffffffffffffffffffffffffffffffffff16600073ffffffffffffffffffffffffffffffffffffffff167f8be0079c531659141344cd1fd0a4f28419497f9722a3daafe3b4186f6b6457e060405160405180910390a35042600a819055506200031d565b63ffffffff60e01b817bffffffffffffffffffffffffffffffffffffffffffffffffffffffff19161415620001d7576040517f08c379a000000000000000000000000000000000000000000000000000000000815260040180806020018281038252601c8152602001807f4552433136353a20696e76616c696420696e746572666163652069640000000081525060200191505060405180910390fd5b6001600080837bffffffffffffffffffffffffffffffffffffffffffffffffffffffff19167bffffffffffffffffffffffffffffffffffffffffffffffffffffffff1916815260200190815260200160002060006101000a81548160ff02191690831515021790555050565b80600390805190602001906200025b92919062000267565b5050565b600033905090565b828054600181600116156101000203166002900490600052602060002090601f0160209004810192826200029f5760008555620002eb565b82601f10620002ba57805160ff1916838001178555620002eb565b82800160010185558215620002eb579182015b82811115620002ea578251825591602001919060010190620002cd565b5b509050620002fa9190620002fe565b5090565b5b8082111562000319576000816000905550600101620002ff565b5090565b61674c806200032d6000396000f3fe608060405234801561001057600080fd5b50600436106102d55760003560e01c80636386c1c711610182578063bf9befb1116100e9578063e985e9c5116100a2578063f2fde38b1161007c578063f2fde38b14610913578063f37eeedc1461092f578063f528c72e1461094d578063f5298aca1461096b576102d5565b8063e985e9c5146108ab578063f217c9aa146108db578063f242432a146108f7576102d5565b8063bf9befb1146107d5578063c55fc9d4146107f3578063c876321f14610823578063d86f5a6b14610855578063ddfc193d14610871578063df15d76f1461088f576102d5565b8063939031b51161013b578063939031b5146107175780639aec312e14610735578063a22cb46514610751578063a93bbad51461076d578063b367ebed1461079d578063bcb0c2d7146107b9576102d5565b80636386c1c71461066b578063679cef4d1461069b57806368ce7d8a146106b75780636b20c454146106d3578063715018a6146106ef5780638da5cb5b146106f9576102d5565b80632693ebf21161024157806346f3257f116101fa5780635050c203116101d45780635050c203146105f557806359974e38146106135780635a0038611461062f578063608eb3c01461064d576102d5565b806346f3257f1461058b57806347fcf018146105a95780634e1273f4146105c5576102d5565b80632693ebf21461049357806328fd70ec146104c35780632c32c360146104f35780632eb2c2d61461052357806339451a881461053f5780633c168eab1461056f576102d5565b80630e89341c116102935780630e89341c146103c0578063156e29f6146103f05780631bff8a671461040c5780631f7fdffa1461042a57806324fd565d1461044657806325eb49f114610477576102d5565b8062fdd58e146102da57806301ffc9a71461030a57806302fe53051461033a57806303b11d45146103565780630e15561a146103725780630e50cee514610390575b600080fd5b6102f460048036038101906102ef9190615b66565b610987565b604051610301919061610b565b60405180910390f35b610324600480360381019061031f9190615c9e565b610a67565b6040516103319190616033565b60405180910390f35b610354600480360381019061034f9190615cc7565b610ace565b005b610370600480360381019061036b91906159ac565b610ba4565b005b61037a610ca9565b604051610387919061610b565b60405180910390f35b6103aa60048036038101906103a591906157f9565b610d30565b6040516103b79190616033565b60405180910390f35b6103da60048036038101906103d59190615d08565b610d50565b6040516103e7919061604e565b60405180910390f35b61040a60048036038101906104059190615ba2565b610df4565b005b610414610f49565b604051610421919061610b565b60405180910390f35b610444600480360381019061043f9190615a7f565b610f4e565b005b610460600480360381019061045b9190615d08565b6110c3565b60405161046e929190616126565b60405180910390f35b610491600480360381019061048c91906159ac565b61113e565b005b6104ad60048036038101906104a89190615d08565b611243565b6040516104ba919061610b565b60405180910390f35b6104dd60048036038101906104d89190615d08565b61125b565b6040516104ea919061610b565b60405180910390f35b61050d60048036038101906105089190615ba2565b611273565b60405161051a919061610b565b60405180910390f35b61053d6004803603810190610538919061585e565b611413565b005b61055960048036038101906105549190615d08565b61189e565b604051610566919061610b565b60405180910390f35b61058960048036038101906105849190615b66565b6118b6565b005b610593611a5e565b6040516105a0919061610b565b60405180910390f35b6105c360048036038101906105be9190615b66565b611a63565b005b6105df60048036038101906105da9190615c32565b611bf7565b6040516105ec9190616011565b60405180910390f35b6105fd611de9565b60405161060a919061610b565b60405180910390f35b61062d60048036038101906106289190615d08565b611def565b005b610637611fd4565b604051610644919061610b565b60405180910390f35b610655611fda565b604051610662919061610b565b60405180910390f35b610685600480360381019061068091906157f9565b611fe3565b60405161069291906160f0565b60405180910390f35b6106b560048036038101906106b091906157f9565b6120fa565b005b6106d160048036038101906106cc9190615b66565b6122fc565b005b6106ed60048036038101906106e89190615a00565b6124bc565b005b6106f76126a5565b005b610701612830565b60405161070e9190615ff6565b60405180910390f35b61071f61285a565b60405161072c919061610b565b60405180910390f35b61074f600480360381019061074a9190615b66565b61285f565b005b61076b60048036038101906107669190615b2a565b612921565b005b610787600480360381019061078291906157f9565b612aba565b6040516107949190616033565b60405180910390f35b6107b760048036038101906107b291906157f9565b612ada565b005b6107d360048036038101906107ce91906157f9565b612cd5565b005b6107dd612df6565b6040516107ea919061610b565b60405180910390f35b61080d600480360381019061080891906157f9565b612e7d565b60405161081a919061610b565b60405180910390f35b61083d60048036038101906108389190615d08565b612ee4565b60405161084c9392919061614f565b60405180910390f35b61086f600480360381019061086a9190615b66565b613154565b005b610879613300565b604051610886919061610b565b60405180910390f35b6108a960048036038101906108a49190615bf1565b613305565b005b6108c560048036038101906108c09190615822565b613408565b6040516108d29190616033565b60405180910390f35b6108f560048036038101906108f09190615bf1565b61349c565b005b610911600480360381019061090c919061591d565b61359f565b005b61092d600480360381019061092891906157f9565b613914565b005b610937613b24565b604051610944919061610b565b60405180910390f35b610955613b29565b604051610962919061610b565b60405180910390f35b61098560048036038101906109809190615ba2565b613b2e565b005b60008073ffffffffffffffffffffffffffffffffffffffff168373ffffffffffffffffffffffffffffffffffffffff161415610a0e576040517f08c379a000000000000000000000000000000000000000000000000000000000815260040180806020018281038252602b815260200180616509602b913960400191505060405180910390fd5b6001600083815260200190815260200160002060008473ffffffffffffffffffffffffffffffffffffffff1673ffffffffffffffffffffffffffffffffffffffff16815260200190815260200160002054905092915050565b6000806000837bffffffffffffffffffffffffffffffffffffffffffffffffffffffff19167bffffffffffffffffffffffffffffffffffffffffffffffffffffffff1916815260200190815260200160002060009054906101000a900460ff169050919050565b610ad6613c8a565b73ffffffffffffffffffffffffffffffffffffffff16600460009054906101000a900473ffffffffffffffffffffffffffffffffffffffff1673ffffffffffffffffffffffffffffffffffffffff1614610b98576040517f08c379a00000000000000000000000000000000000000000000000000000000081526004018080602001828103825260208152602001807f4f776e61626c653a2063616c6c6572206973206e6f7420746865206f776e657281525060200191505060405180910390fd5b610ba181613c92565b50565b610bac613c8a565b73ffffffffffffffffffffffffffffffffffffffff16600460009054906101000a900473ffffffffffffffffffffffffffffffffffffffff1673ffffffffffffffffffffffffffffffffffffffff1614610c6e576040517f08c379a00000000000000000000000000000000000000000000000000000000081526004018080602001828103825260208152602001807f4f776e61626c653a2063616c6c6572206973206e6f7420746865206f776e657281525060200191505060405180910390fd5b60005b8151811015610ca457610c9783838381518110610c8a57fe5b6020026020010151611a63565b8080600101915050610c71565b505050565b6000806000905060005b601080549050811015610d2857610d1b610d0c60108381548110610cd357fe5b906000526020600020906002020160000160009054906101000a900473ffffffffffffffffffffffffffffffffffffffff166002610987565b83613cac90919063ffffffff16565b9150600181019050610cb3565b508091505090565b600c6020528060005260406000206000915054906101000a900460ff1681565b606060038054600181600116156101000203166002900480601f016020809104026020016040519081016040528092919081815260200182805460018160011615610100020316600290048015610de85780601f10610dbd57610100808354040283529160200191610de8565b820191906000526020600020905b815481529060010190602001808311610dcb57829003601f168201915b50505050509050919050565b600b60003373ffffffffffffffffffffffffffffffffffffffff1673ffffffffffffffffffffffffffffffffffffffff16815260200190815260200160002060009054906101000a900460ff1680610e7e5750610e4f612830565b73ffffffffffffffffffffffffffffffffffffffff163373ffffffffffffffffffffffffffffffffffffffff16145b610ebd576040517f08c379a0000000000000000000000000000000000000000000000000000000008152600401610eb490616090565b60405180910390fd5b610efe8383836040518060400160405280600581526020017f3078303030000000000000000000000000000000000000000000000000000000815250613d34565b610f24816005600085815260200190815260200160002054613cac90919063ffffffff16565b6005600084815260200190815260200160002081905550610f4483613f37565b505050565b600a81565b610f56613c8a565b73ffffffffffffffffffffffffffffffffffffffff16600460009054906101000a900473ffffffffffffffffffffffffffffffffffffffff1673ffffffffffffffffffffffffffffffffffffffff1614611018576040517f08c379a00000000000000000000000000000000000000000000000000000000081526004018080602001828103825260208152602001807f4f776e61626c653a2063616c6c6572206973206e6f7420746865206f776e657281525060200191505060405180910390fd5b6110248484848461413b565b60005b83518110156110b35761107c83828151811061103f57fe5b60200260200101516005600087858151811061105757fe5b6020026020010151815260200190815260200160002054613cac90919063ffffffff16565b6005600086848151811061108c57fe5b60200260200101518152602001908152602001600020819055508080600101915050611027565b506110bd84613f37565b50505050565b60008060006012600a0a61809102905060006315578dae905060006402540be400905060008390506001871061111d5760005b8781101561111b57828483028161110957fe5b048203915080806001019150506110f6565b505b600062015180828161112b57fe5b0490508181965096505050505050915091565b611146613c8a565b73ffffffffffffffffffffffffffffffffffffffff16600460009054906101000a900473ffffffffffffffffffffffffffffffffffffffff1673ffffffffffffffffffffffffffffffffffffffff1614611208576040517f08c379a00000000000000000000000000000000000000000000000000000000081526004018080602001828103825260208152602001807f4f776e61626c653a2063616c6c6572206973206e6f7420746865206f776e657281525060200191505060405180910390fd5b60005b815181101561123e576112318383838151811061122457fe5b60200260200101516118b6565b808060010191505061120b565b505050565b60056020528060005260406000206000915090505481565b60076020528060005260406000206000915090505481565b60008282118015611285575060008314155b1561140757600061129585612e7d565b905060006112c3620151806112b5600a548761445d90919063ffffffff16565b6144a790919063ffffffff16565b905060006112f1620151806112e3600a548861445d90919063ffffffff16565b6144f190919063ffffffff16565b9050600061131f62015180611311600a548a61445d90919063ffffffff16565b6144a790919063ffffffff16565b9050600061134d6201518061133f600a548b61445d90919063ffffffff16565b6144f190919063ffffffff16565b9050600082850390506000806000611364866110c3565b915091506402540be40089868302028161137a57fe5b049250600080600090505b858110156113c35760008061139b838b016110c3565b915091506402540be4008d8302816113af57fe5b048401935050508080600101915050611385565b5060008060006113d28c6110c3565b915091506402540be4008d8c830202816113e857fe5b04925086838501039350839d505050505050505050505050505061140c565b600090505b9392505050565b815183511461146d576040517f08c379a00000000000000000000000000000000000000000000000000000000081526004018080602001828103825260288152602001806166ce6028913960400191505060405180910390fd5b600073ffffffffffffffffffffffffffffffffffffffff168473ffffffffffffffffffffffffffffffffffffffff1614156114f3576040517f08c379a00000000000000000000000000000000000000000000000000000000081526004018080602001828103825260258152602001806165d86025913960400191505060405180910390fd5b6114fb613c8a565b73ffffffffffffffffffffffffffffffffffffffff168573ffffffffffffffffffffffffffffffffffffffff16148061154157506115408561153b613c8a565b613408565b5b611596576040517f08c379a00000000000000000000000000000000000000000000000000000000081526004018080602001828103825260328152602001806165fd6032913960400191505060405180910390fd5b60006115a0613c8a565b90506115b081878787878761453b565b60005b84518110156117815760008582815181106115ca57fe5b6020026020010151905060008583815181106115e257fe5b60200260200101519050611669816040518060600160405280602a8152602001616652602a91396001600086815260200190815260200160002060008d73ffffffffffffffffffffffffffffffffffffffff1673ffffffffffffffffffffffffffffffffffffffff168152602001908152602001600020546145439092919063ffffffff16565b6001600084815260200190815260200160002060008b73ffffffffffffffffffffffffffffffffffffffff1673ffffffffffffffffffffffffffffffffffffffff16815260200190815260200160002081905550611720816001600085815260200190815260200160002060008b73ffffffffffffffffffffffffffffffffffffffff1673ffffffffffffffffffffffffffffffffffffffff16815260200190815260200160002054613cac90919063ffffffff16565b6001600084815260200190815260200160002060008a73ffffffffffffffffffffffffffffffffffffffff1673ffffffffffffffffffffffffffffffffffffffff1681526020019081526020016000208190555050508060010190506115b3565b508473ffffffffffffffffffffffffffffffffffffffff168673ffffffffffffffffffffffffffffffffffffffff168273ffffffffffffffffffffffffffffffffffffffff167f4a39dc06d4c0dbc64b70af90fd698a233a518aa5d07e595d983b8c0526c8f7fb8787604051808060200180602001838103835285818151815260200191508051906020019060200280838360005b83811015611831578082015181840152602081019050611816565b50505050905001838103825284818151815260200191508051906020019060200280838360005b83811015611873578082015181840152602081019050611858565b5050505090500194505050505060405180910390a4611896818787878787614603565b505050505050565b60066020528060005260406000206000915090505481565b600b60003373ffffffffffffffffffffffffffffffffffffffff1673ffffffffffffffffffffffffffffffffffffffff16815260200190815260200160002060009054906101000a900460ff16806119405750611911612830565b73ffffffffffffffffffffffffffffffffffffffff163373ffffffffffffffffffffffffffffffffffffffff16145b61197f576040517f08c379a000000000000000000000000000000000000000000000000000000000815260040161197690616090565b60405180910390fd5b6119c1828260016040518060400160405280600581526020017f3078303030000000000000000000000000000000000000000000000000000000815250613d34565b816008600083815260200190815260200160002060006101000a81548173ffffffffffffffffffffffffffffffffffffffff021916908373ffffffffffffffffffffffffffffffffffffffff160217905550611a3a60016005600084815260200190815260200160002054613cac90919063ffffffff16565b6005600083815260200190815260200160002081905550611a5a82613f37565b5050565b601281565b600b60003373ffffffffffffffffffffffffffffffffffffffff1673ffffffffffffffffffffffffffffffffffffffff16815260200190815260200160002060009054906101000a900460ff1680611aed5750611abe612830565b73ffffffffffffffffffffffffffffffffffffffff163373ffffffffffffffffffffffffffffffffffffffff16145b611b2c576040517f08c379a0000000000000000000000000000000000000000000000000000000008152600401611b2390616090565b60405180910390fd5b611b3882826001614992565b611b5f6001600560008481526020019081526020016000205461445d90919063ffffffff16565b6005600083815260200190815260200160002081905550611b9d60016006600084815260200190815260200160002054613cac90919063ffffffff16565b60066000838152602001908152602001600020819055506008600082815260200190815260200160002060006101000a81549073ffffffffffffffffffffffffffffffffffffffff0219169055611bf382613f37565b5050565b60608151835114611c53576040517f08c379a00000000000000000000000000000000000000000000000000000000081526004018080602001828103825260298152602001806166a56029913960400191505060405180910390fd5b6000835167ffffffffffffffff81118015611c6d57600080fd5b50604051908082528060200260200182016040528015611c9c5781602001602082028036833780820191505090505b50905060005b8451811015611dde57600073ffffffffffffffffffffffffffffffffffffffff16858281518110611ccf57fe5b602002602001015173ffffffffffffffffffffffffffffffffffffffff161415611d44576040517f08c379a00000000000000000000000000000000000000000000000000000000081526004018080602001828103825260318152602001806165346031913960400191505060405180910390fd5b60016000858381518110611d5457fe5b602002602001015181526020019081526020016000206000868381518110611d7857fe5b602002602001015173ffffffffffffffffffffffffffffffffffffffff1673ffffffffffffffffffffffffffffffffffffffff16815260200190815260200160002054828281518110611dc757fe5b602002602001018181525050806001019050611ca2565b508091505092915050565b60095481565b611df7613c8a565b73ffffffffffffffffffffffffffffffffffffffff16600460009054906101000a900473ffffffffffffffffffffffffffffffffffffffff1673ffffffffffffffffffffffffffffffffffffffff1614611eb9576040517f08c379a00000000000000000000000000000000000000000000000000000000081526004018080602001828103825260208152602001807f4f776e61626c653a2063616c6c6572206973206e6f7420746865206f776e657281525060200191505060405180910390fd5b60005b601080549050811015611fd057600060108281548110611ed857fe5b90600052602060002090600202016040518060400160405290816000820160009054906101000a900473ffffffffffffffffffffffffffffffffffffffff1673ffffffffffffffffffffffffffffffffffffffff1673ffffffffffffffffffffffffffffffffffffffff16815260200160018201548152505090506000611f688260000151836020015186611273565b90506000811115611fc357611f838260000151600283610df4565b611faa81600560006002815260200190815260200160002054613cac90919063ffffffff16565b6005600060028152602001908152602001600020819055505b5050600181019050611ebc565b5050565b600d5481565b60006012905090565b611feb6154ac565b600c60008373ffffffffffffffffffffffffffffffffffffffff1673ffffffffffffffffffffffffffffffffffffffff16815260200190815260200160002060009054906101000a900460ff16612077576040517f08c379a000000000000000000000000000000000000000000000000000000000815260040161206e906160d0565b60405180910390fd5b600f60008373ffffffffffffffffffffffffffffffffffffffff1673ffffffffffffffffffffffffffffffffffffffff1681526020019081526020016000206040518060a0016040529081600082015481526020016001820154815260200160028201548152602001600382015481526020016004820154815250509050919050565b612102613c8a565b73ffffffffffffffffffffffffffffffffffffffff16600460009054906101000a900473ffffffffffffffffffffffffffffffffffffffff1673ffffffffffffffffffffffffffffffffffffffff16146121c4576040517f08c379a00000000000000000000000000000000000000000000000000000000081526004018080602001828103825260208152602001807f4f776e61626c653a2063616c6c6572206973206e6f7420746865206f776e657281525060200191505060405180910390fd5b600073ffffffffffffffffffffffffffffffffffffffff168173ffffffffffffffffffffffffffffffffffffffff161415612234576040517f08c379a000000000000000000000000000000000000000000000000000000000815260040161222b906160b0565b60405180910390fd5b600b60008273ffffffffffffffffffffffffffffffffffffffff1673ffffffffffffffffffffffffffffffffffffffff16815260200190815260200160002060009054906101000a900460ff166122f9576001600b60008373ffffffffffffffffffffffffffffffffffffffff1673ffffffffffffffffffffffffffffffffffffffff16815260200190815260200160002060006101000a81548160ff021916908315150217905550600d600081548092919060010191905055506122f881613f37565b5b50565b612304613c8a565b73ffffffffffffffffffffffffffffffffffffffff16600460009054906101000a900473ffffffffffffffffffffffffffffffffffffffff1673ffffffffffffffffffffffffffffffffffffffff16146123c6576040517f08c379a00000000000000000000000000000000000000000000000000000000081526004018080602001828103825260208152602001807f4f776e61626c653a2063616c6c6572206973206e6f7420746865206f776e657281525060200191505060405180910390fd5b6000806123d284614bae565b9150915081156124b6576123e884600185613b2e565b6123f484600085610df4565b61241b8360056000600181526020019081526020016000205461445d90919063ffffffff16565b600560006001815260200190815260200160002081905550612459836005600080815260200190815260200160002054613cac90919063ffffffff16565b6005600080815260200190815260200160002081905550600061247d856001610987565b14156124915761248c84612cd5565b6124b5565b426010828154811061249f57fe5b9060005260206000209060020201600101819055505b5b50505050565b6124c4613c8a565b73ffffffffffffffffffffffffffffffffffffffff16600460009054906101000a900473ffffffffffffffffffffffffffffffffffffffff1673ffffffffffffffffffffffffffffffffffffffff1614612586576040517f08c379a00000000000000000000000000000000000000000000000000000000081526004018080602001828103825260208152602001807f4f776e61626c653a2063616c6c6572206973206e6f7420746865206f776e657281525060200191505060405180910390fd5b612591838383614c59565b60005b8251811015612696576125e98282815181106125ac57fe5b6020026020010151600560008685815181106125c457fe5b602002602001015181526020019081526020016000205461445d90919063ffffffff16565b600560008584815181106125f957fe5b602002602001015181526020019081526020016000208190555061265f82828151811061262257fe5b60200260200101516006600086858151811061263a57fe5b6020026020010151815260200190815260200160002054613cac90919063ffffffff16565b6006600085848151811061266f57fe5b60200260200101518152602001908152602001600020819055508080600101915050612594565b506126a083613f37565b505050565b6126ad613c8a565b73ffffffffffffffffffffffffffffffffffffffff16600460009054906101000a900473ffffffffffffffffffffffffffffffffffffffff1673ffffffffffffffffffffffffffffffffffffffff161461276f576040517f08c379a00000000000000000000000000000000000000000000000000000000081526004018080602001828103825260208152602001807f4f776e61626c653a2063616c6c6572206973206e6f7420746865206f776e657281525060200191505060405180910390fd5b600073ffffffffffffffffffffffffffffffffffffffff16600460009054906101000a900473ffffffffffffffffffffffffffffffffffffffff1673ffffffffffffffffffffffffffffffffffffffff167f8be0079c531659141344cd1fd0a4f28419497f9722a3daafe3b4186f6b6457e060405160405180910390a36000600460006101000a81548173ffffffffffffffffffffffffffffffffffffffff021916908373ffffffffffffffffffffffffffffffffffffffff160217905550565b6000600460009054906101000a900473ffffffffffffffffffffffffffffffffffffffff16905090565b600281565b600061286a83614bae565b5090508061291c57601060405180604001604052808573ffffffffffffffffffffffffffffffffffffffff16815260200184815250908060018154018082558091505060019003906000526020600020906002020160009091909190915060008201518160000160006101000a81548173ffffffffffffffffffffffffffffffffffffffff021916908373ffffffffffffffffffffffffffffffffffffffff1602179055506020820151816001015550505b505050565b8173ffffffffffffffffffffffffffffffffffffffff16612940613c8a565b73ffffffffffffffffffffffffffffffffffffffff1614156129ad576040517f08c379a000000000000000000000000000000000000000000000000000000000815260040180806020018281038252602981526020018061667c6029913960400191505060405180910390fd5b80600260006129ba613c8a565b73ffffffffffffffffffffffffffffffffffffffff1673ffffffffffffffffffffffffffffffffffffffff16815260200190815260200160002060008473ffffffffffffffffffffffffffffffffffffffff1673ffffffffffffffffffffffffffffffffffffffff16815260200190815260200160002060006101000a81548160ff0219169083151502179055508173ffffffffffffffffffffffffffffffffffffffff16612a67613c8a565b73ffffffffffffffffffffffffffffffffffffffff167f17307eab39ab6107e8899845ad3d59bd9653f200f220920489ca2b5937696c318360405180821515815260200191505060405180910390a35050565b600b6020528060005260406000206000915054906101000a900460ff1681565b612ae2613c8a565b73ffffffffffffffffffffffffffffffffffffffff16600460009054906101000a900473ffffffffffffffffffffffffffffffffffffffff1673ffffffffffffffffffffffffffffffffffffffff1614612ba4576040517f08c379a00000000000000000000000000000000000000000000000000000000081526004018080602001828103825260208152602001807f4f776e61626c653a2063616c6c6572206973206e6f7420746865206f776e657281525060200191505060405180910390fd5b600073ffffffffffffffffffffffffffffffffffffffff168173ffffffffffffffffffffffffffffffffffffffff161415612c14576040517f08c379a0000000000000000000000000000000000000000000000000000000008152600401612c0b906160b0565b60405180910390fd5b600b60008273ffffffffffffffffffffffffffffffffffffffff1673ffffffffffffffffffffffffffffffffffffffff16815260200190815260200160002060009054906101000a900460ff1615612cd2576000600b60008373ffffffffffffffffffffffffffffffffffffffff1673ffffffffffffffffffffffffffffffffffffffff16815260200190815260200160002060006101000a81548160ff021916908315150217905550600d60008154809291906001900391905055505b50565b600080612ce183614bae565b915091508115612df157601060016010805490500381548110612d0057fe5b906000526020600020906002020160108281548110612d1b57fe5b90600052602060002090600202016000820160009054906101000a900473ffffffffffffffffffffffffffffffffffffffff168160000160006101000a81548173ffffffffffffffffffffffffffffffffffffffff021916908373ffffffffffffffffffffffffffffffffffffffff160217905550600182015481600101559050506010805480612da857fe5b6001900381819060005260206000209060020201600080820160006101000a81549073ffffffffffffffffffffffffffffffffffffffff02191690556001820160009055505090555b505050565b6000806000905060005b601080549050811015612e7557612e68612e5960108381548110612e2057fe5b906000526020600020906002020160000160009054906101000a900473ffffffffffffffffffffffffffffffffffffffff166001610987565b83613cac90919063ffffffff16565b9150600181019050612e00565b508091505090565b600080612e8983614bae565b5090506000601080549050118015612e9e5750805b15612edd576000612ead612df6565b90506000612ebc856001610987565b905060008282600a800a0281612ece57fe5b04905080945050505050612edf565b505b919050565b600080600083600a5410612f2d576040517f08c379a0000000000000000000000000000000000000000000000000000000008152600401612f2490616070565b60405180910390fd5b60008490506000612f49600a548361445d90919063ffffffff16565b90506000612f7761016d612f6962015180856144a790919063ffffffff16565b6144f190919063ffffffff16565b90506000612f926301e14320846144a790919063ffffffff16565b9050600064174876e8009050600064e8d4a510009050612fb06154db565b612fb86154db565b64174876e800826000601f8110612fcb57fe5b60200201818152505064e8d4a51000816000601f8110612fe757fe5b602002018181525050601e851115612ffe57601e94505b600185101561301f578185601f811061301357fe5b60200201519350613101565b6000600190505b8581116130aa576000606460af8560018503601f811061304257fe5b6020020151028161304f57fe5b0490506000600190505b828111613085576402540be400640248c5811383028161307557fe5b0491508080600101915050613059565b50808483601f811061309357fe5b602002018181525050508080600101915050613026565b508185601f81106130b757fe5b6020020151935061016d8260018703601f81106130d057fe5b6020020151028160018703601f81106130e557fe5b6020020151018186601f81106130f757fe5b6020020181815250505b600086850290508186601f811061311457fe5b602002015193508084019350670de0b6b3a7640000841061313b57670de0b6b3a764000093505b8385889b509b509b505050505050505050509193909250565b61315c613c8a565b73ffffffffffffffffffffffffffffffffffffffff16600460009054906101000a900473ffffffffffffffffffffffffffffffffffffffff1673ffffffffffffffffffffffffffffffffffffffff161461321e576040517f08c379a00000000000000000000000000000000000000000000000000000000081526004018080602001828103825260208152602001807f4f776e61626c653a2063616c6c6572206973206e6f7420746865206f776e657281525060200191505060405180910390fd5b61322a82600083613b2e565b61323682600183610df4565b61325d81600560006001815260200190815260200160002054613cac90919063ffffffff16565b60056000600181526020019081526020016000208190555061329b81600560008081526020019081526020016000205461445d90919063ffffffff16565b60056000808152602001908152602001600020819055506000806132be84614bae565b91509150816132d6576132d1844261285f565b6132fa565b42601082815481106132e457fe5b9060005260206000209060020201600101819055505b50505050565b600081565b61330d613c8a565b73ffffffffffffffffffffffffffffffffffffffff16600460009054906101000a900473ffffffffffffffffffffffffffffffffffffffff1673ffffffffffffffffffffffffffffffffffffffff16146133cf576040517f08c379a00000000000000000000000000000000000000000000000000000000081526004018080602001828103825260208152602001807f4f776e61626c653a2063616c6c6572206973206e6f7420746865206f776e657281525060200191505060405180910390fd5b60005b8151811015613404576133f78282815181106133ea57fe5b60200260200101516120fa565b80806001019150506133d2565b5050565b6000600260008473ffffffffffffffffffffffffffffffffffffffff1673ffffffffffffffffffffffffffffffffffffffff16815260200190815260200160002060008373ffffffffffffffffffffffffffffffffffffffff1673ffffffffffffffffffffffffffffffffffffffff16815260200190815260200160002060009054906101000a900460ff16905092915050565b6134a4613c8a565b73ffffffffffffffffffffffffffffffffffffffff16600460009054906101000a900473ffffffffffffffffffffffffffffffffffffffff1673ffffffffffffffffffffffffffffffffffffffff1614613566576040517f08c379a00000000000000000000000000000000000000000000000000000000081526004018080602001828103825260208152602001807f4f776e61626c653a2063616c6c6572206973206e6f7420746865206f776e657281525060200191505060405180910390fd5b60005b815181101561359b5761358e82828151811061358157fe5b6020026020010151612ada565b8080600101915050613569565b5050565b600073ffffffffffffffffffffffffffffffffffffffff168473ffffffffffffffffffffffffffffffffffffffff161415613625576040517f08c379a00000000000000000000000000000000000000000000000000000000081526004018080602001828103825260258152602001806165d86025913960400191505060405180910390fd5b61362d613c8a565b73ffffffffffffffffffffffffffffffffffffffff168573ffffffffffffffffffffffffffffffffffffffff16148061367357506136728561366d613c8a565b613408565b5b6136c8576040517f08c379a00000000000000000000000000000000000000000000000000000000081526004018080602001828103825260298152602001806165af6029913960400191505060405180910390fd5b60006136d2613c8a565b90506136f28187876136e388614f94565b6136ec88614f94565b8761453b565b61376f836040518060600160405280602a8152602001616652602a91396001600088815260200190815260200160002060008a73ffffffffffffffffffffffffffffffffffffffff1673ffffffffffffffffffffffffffffffffffffffff168152602001908152602001600020546145439092919063ffffffff16565b6001600086815260200190815260200160002060008873ffffffffffffffffffffffffffffffffffffffff1673ffffffffffffffffffffffffffffffffffffffff16815260200190815260200160002081905550613826836001600087815260200190815260200160002060008873ffffffffffffffffffffffffffffffffffffffff1673ffffffffffffffffffffffffffffffffffffffff16815260200190815260200160002054613cac90919063ffffffff16565b6001600086815260200190815260200160002060008773ffffffffffffffffffffffffffffffffffffffff1673ffffffffffffffffffffffffffffffffffffffff168152602001908152602001600020819055508473ffffffffffffffffffffffffffffffffffffffff168673ffffffffffffffffffffffffffffffffffffffff168273ffffffffffffffffffffffffffffffffffffffff167fc3d58168c5ae7397731d063d5bbf3d657854427343f4c083240f7aacaa2d0f628787604051808381526020018281526020019250505060405180910390a461390c818787878787615005565b505050505050565b61391c613c8a565b73ffffffffffffffffffffffffffffffffffffffff16600460009054906101000a900473ffffffffffffffffffffffffffffffffffffffff1673ffffffffffffffffffffffffffffffffffffffff16146139de576040517f08c379a00000000000000000000000000000000000000000000000000000000081526004018080602001828103825260208152602001807f4f776e61626c653a2063616c6c6572206973206e6f7420746865206f776e657281525060200191505060405180910390fd5b600073ffffffffffffffffffffffffffffffffffffffff168173ffffffffffffffffffffffffffffffffffffffff161415613a64576040517f08c379a00000000000000000000000000000000000000000000000000000000081526004018080602001828103825260268152602001806165656026913960400191505060405180910390fd5b8073ffffffffffffffffffffffffffffffffffffffff16600460009054906101000a900473ffffffffffffffffffffffffffffffffffffffff1673ffffffffffffffffffffffffffffffffffffffff167f8be0079c531659141344cd1fd0a4f28419497f9722a3daafe3b4186f6b6457e060405160405180910390a380600460006101000a81548173ffffffffffffffffffffffffffffffffffffffff021916908373ffffffffffffffffffffffffffffffffffffffff16021790555050565b600181565b600a81565b600b60003373ffffffffffffffffffffffffffffffffffffffff1673ffffffffffffffffffffffffffffffffffffffff16815260200190815260200160002060009054906101000a900460ff1680613bb85750613b89612830565b73ffffffffffffffffffffffffffffffffffffffff163373ffffffffffffffffffffffffffffffffffffffff16145b613bf7576040517f08c379a0000000000000000000000000000000000000000000000000000000008152600401613bee90616090565b60405180910390fd5b613c02838383614992565b613c2881600560008581526020019081526020016000205461445d90919063ffffffff16565b6005600084815260200190815260200160002081905550613c65816006600085815260200190815260200160002054613cac90919063ffffffff16565b6006600084815260200190815260200160002081905550613c8583613f37565b505050565b600033905090565b8060039080519060200190613ca89291906154fe565b5050565b600080828401905083811015613d2a576040517f08c379a000000000000000000000000000000000000000000000000000000000815260040180806020018281038252601b8152602001807f536166654d6174683a206164646974696f6e206f766572666c6f77000000000081525060200191505060405180910390fd5b8091505092915050565b600073ffffffffffffffffffffffffffffffffffffffff168473ffffffffffffffffffffffffffffffffffffffff161415613dba576040517f08c379a00000000000000000000000000000000000000000000000000000000081526004018080602001828103825260218152602001806166f66021913960400191505060405180910390fd5b6000613dc4613c8a565b9050613de581600087613dd688614f94565b613ddf88614f94565b8761453b565b613e48836001600087815260200190815260200160002060008873ffffffffffffffffffffffffffffffffffffffff1673ffffffffffffffffffffffffffffffffffffffff16815260200190815260200160002054613cac90919063ffffffff16565b6001600086815260200190815260200160002060008773ffffffffffffffffffffffffffffffffffffffff1673ffffffffffffffffffffffffffffffffffffffff168152602001908152602001600020819055508473ffffffffffffffffffffffffffffffffffffffff16600073ffffffffffffffffffffffffffffffffffffffff168273ffffffffffffffffffffffffffffffffffffffff167fc3d58168c5ae7397731d063d5bbf3d657854427343f4c083240f7aacaa2d0f628787604051808381526020018281526020019250505060405180910390a4613f3081600087878787615005565b5050505050565b600c60008273ffffffffffffffffffffffffffffffffffffffff1673ffffffffffffffffffffffffffffffffffffffff16815260200190815260200160002060009054906101000a900460ff161561400b576000600f60008373ffffffffffffffffffffffffffffffffffffffff1673ffffffffffffffffffffffffffffffffffffffff1681526020019081526020016000209050613fd7826000610987565b8160000181905550613fea826001610987565b8160010181905550613ffd826002610987565b816002018190555050614138565b6001600c60008373ffffffffffffffffffffffffffffffffffffffff1673ffffffffffffffffffffffffffffffffffffffff16815260200190815260200160002060006101000a81548160ff021916908315150217905550600e6000815480929190600101919050555060006040518060a0016040528061408d846000610987565b815260200161409d846001610987565b81526020016140ad846002610987565b8152602001600e5481526020016000815250905080600f60008473ffffffffffffffffffffffffffffffffffffffff1673ffffffffffffffffffffffffffffffffffffffff1681526020019081526020016000206000820151816000015560208201518160010155604082015181600201556060820151816003015560808201518160040155905050505b50565b600073ffffffffffffffffffffffffffffffffffffffff168473ffffffffffffffffffffffffffffffffffffffff1614156141c1576040517f08c379a00000000000000000000000000000000000000000000000000000000081526004018080602001828103825260218152602001806166f66021913960400191505060405180910390fd5b815183511461421b576040517f08c379a00000000000000000000000000000000000000000000000000000000081526004018080602001828103825260288152602001806166ce6028913960400191505060405180910390fd5b6000614225613c8a565b90506142368160008787878761453b565b60005b845181101561433f576142cb6001600087848151811061425557fe5b6020026020010151815260200190815260200160002060008873ffffffffffffffffffffffffffffffffffffffff1673ffffffffffffffffffffffffffffffffffffffff168152602001908152602001600020548583815181106142b557fe5b6020026020010151613cac90919063ffffffff16565b600160008784815181106142db57fe5b6020026020010151815260200190815260200160002060008873ffffffffffffffffffffffffffffffffffffffff1673ffffffffffffffffffffffffffffffffffffffff168152602001908152602001600020819055508080600101915050614239565b508473ffffffffffffffffffffffffffffffffffffffff16600073ffffffffffffffffffffffffffffffffffffffff168273ffffffffffffffffffffffffffffffffffffffff167f4a39dc06d4c0dbc64b70af90fd698a233a518aa5d07e595d983b8c0526c8f7fb8787604051808060200180602001838103835285818151815260200191508051906020019060200280838360005b838110156143f05780820151818401526020810190506143d5565b50505050905001838103825284818151815260200191508051906020019060200280838360005b83811015614432578082015181840152602081019050614417565b5050505090500194505050505060405180910390a461445681600087878787614603565b5050505050565b600061449f83836040518060400160405280601e81526020017f536166654d6174683a207375627472616374696f6e206f766572666c6f770000815250614543565b905092915050565b60006144e983836040518060400160405280601a81526020017f536166654d6174683a206469766973696f6e206279207a65726f000000000000815250615312565b905092915050565b600061453383836040518060400160405280601881526020017f536166654d6174683a206d6f64756c6f206279207a65726f00000000000000008152506153d8565b905092915050565b505050505050565b60008383111582906145f0576040517f08c379a00000000000000000000000000000000000000000000000000000000081526004018080602001828103825283818151815260200191508051906020019080838360005b838110156145b557808201518184015260208101905061459a565b50505050905090810190601f1680156145e25780820380516001836020036101000a031916815260200191505b509250505060405180910390fd5b5060008385039050809150509392505050565b6146228473ffffffffffffffffffffffffffffffffffffffff16615499565b1561498a578373ffffffffffffffffffffffffffffffffffffffff1663bc197c8187878686866040518663ffffffff1660e01b8152600401808673ffffffffffffffffffffffffffffffffffffffff1681526020018573ffffffffffffffffffffffffffffffffffffffff168152602001806020018060200180602001848103845287818151815260200191508051906020019060200280838360005b838110156146da5780820151818401526020810190506146bf565b50505050905001848103835286818151815260200191508051906020019060200280838360005b8381101561471c578082015181840152602081019050614701565b50505050905001848103825285818151815260200191508051906020019080838360005b8381101561475b578082015181840152602081019050614740565b50505050905090810190601f1680156147885780820380516001836020036101000a031916815260200191505b5098505050505050505050602060405180830381600087803b1580156147ad57600080fd5b505af19250505080156147e157506040513d60208110156147cd57600080fd5b810190808051906020019092919050505060015b6148eb576147ed61639a565b806147f8575061489a565b806040517f08c379a00000000000000000000000000000000000000000000000000000000081526004018080602001828103825283818151815260200191508051906020019080838360005b8381101561485f578082015181840152602081019050614844565b50505050905090810190601f16801561488c5780820380516001836020036101000a031916815260200191505b509250505060405180910390fd5b6040517f08c379a00000000000000000000000000000000000000000000000000000000081526004018080602001828103825260348152602001806164ad6034913960400191505060405180910390fd5b63bc197c8160e01b7bffffffffffffffffffffffffffffffffffffffffffffffffffffffff1916817bffffffffffffffffffffffffffffffffffffffffffffffffffffffff191614614988576040517f08c379a00000000000000000000000000000000000000000000000000000000081526004018080602001828103825260288152602001806164e16028913960400191505060405180910390fd5b505b505050505050565b600073ffffffffffffffffffffffffffffffffffffffff168373ffffffffffffffffffffffffffffffffffffffff161415614a18576040517f08c379a000000000000000000000000000000000000000000000000000000000815260040180806020018281038252602381526020018061662f6023913960400191505060405180910390fd5b6000614a22613c8a565b9050614a5281856000614a3487614f94565b614a3d87614f94565b6040518060200160405280600081525061453b565b614acf8260405180606001604052806024815260200161658b602491396001600087815260200190815260200160002060008873ffffffffffffffffffffffffffffffffffffffff1673ffffffffffffffffffffffffffffffffffffffff168152602001908152602001600020546145439092919063ffffffff16565b6001600085815260200190815260200160002060008673ffffffffffffffffffffffffffffffffffffffff1673ffffffffffffffffffffffffffffffffffffffff16815260200190815260200160002081905550600073ffffffffffffffffffffffffffffffffffffffff168473ffffffffffffffffffffffffffffffffffffffff168273ffffffffffffffffffffffffffffffffffffffff167fc3d58168c5ae7397731d063d5bbf3d657854427343f4c083240f7aacaa2d0f628686604051808381526020018281526020019250505060405180910390a450505050565b60008060005b601080549050811015614c4b5760108181548110614bce57fe5b906000526020600020906002020160000160009054906101000a900473ffffffffffffffffffffffffffffffffffffffff1673ffffffffffffffffffffffffffffffffffffffff168473ffffffffffffffffffffffffffffffffffffffff161415614c40576001819250925050614c54565b600181019050614bb4565b50600080915091505b915091565b600073ffffffffffffffffffffffffffffffffffffffff168373ffffffffffffffffffffffffffffffffffffffff161415614cdf576040517f08c379a000000000000000000000000000000000000000000000000000000000815260040180806020018281038252602381526020018061662f6023913960400191505060405180910390fd5b8051825114614d39576040517f08c379a00000000000000000000000000000000000000000000000000000000081526004018080602001828103825260288152602001806166ce6028913960400191505060405180910390fd5b6000614d43613c8a565b9050614d638185600086866040518060200160405280600081525061453b565b60005b8351811015614e8657614e12838281518110614d7e57fe5b602002602001015160405180606001604052806024815260200161658b6024913960016000888681518110614daf57fe5b6020026020010151815260200190815260200160002060008973ffffffffffffffffffffffffffffffffffffffff1673ffffffffffffffffffffffffffffffffffffffff168152602001908152602001600020546145439092919063ffffffff16565b60016000868481518110614e2257fe5b6020026020010151815260200190815260200160002060008773ffffffffffffffffffffffffffffffffffffffff1673ffffffffffffffffffffffffffffffffffffffff168152602001908152602001600020819055508080600101915050614d66565b50600073ffffffffffffffffffffffffffffffffffffffff168473ffffffffffffffffffffffffffffffffffffffff168273ffffffffffffffffffffffffffffffffffffffff167f4a39dc06d4c0dbc64b70af90fd698a233a518aa5d07e595d983b8c0526c8f7fb8686604051808060200180602001838103835285818151815260200191508051906020019060200280838360005b83811015614f37578082015181840152602081019050614f1c565b50505050905001838103825284818151815260200191508051906020019060200280838360005b83811015614f79578082015181840152602081019050614f5e565b5050505090500194505050505060405180910390a450505050565b60606000600167ffffffffffffffff81118015614fb057600080fd5b50604051908082528060200260200182016040528015614fdf5781602001602082028036833780820191505090505b5090508281600081518110614ff057fe5b60200260200101818152505080915050919050565b6150248473ffffffffffffffffffffffffffffffffffffffff16615499565b1561530a578373ffffffffffffffffffffffffffffffffffffffff1663f23a6e6187878686866040518663ffffffff1660e01b8152600401808673ffffffffffffffffffffffffffffffffffffffff1681526020018573ffffffffffffffffffffffffffffffffffffffff16815260200184815260200183815260200180602001828103825283818151815260200191508051906020019080838360005b838110156150dd5780820151818401526020810190506150c2565b50505050905090810190601f16801561510a5780820380516001836020036101000a031916815260200191505b509650505050505050602060405180830381600087803b15801561512d57600080fd5b505af192505050801561516157506040513d602081101561514d57600080fd5b810190808051906020019092919050505060015b61526b5761516d61639a565b80615178575061521a565b806040517f08c379a00000000000000000000000000000000000000000000000000000000081526004018080602001828103825283818151815260200191508051906020019080838360005b838110156151df5780820151818401526020810190506151c4565b50505050905090810190601f16801561520c5780820380516001836020036101000a031916815260200191505b509250505060405180910390fd5b6040517f08c379a00000000000000000000000000000000000000000000000000000000081526004018080602001828103825260348152602001806164ad6034913960400191505060405180910390fd5b63f23a6e6160e01b7bffffffffffffffffffffffffffffffffffffffffffffffffffffffff1916817bffffffffffffffffffffffffffffffffffffffffffffffffffffffff191614615308576040517f08c379a00000000000000000000000000000000000000000000000000000000081526004018080602001828103825260288152602001806164e16028913960400191505060405180910390fd5b505b505050505050565b600080831182906153be576040517f08c379a00000000000000000000000000000000000000000000000000000000081526004018080602001828103825283818151815260200191508051906020019080838360005b83811015615383578082015181840152602081019050615368565b50505050905090810190601f1680156153b05780820380516001836020036101000a031916815260200191505b509250505060405180910390fd5b5060008385816153ca57fe5b049050809150509392505050565b6000808314158290615485576040517f08c379a00000000000000000000000000000000000000000000000000000000081526004018080602001828103825283818151815260200191508051906020019080838360005b8381101561544a57808201518184015260208101905061542f565b50505050905090810190601f1680156154775780820380516001836020036101000a031916815260200191505b509250505060405180910390fd5b5082848161548f57fe5b0690509392505050565b600080823b905060008111915050919050565b6040518060a0016040528060008152602001600081526020016000815260200160008152602001600081525090565b604051806103e00160405280601f90602082028036833780820191505090505090565b828054600181600116156101000203166002900490600052602060002090601f016020900481019282615534576000855561557b565b82601f1061554d57805160ff191683800117855561557b565b8280016001018555821561557b579182015b8281111561557a57825182559160200191906001019061555f565b5b509050615588919061558c565b5090565b5b808211156155a557600081600090555060010161558d565b5090565b60006155bc6155b7846161b7565b616186565b905080838252602082019050828560208602820111156155db57600080fd5b60005b8581101561560b57816155f188826156fd565b8452602084019350602083019250506001810190506155de565b5050509392505050565b6000615628615623846161e3565b616186565b9050808382526020820190508285602086028201111561564757600080fd5b60005b85811015615677578161565d88826157e4565b84526020840193506020830192505060018101905061564a565b5050509392505050565b600061569461568f8461620f565b616186565b9050828152602081018484840111156156ac57600080fd5b6156b7848285616338565b509392505050565b60006156d26156cd8461623f565b616186565b9050828152602081018484840111156156ea57600080fd5b6156f5848285616338565b509392505050565b60008135905061570c81616450565b92915050565b600082601f83011261572357600080fd5b81356157338482602086016155a9565b91505092915050565b600082601f83011261574d57600080fd5b813561575d848260208601615615565b91505092915050565b60008135905061577581616467565b92915050565b60008135905061578a8161647e565b92915050565b600082601f8301126157a157600080fd5b81356157b1848260208601615681565b91505092915050565b600082601f8301126157cb57600080fd5b81356157db8482602086016156bf565b91505092915050565b6000813590506157f381616495565b92915050565b60006020828403121561580b57600080fd5b6000615819848285016156fd565b91505092915050565b6000806040838503121561583557600080fd5b6000615843858286016156fd565b9250506020615854858286016156fd565b9150509250929050565b600080600080600060a0868803121561587657600080fd5b6000615884888289016156fd565b9550506020615895888289016156fd565b945050604086013567ffffffffffffffff8111156158b257600080fd5b6158be8882890161573c565b935050606086013567ffffffffffffffff8111156158db57600080fd5b6158e78882890161573c565b925050608086013567ffffffffffffffff81111561590457600080fd5b61591088828901615790565b9150509295509295909350565b600080600080600060a0868803121561593557600080fd5b6000615943888289016156fd565b9550506020615954888289016156fd565b9450506040615965888289016157e4565b9350506060615976888289016157e4565b925050608086013567ffffffffffffffff81111561599357600080fd5b61599f88828901615790565b9150509295509295909350565b600080604083850312156159bf57600080fd5b60006159cd858286016156fd565b925050602083013567ffffffffffffffff8111156159ea57600080fd5b6159f68582860161573c565b9150509250929050565b600080600060608486031215615a1557600080fd5b6000615a23868287016156fd565b935050602084013567ffffffffffffffff811115615a4057600080fd5b615a4c8682870161573c565b925050604084013567ffffffffffffffff811115615a6957600080fd5b615a758682870161573c565b9150509250925092565b60008060008060808587031215615a9557600080fd5b6000615aa3878288016156fd565b945050602085013567ffffffffffffffff811115615ac057600080fd5b615acc8782880161573c565b935050604085013567ffffffffffffffff811115615ae957600080fd5b615af58782880161573c565b925050606085013567ffffffffffffffff811115615b1257600080fd5b615b1e87828801615790565b91505092959194509250565b60008060408385031215615b3d57600080fd5b6000615b4b858286016156fd565b9250506020615b5c85828601615766565b9150509250929050565b60008060408385031215615b7957600080fd5b6000615b87858286016156fd565b9250506020615b98858286016157e4565b9150509250929050565b600080600060608486031215615bb757600080fd5b6000615bc5868287016156fd565b9350506020615bd6868287016157e4565b9250506040615be7868287016157e4565b9150509250925092565b600060208284031215615c0357600080fd5b600082013567ffffffffffffffff811115615c1d57600080fd5b615c2984828501615712565b91505092915050565b60008060408385031215615c4557600080fd5b600083013567ffffffffffffffff811115615c5f57600080fd5b615c6b85828601615712565b925050602083013567ffffffffffffffff811115615c8857600080fd5b615c948582860161573c565b9150509250929050565b600060208284031215615cb057600080fd5b6000615cbe8482850161577b565b91505092915050565b600060208284031215615cd957600080fd5b600082013567ffffffffffffffff811115615cf357600080fd5b615cff848285016157ba565b91505092915050565b600060208284031215615d1a57600080fd5b6000615d28848285016157e4565b91505092915050565b6000615d3d8383615fd8565b60208301905092915050565b615d52816162c4565b82525050565b6000615d638261627f565b615d6d81856162a2565b9350615d788361626f565b8060005b83811015615da9578151615d908882615d31565b9750615d9b83616295565b925050600181019050615d7c565b5085935050505092915050565b615dbf816162d6565b82525050565b6000615dd08261628a565b615dda81856162b3565b9350615dea818560208601616347565b615df38161637c565b840191505092915050565b6000615e0b6035836162b3565b91507f4572726f722c2073656c65637465642064617465206973206c6f77657220746860008301527f616e20746f6b656e207075626c697368206461746500000000000000000000006020830152604082019050919050565b6000615e71602c836162b3565b91507f536f7272792c20746869732061646472657373206973206e6f74206f6e20746860008301527f652077686974656c6973742e00000000000000000000000000000000000000006020830152604082019050919050565b6000615ed76017836162b3565b91507f416464726573732063616e206e6f74206265207a65726f0000000000000000006000830152602082019050919050565b6000615f176029836162b3565b91507f6572726f723a205573657220646f6573206e6f74206578697374206f6e20636860008301527f61696e20646174612e00000000000000000000000000000000000000000000006020830152604082019050919050565b60a082016000820151615f866000850182615fd8565b506020820151615f996020850182615fd8565b506040820151615fac6040850182615fd8565b506060820151615fbf6060850182615fd8565b506080820151615fd26080850182615fd8565b50505050565b615fe18161632e565b82525050565b615ff08161632e565b82525050565b600060208201905061600b6000830184615d49565b92915050565b6000602082019050818103600083015261602b8184615d58565b905092915050565b60006020820190506160486000830184615db6565b92915050565b600060208201905081810360008301526160688184615dc5565b905092915050565b6000602082019050818103600083015261608981615dfe565b9050919050565b600060208201905081810360008301526160a981615e64565b9050919050565b600060208201905081810360008301526160c981615eca565b9050919050565b600060208201905081810360008301526160e981615f0a565b9050919050565b600060a0820190506161056000830184615f70565b92915050565b60006020820190506161206000830184615fe7565b92915050565b600060408201905061613b6000830185615fe7565b6161486020830184615fe7565b9392505050565b60006060820190506161646000830186615fe7565b6161716020830185615fe7565b61617e6040830184615fe7565b949350505050565b6000604051905081810181811067ffffffffffffffff821117156161ad576161ac61637a565b5b8060405250919050565b600067ffffffffffffffff8211156161d2576161d161637a565b5b602082029050602081019050919050565b600067ffffffffffffffff8211156161fe576161fd61637a565b5b602082029050602081019050919050565b600067ffffffffffffffff82111561622a5761622961637a565b5b601f19601f8301169050602081019050919050565b600067ffffffffffffffff82111561625a5761625961637a565b5b601f19601f8301169050602081019050919050565b6000819050602082019050919050565b600081519050919050565b600081519050919050565b6000602082019050919050565b600082825260208201905092915050565b600082825260208201905092915050565b60006162cf8261630e565b9050919050565b60008115159050919050565b60007fffffffff0000000000000000000000000000000000000000000000000000000082169050919050565b600073ffffffffffffffffffffffffffffffffffffffff82169050919050565b6000819050919050565b82818337600083830152505050565b60005b8381101561636557808201518184015260208101905061634a565b83811115616374576000848401525b50505050565bfe5b6000601f19601f8301169050919050565b60008160e01c9050919050565b600060443d10156163aa5761644d565b60046000803e6163bb60005161638d565b6308c379a081146163cc575061644d565b60405160043d036004823e80513d602482011167ffffffffffffffff821117156163f85750505061644d565b808201805167ffffffffffffffff81111561641757505050505061644d565b8060208301013d85018111156164325750505050505061644d565b61643b8261637c565b60208401016040528296505050505050505b90565b616459816162c4565b811461646457600080fd5b50565b616470816162d6565b811461647b57600080fd5b50565b616487816162e2565b811461649257600080fd5b50565b61649e8161632e565b81146164a957600080fd5b5056fe455243313135353a207472616e7366657220746f206e6f6e2045524331313535526563656976657220696d706c656d656e746572455243313135353a204552433131353552656365697665722072656a656374656420746f6b656e73455243313135353a2062616c616e636520717565727920666f7220746865207a65726f2061646472657373455243313135353a2062617463682062616c616e636520717565727920666f7220746865207a65726f20616464726573734f776e61626c653a206e6577206f776e657220697320746865207a65726f2061646472657373455243313135353a206275726e20616d6f756e7420657863656564732062616c616e6365455243313135353a2063616c6c6572206973206e6f74206f776e6572206e6f7220617070726f766564455243313135353a207472616e7366657220746f20746865207a65726f2061646472657373455243313135353a207472616e736665722063616c6c6572206973206e6f74206f776e6572206e6f7220617070726f766564455243313135353a206275726e2066726f6d20746865207a65726f2061646472657373455243313135353a20696e73756666696369656e742062616c616e636520666f72207472616e73666572455243313135353a2073657474696e6720617070726f76616c2073746174757320666f722073656c66455243313135353a206163636f756e747320616e6420696473206c656e677468206d69736d61746368455243313135353a2069647320616e6420616d6f756e7473206c656e677468206d69736d61746368455243313135353a206d696e7420746f20746865207a65726f2061646472657373a264697066735822122034510850d1dc892d188c5b6c13e9c45704626714b10e7b960f95e260810aaf9e64736f6c63430007060033",
  "immutableReferences": {},
  "source": "// SPDX-License-Identifier: MIT\r\npragma solidity >=0.6.0 <0.8.0;\r\n\r\npragma experimental ABIEncoderV2;\r\nimport \"@openzeppelin/contracts/access/Ownable.sol\";\r\nimport \"@openzeppelin/contracts/math/SafeMath.sol\";\r\nimport \"@openzeppelin/contracts/token/ERC1155/ERC1155.sol\";\r\ncontract CimpleDAO is ERC1155, Ownable {\r\n    using SafeMath for uint256;\r\n    //token id \r\n    uint256 public constant Cimple = 0;\r\n    uint256 public constant stCimple = 1;\r\n    uint256 public constant CMPG = 2;\r\n    // total amount both mint and burn\r\n    mapping(uint256 => uint256) public tokenSupply;\r\n    mapping(uint256 => uint256) public tokenBurn;\r\n    mapping(uint256 => uint256) public tokenSupplyLimit;\r\n    mapping(uint256 => address) nftOwners;\r\n    uint256 public nftIdIndex;\r\n    \r\n    // Decimal config\r\n    uint256 public constant CMPGDecimal = 18; //CMPG decimal\r\n    uint256 public constant CMPGDistributionPercentDecimal = 10; //distribution cmpg percent decimal\r\n    uint256 public constant DailyCMPGSupplyDecreasePercentDecimal = 10; // daily cmpg supply percent decimal\r\n\r\n    // Timestamp config\r\n    uint256 private deployedStartTimeStamp; // contract deployed timestamp * this is in need to calculate cimpleIR, etc\r\n    uint256 private constant oneSecondTimeStamp = 1; \r\n    uint256 private constant oneDayTimeStamp = 864 * 1e2; // timestamp per day\r\n    uint256 private constant oneYearTimeStamp = 3154 * 1e4; // timestamp per year\r\n    //whitelist    \r\n    mapping(address => bool) public mintRoleList;\r\n    mapping(address => bool) public registeredUsers;\r\n    uint256 public totalMintRoleList;\r\n\r\n    // user info structure\r\n    struct UserDetail {\r\n        uint256 cimpleValue;\r\n        uint256 stCimpleValue;\r\n        uint256 CMPGValue;\r\n        uint256 referralID;\r\n        uint256 referredBy;\r\n    }\r\n    uint256 private currentReferralIDIndex;\r\n    mapping (address=>UserDetail) private usersInfo;\r\n\r\n    //staking part config\r\n    struct StakeHolder {\r\n        address holderAddress;\r\n        uint256 holdTimeStamp;\r\n    }\r\n    StakeHolder[] internal stakeholders; \r\n    // End staking part config\r\n\r\n    // mintable modifier\r\n    modifier mintable() {\r\n        require(mintRoleList[msg.sender] || msg.sender == owner(), 'Sorry, this address is not on the whitelist.');\r\n        _;\r\n    }\r\n\r\n    // event calculatedCimpleIR (uint256 indexed ciIR, uint256 curTimeStamp);\r\n    constructor() ERC1155(\"\") {\r\n        deployedStartTimeStamp = block.timestamp;\r\n        // tokenSupplyLimit[CMPG] = 1e8;\r\n        // registeredUsers[msg.sender] = false;\r\n        // _addOrUpdateUserInfo(msg.sender);\r\n    }\r\n    // get CMPG decimal\r\n    function getCMPGDecimal() public view returns(uint256){\r\n        return CMPGDecimal;\r\n    }\r\n    /** Add multiple addresses to mintableRoleList */\r\n    function multipleAddressesToMintableRoleList(address[] memory addresses) public onlyOwner {\r\n        for(uint256 i =0; i < addresses.length; i++) {\r\n            singleAddressToMintableRoleList(addresses[i]);\r\n        }\r\n    }\r\n\r\n    /** Add single address to mintableRoleList */\r\n    function singleAddressToMintableRoleList(address userAddress) public onlyOwner {\r\n        require(userAddress != address(0), \"Address can not be zero\");\r\n        if(!mintRoleList[userAddress]) {\r\n            mintRoleList[userAddress] = true;\r\n            totalMintRoleList++;\r\n            _addOrUpdateUserInfo(userAddress);\r\n        }\r\n    }\r\n\r\n    /** Remove multiple addresses from mintableRoleList */\r\n    function removeAddressesFromMintableRoleList(address[] memory addresses) public onlyOwner {\r\n        for(uint i =0; i<addresses.length; i++) {\r\n            removeAddressFromMintableRoleList(addresses[i]);\r\n        }\r\n    }\r\n\r\n    /** Remove single address from mintableRoleList */\r\n    function removeAddressFromMintableRoleList(address userAddress) public onlyOwner {\r\n        require(userAddress != address(0), \"Address can not be zero\");\r\n        if(mintRoleList[userAddress]){\r\n            mintRoleList[userAddress] = false;\r\n            totalMintRoleList--;\r\n        }\r\n    }\r\n    function setURI(string memory newuri) public onlyOwner {\r\n        _setURI(newuri);\r\n    }\r\n    // Mint FT and NFT including batch minting functions\r\n    function mint(address account, uint256 id, uint256 amount) public mintable {\r\n        _mint(account, id, amount, \"0x000\");\r\n        tokenSupply[id] = tokenSupply[id].add(amount);\r\n        _addOrUpdateUserInfo(account);\r\n    }\r\n\r\n    function mintNFT(address account, uint256 id) public mintable {\r\n        _mint(account, id, 1, \"0x000\");\r\n        nftOwners[id] = account;\r\n        tokenSupply[id] = tokenSupply[id].add(1);\r\n        _addOrUpdateUserInfo(account);\r\n    }\r\n\r\n    function mintBatch(address to, uint256[] memory ids, uint256[] memory amounts, bytes memory data) public onlyOwner {\r\n        _mintBatch(to, ids, amounts, data);\r\n        for(uint256 i = 0; i < ids.length; i++){\r\n            tokenSupply[ids[i]] = tokenSupply[ids[i]].add(amounts[i]);\r\n        }\r\n        _addOrUpdateUserInfo(to);\r\n    }\r\n    function mintBatchNFT(address to, uint256[] memory ids) public onlyOwner {\r\n        for(uint256 i = 0; i < ids.length; i++){\r\n            mintNFT(to, ids[i]);\r\n        }\r\n    }\r\n    // Burn FT and NFT function\r\n    function burn(address account, uint256 id, uint256 amount) public mintable {\r\n        _burn(account, id, amount);\r\n        tokenSupply[id] = tokenSupply[id].sub(amount);\r\n        tokenBurn[id] = tokenBurn[id].add(amount);\r\n        _addOrUpdateUserInfo(account);\r\n    }\r\n    function burnNFT(address account, uint256 id) public mintable {\r\n        _burn(account, id, 1);\r\n        tokenSupply[id] = tokenSupply[id].sub(1);\r\n        tokenBurn[id] = tokenBurn[id].add(1);\r\n        delete nftOwners[id];\r\n        _addOrUpdateUserInfo(account);\r\n    }\r\n\r\n    function burnBatch(address from, uint256[] memory ids, uint256[] memory amounts) public onlyOwner {\r\n        _burnBatch(from, ids, amounts);\r\n        for(uint256 i = 0; i < ids.length; i++){\r\n            tokenSupply[ids[i]] = tokenSupply[ids[i]].sub(amounts[i]);\r\n            tokenBurn[ids[i]] = tokenBurn[ids[i]].add(amounts[i]);\r\n        }\r\n        _addOrUpdateUserInfo(from);\r\n    }\r\n    function burnBatchNFT(address from, uint256[] memory ids) public onlyOwner {\r\n        for(uint256 i = 0; i < ids.length; i++){\r\n            burnNFT(from, ids[i]);\r\n        }\r\n    }\r\n    // implementation issuance/redemption rate\r\n    function calculateCimpleIR(uint256 _currentTimeStamp) external view returns( uint256, uint256, uint256 ) {\r\n    // require(msg.sender==minter, 'Error, msg.sender does not have minter role'); //dBank\r\n        require(deployedStartTimeStamp < _currentTimeStamp, 'Error, selected date is lower than token publish date'); //dBank\r\n        uint256 currentTimeStamp = _currentTimeStamp;\r\n        uint256 periodTimeStamp = currentTimeStamp.sub(deployedStartTimeStamp);\r\n        uint256 usedDayCount = periodTimeStamp.div(oneDayTimeStamp).mod(365);\r\n        uint256 usedYearCount = periodTimeStamp.div(oneYearTimeStamp);\r\n        uint256 stepPrice = 1e11;\r\n        uint256 cimpleIR = 1e12;\r\n        uint256[31] memory additionalDailyRatePerYear;\r\n        uint256[31] memory baseCimpleIRForNewYear;\r\n        additionalDailyRatePerYear[0] = 1e11;\r\n        baseCimpleIRForNewYear[0] = 1e12;\r\n        if(usedYearCount > 30) {\r\n            usedYearCount = 30;\r\n        }\r\n        if(usedYearCount < uint256(1)){\r\n            stepPrice = additionalDailyRatePerYear[usedYearCount];\r\n        }else{\r\n            for (uint256 i = 1; i <= usedYearCount; i++) {\r\n                uint256 temp = additionalDailyRatePerYear[i - 1] * 175 / 100;\r\n                for (uint256 index = 1; index <= i; index++) {\r\n                    temp = temp * 9810837779 / 1e10;\r\n                }\r\n                additionalDailyRatePerYear[i] = temp;\r\n            }\r\n            stepPrice = additionalDailyRatePerYear[usedYearCount];\r\n            baseCimpleIRForNewYear[usedYearCount] = baseCimpleIRForNewYear[usedYearCount - 1] +  additionalDailyRatePerYear[usedYearCount - 1] * 365;\r\n        }\r\n        uint256 deltaIR = stepPrice * usedDayCount;\r\n        cimpleIR = baseCimpleIRForNewYear[usedYearCount];\r\n        cimpleIR = cimpleIR + deltaIR;\r\n        if(cimpleIR >= 1e18) {\r\n            cimpleIR = 1e18;\r\n        }\r\n        return (cimpleIR, stepPrice, usedDayCount);\r\n    }\r\n    // ADD, EDIT, DELETE \r\n    function _addOrUpdateUserInfo(address userAddress) internal {\r\n        if(registeredUsers[userAddress]){\r\n            UserDetail storage tempUser = usersInfo[userAddress];\r\n            tempUser.cimpleValue = balanceOf(userAddress, Cimple);\r\n            tempUser.stCimpleValue = balanceOf(userAddress, stCimple);\r\n            tempUser.CMPGValue = balanceOf(userAddress, CMPG);\r\n        }else{\r\n            registeredUsers[userAddress] = true;\r\n            currentReferralIDIndex++;\r\n            UserDetail memory tempUser = UserDetail(balanceOf(userAddress, Cimple), balanceOf(userAddress, stCimple), balanceOf(userAddress, CMPG), currentReferralIDIndex, 0);\r\n            usersInfo[userAddress] = tempUser;\r\n        }\r\n        \r\n    }\r\n\r\n    function getUserInfo(address userAddress) external view returns( UserDetail memory tempUserInfo ) {\r\n        require(registeredUsers[userAddress], \"error: User does not exist on chain data.\");\r\n        tempUserInfo = usersInfo[userAddress];\r\n        return tempUserInfo;\r\n    }\r\n\r\n    // staking part is here ===================\r\n    /**\r\n    * @notice A method to check if an address is a stakeholder.\r\n    * @param _address The address to verify.\r\n    * @return bool, uint256 Whether the address is a stakeholder,\r\n    * and if so its position in the stakeholders array.\r\n    */\r\n    function isStakeholder(address _address) internal view returns(bool, uint256) {\r\n       for (uint256 s = 0; s < stakeholders.length; s += 1){\r\n           if (_address == stakeholders[s].holderAddress) return (true, s);\r\n       }\r\n       return (false, 0);\r\n    }\r\n    /**\r\n    * @notice A method to add a stakeholder.\r\n    * @param _stakeholder The stakeholder to add.\r\n    */\r\n    function addStakeholder(address _stakeholder, uint256 _timeStamp) public {\r\n        (bool _isStakeholder, ) = isStakeholder(_stakeholder);\r\n        if(!_isStakeholder) stakeholders.push(StakeHolder(_stakeholder, _timeStamp));\r\n    }\r\n\r\n    /**\r\n        * @notice A method to remove a stakeholder.\r\n        * @param _stakeholder The stakeholder to remove.\r\n        */\r\n    function removeStakeholder(address _stakeholder) public {\r\n        (bool _isStakeholder, uint256 s) = isStakeholder(_stakeholder);\r\n        if(_isStakeholder){\r\n            stakeholders[s] = stakeholders[stakeholders.length - 1];\r\n            stakeholders.pop();\r\n        }\r\n    }\r\n    /**\r\n        * @notice A method to the aggregated stakes from all stakeholders.\r\n        * @return uint256 The aggregated stakes from all stakeholders.\r\n        */\r\n    function totalStakes() public view returns(uint256) {\r\n       uint256 _totalStakes = 0;\r\n       for (uint256 s = 0; s < stakeholders.length; s += 1){\r\n           _totalStakes = _totalStakes.add(balanceOf(stakeholders[s].holderAddress, stCimple));\r\n       }\r\n       return _totalStakes;\r\n    }\r\n    /**\r\n    * @notice A method for a stakeholder to create a stake.\r\n    * @param _stake The size of the stake to be created.\r\n    */\r\n    function createStake(address staker, uint256 _stake) public onlyOwner{\r\n        burn(staker, Cimple, _stake);\r\n        mint(staker, stCimple, _stake);\r\n        tokenSupply[stCimple] = tokenSupply[stCimple].add(_stake);\r\n        tokenSupply[Cimple] = tokenSupply[Cimple].sub(_stake);\r\n        (bool _isStakeholder, uint256 s) = isStakeholder(staker);\r\n        if(!_isStakeholder) addStakeholder(staker, block.timestamp);\r\n        else stakeholders[s].holdTimeStamp = block.timestamp;\r\n    }\r\n\r\n    /**\r\n        * @notice A method for a stakeholder to remove a stake.\r\n        * @param _stake The size of the stake to be removed.\r\n        */\r\n    function removeStake(address unstaker, uint256 _stake) public onlyOwner{\r\n        (bool _isStakeholder, uint256 s) = isStakeholder(unstaker);\r\n        if(_isStakeholder){\r\n            burn(unstaker, stCimple, _stake);\r\n            mint(unstaker, Cimple, _stake);\r\n            tokenSupply[stCimple] = tokenSupply[stCimple].sub(_stake);\r\n            tokenSupply[Cimple] = tokenSupply[Cimple].add(_stake);\r\n            if(balanceOf(unstaker, stCimple) == 0) removeStakeholder(unstaker);\r\n            else stakeholders[s].holdTimeStamp = block.timestamp;\r\n        }\r\n    }\r\n   \r\n    function totalRewards() public view  returns(uint256) {\r\n        uint256 _totalRewards = 0;\r\n        for (uint256 s = 0; s < stakeholders.length; s += 1){\r\n           _totalRewards = _totalRewards.add(balanceOf(stakeholders[s].holderAddress, CMPG));\r\n        }\r\n        return _totalRewards;\r\n    }\r\n    function calculateReward(address _stakeholder, uint256 _holdTimeStamp, uint256 _nowTimeStamp) public view returns(uint256) {\r\n        if(_nowTimeStamp > _holdTimeStamp && _holdTimeStamp != 0){\r\n            uint256 _distributionPercentOfCMPG = _calculateDistributionPercentOfCMPG(_stakeholder);\r\n            uint256 _dayCountAtNow = _nowTimeStamp.sub(deployedStartTimeStamp).div(oneDayTimeStamp);\r\n            uint256 _extraTimeCountAtNow = _nowTimeStamp.sub(deployedStartTimeStamp).mod(oneDayTimeStamp);\r\n\r\n            uint256 _dayCountAtHold = _holdTimeStamp.sub(deployedStartTimeStamp).div(oneDayTimeStamp);\r\n            uint256 _extraTimeCountAtHold = _holdTimeStamp.sub(deployedStartTimeStamp).mod(oneDayTimeStamp);\r\n            uint256 _holdPeriodDayCount = _dayCountAtNow - _dayCountAtHold;\r\n            uint256 _minusCMPGAmountAtHold;\r\n            (uint256 _tempPerDay, uint256 _tempPerTime) = _calculateDailySupplyOfCMPG(_dayCountAtHold);\r\n            _minusCMPGAmountAtHold = _tempPerTime * _extraTimeCountAtHold * _distributionPercentOfCMPG / 1e10;\r\n            uint256 _availableRewardAmount;\r\n            for (uint256 index = 0; index < _holdPeriodDayCount; index++) {\r\n                (uint256 _dailySupplyOfCMPG, uint256 _perTimeSupplyAmount) = _calculateDailySupplyOfCMPG(_dayCountAtHold + index);\r\n                _availableRewardAmount += _dailySupplyOfCMPG * _distributionPercentOfCMPG / 1e10;\r\n            }\r\n            uint256 _plusCMPGAmountAtHold;\r\n            (uint256 _tempPerDay1, uint256 _tempPerTime1) = _calculateDailySupplyOfCMPG(_dayCountAtNow);\r\n            _plusCMPGAmountAtHold = _tempPerTime1 * _extraTimeCountAtNow * _distributionPercentOfCMPG / 1e10;\r\n            _availableRewardAmount = _availableRewardAmount + _plusCMPGAmountAtHold - _minusCMPGAmountAtHold;\r\n            return _availableRewardAmount;\r\n        }else {\r\n            return 0;\r\n        }\r\n        \r\n    }\r\n    // daily supply of CMPG token \r\n    function _calculateDailySupplyOfCMPG(uint _days) public view returns (uint256, uint256) {\r\n        uint256 _initSupplyOfCMPG = 32913 * (10 ** CMPGDecimal);\r\n        uint256 _dailyDecreasePercent = 358059438; // 1e10 decimal\r\n        uint256 _dailyDecreasePercentDecimal = 1e10;\r\n        uint256 _dailySupplyAmount = _initSupplyOfCMPG;\r\n        if(_days >= 1){\r\n            for (uint256 index = 0; index < _days; index++) {\r\n                _dailySupplyAmount = _dailySupplyAmount - _dailySupplyAmount * _dailyDecreasePercent / _dailyDecreasePercentDecimal;\r\n            }\r\n        }\r\n        uint256 _perTimeSupplyAmount = _dailySupplyAmount / oneDayTimeStamp;\r\n        return (_dailySupplyAmount, _perTimeSupplyAmount);\r\n    }\r\n    function _calculateDistributionPercentOfCMPG(address _address) public view returns(uint256) {\r\n        (bool _isStakeHolder, ) = isStakeholder(_address);\r\n        if(stakeholders.length > 0 && _isStakeHolder){\r\n            uint256 _totalRewardOfCMPG = totalStakes();\r\n            uint256 _amountCMPGOfHolder = balanceOf(_address, stCimple);\r\n            uint256 _distributionPercent = (10 ** CMPGDistributionPercentDecimal) * _amountCMPGOfHolder / _totalRewardOfCMPG;\r\n            return _distributionPercent;\r\n        }\r\n    }\r\n    /**\r\n    * @notice A method to distribute rewards to all stakeholders.\r\n    */\r\n    function distributeRewards(uint256 _timeStamp) public onlyOwner {\r\n        for (uint256 s = 0; s < stakeholders.length; s += 1){\r\n            StakeHolder memory stakeholder = stakeholders[s];\r\n            uint256 reward = calculateReward(stakeholder.holderAddress, stakeholder.holdTimeStamp, _timeStamp);\r\n            if(reward > 0) {\r\n                mint(stakeholder.holderAddress, CMPG, reward);\r\n                tokenSupply[CMPG] = tokenSupply[CMPG].add(reward);\r\n            }\r\n        }\r\n    }\r\n    // End staking part \r\n}",
  "sourcePath": "F:\\repo\\smartcontract_1155\\src\\contracts\\CimpleDAO.sol",
  "compiler": {
    "name": "solc",
    "version": "0.7.6+commit.7338295f.Emscripten.clang"
  },
  "schemaVersion": "3.4.4",
  "updatedAt": "2022-01-19T20:00:46.558Z",
  "devdoc": {
    "kind": "dev",
    "methods": {
      "addStakeholder(address,uint256)": {
        "params": {
          "_stakeholder": "The stakeholder to add."
        }
      },
      "balanceOf(address,uint256)": {
        "details": "See {IERC1155-balanceOf}. Requirements: - `account` cannot be the zero address."
      },
      "balanceOfBatch(address[],uint256[])": {
        "details": "See {IERC1155-balanceOfBatch}. Requirements: - `accounts` and `ids` must have the same length."
      },
      "createStake(address,uint256)": {
        "params": {
          "_stake": "The size of the stake to be created."
        }
      },
      "isApprovedForAll(address,address)": {
        "details": "See {IERC1155-isApprovedForAll}."
      },
      "owner()": {
        "details": "Returns the address of the current owner."
      },
      "removeStake(address,uint256)": {
        "params": {
          "_stake": "The size of the stake to be removed."
        }
      },
      "removeStakeholder(address)": {
        "params": {
          "_stakeholder": "The stakeholder to remove."
        }
      },
      "renounceOwnership()": {
        "details": "Leaves the contract without owner. It will not be possible to call `onlyOwner` functions anymore. Can only be called by the current owner. NOTE: Renouncing ownership will leave the contract without an owner, thereby removing any functionality that is only available to the owner."
      },
      "safeBatchTransferFrom(address,address,uint256[],uint256[],bytes)": {
        "details": "See {IERC1155-safeBatchTransferFrom}."
      },
      "safeTransferFrom(address,address,uint256,uint256,bytes)": {
        "details": "See {IERC1155-safeTransferFrom}."
      },
      "setApprovalForAll(address,bool)": {
        "details": "See {IERC1155-setApprovalForAll}."
      },
      "supportsInterface(bytes4)": {
        "details": "See {IERC165-supportsInterface}. Time complexity O(1), guaranteed to always use less than 30 000 gas."
      },
      "totalStakes()": {
        "returns": {
          "_0": "uint256 The aggregated stakes from all stakeholders."
        }
      },
      "transferOwnership(address)": {
        "details": "Transfers ownership of the contract to a new account (`newOwner`). Can only be called by the current owner."
      },
      "uri(uint256)": {
        "details": "See {IERC1155MetadataURI-uri}. This implementation returns the same URI for *all* token types. It relies on the token type ID substitution mechanism https://eips.ethereum.org/EIPS/eip-1155#metadata[defined in the EIP]. Clients calling this function must replace the `\\{id\\}` substring with the actual token type ID."
      }
    },
    "version": 1
  },
  "userdoc": {
    "kind": "user",
    "methods": {
      "addStakeholder(address,uint256)": {
        "notice": "A method to add a stakeholder."
      },
      "createStake(address,uint256)": {
        "notice": "A method for a stakeholder to create a stake."
      },
      "distributeRewards(uint256)": {
        "notice": "A method to distribute rewards to all stakeholders."
      },
      "multipleAddressesToMintableRoleList(address[])": {
        "notice": "Add multiple addresses to mintableRoleList "
      },
      "removeAddressFromMintableRoleList(address)": {
        "notice": "Remove single address from mintableRoleList "
      },
      "removeAddressesFromMintableRoleList(address[])": {
        "notice": "Remove multiple addresses from mintableRoleList "
      },
      "removeStake(address,uint256)": {
        "notice": "A method for a stakeholder to remove a stake."
      },
      "removeStakeholder(address)": {
        "notice": "A method to remove a stakeholder."
      },
      "singleAddressToMintableRoleList(address)": {
        "notice": "Add single address to mintableRoleList "
      },
      "totalStakes()": {
        "notice": "A method to the aggregated stakes from all stakeholders."
      }
    },
    "version": 1
  }
}