{
  "contractName": "CimpleDAO",
  "abi": [
    {
      "inputs": [],
      "stateMutability": "nonpayable",
      "type": "constructor"
    },
    {
      "anonymous": false,
      "inputs": [
        {
          "indexed": true,
          "internalType": "address",
          "name": "account",
          "type": "address"
        },
        {
          "indexed": true,
          "internalType": "address",
          "name": "operator",
          "type": "address"
        },
        {
          "indexed": false,
          "internalType": "bool",
          "name": "approved",
          "type": "bool"
        }
      ],
      "name": "ApprovalForAll",
      "type": "event"
    },
    {
      "anonymous": false,
      "inputs": [
        {
          "indexed": true,
          "internalType": "address",
          "name": "previousOwner",
          "type": "address"
        },
        {
          "indexed": true,
          "internalType": "address",
          "name": "newOwner",
          "type": "address"
        }
      ],
      "name": "OwnershipTransferred",
      "type": "event"
    },
    {
      "anonymous": false,
      "inputs": [
        {
          "indexed": true,
          "internalType": "address",
          "name": "operator",
          "type": "address"
        },
        {
          "indexed": true,
          "internalType": "address",
          "name": "from",
          "type": "address"
        },
        {
          "indexed": true,
          "internalType": "address",
          "name": "to",
          "type": "address"
        },
        {
          "indexed": false,
          "internalType": "uint256[]",
          "name": "ids",
          "type": "uint256[]"
        },
        {
          "indexed": false,
          "internalType": "uint256[]",
          "name": "values",
          "type": "uint256[]"
        }
      ],
      "name": "TransferBatch",
      "type": "event"
    },
    {
      "anonymous": false,
      "inputs": [
        {
          "indexed": true,
          "internalType": "address",
          "name": "operator",
          "type": "address"
        },
        {
          "indexed": true,
          "internalType": "address",
          "name": "from",
          "type": "address"
        },
        {
          "indexed": true,
          "internalType": "address",
          "name": "to",
          "type": "address"
        },
        {
          "indexed": false,
          "internalType": "uint256",
          "name": "id",
          "type": "uint256"
        },
        {
          "indexed": false,
          "internalType": "uint256",
          "name": "value",
          "type": "uint256"
        }
      ],
      "name": "TransferSingle",
      "type": "event"
    },
    {
      "anonymous": false,
      "inputs": [
        {
          "indexed": false,
          "internalType": "string",
          "name": "value",
          "type": "string"
        },
        {
          "indexed": true,
          "internalType": "uint256",
          "name": "id",
          "type": "uint256"
        }
      ],
      "name": "URI",
      "type": "event"
    },
    {
      "inputs": [],
      "name": "CMPG",
      "outputs": [
        {
          "internalType": "uint256",
          "name": "",
          "type": "uint256"
        }
      ],
      "stateMutability": "view",
      "type": "function",
      "constant": true
    },
    {
      "inputs": [],
      "name": "Cimple",
      "outputs": [
        {
          "internalType": "uint256",
          "name": "",
          "type": "uint256"
        }
      ],
      "stateMutability": "view",
      "type": "function",
      "constant": true
    },
    {
      "inputs": [
        {
          "internalType": "address",
          "name": "account",
          "type": "address"
        },
        {
          "internalType": "uint256",
          "name": "id",
          "type": "uint256"
        }
      ],
      "name": "balanceOf",
      "outputs": [
        {
          "internalType": "uint256",
          "name": "",
          "type": "uint256"
        }
      ],
      "stateMutability": "view",
      "type": "function",
      "constant": true
    },
    {
      "inputs": [
        {
          "internalType": "address[]",
          "name": "accounts",
          "type": "address[]"
        },
        {
          "internalType": "uint256[]",
          "name": "ids",
          "type": "uint256[]"
        }
      ],
      "name": "balanceOfBatch",
      "outputs": [
        {
          "internalType": "uint256[]",
          "name": "",
          "type": "uint256[]"
        }
      ],
      "stateMutability": "view",
      "type": "function",
      "constant": true
    },
    {
      "inputs": [
        {
          "internalType": "address",
          "name": "account",
          "type": "address"
        },
        {
          "internalType": "address",
          "name": "operator",
          "type": "address"
        }
      ],
      "name": "isApprovedForAll",
      "outputs": [
        {
          "internalType": "bool",
          "name": "",
          "type": "bool"
        }
      ],
      "stateMutability": "view",
      "type": "function",
      "constant": true
    },
    {
      "inputs": [
        {
          "internalType": "address",
          "name": "",
          "type": "address"
        }
      ],
      "name": "mintRoleList",
      "outputs": [
        {
          "internalType": "bool",
          "name": "",
          "type": "bool"
        }
      ],
      "stateMutability": "view",
      "type": "function",
      "constant": true
    },
    {
      "inputs": [],
      "name": "owner",
      "outputs": [
        {
          "internalType": "address",
          "name": "",
          "type": "address"
        }
      ],
      "stateMutability": "view",
      "type": "function",
      "constant": true
    },
    {
      "inputs": [
        {
          "internalType": "address",
          "name": "",
          "type": "address"
        }
      ],
      "name": "registeredUsers",
      "outputs": [
        {
          "internalType": "bool",
          "name": "",
          "type": "bool"
        }
      ],
      "stateMutability": "view",
      "type": "function",
      "constant": true
    },
    {
      "inputs": [],
      "name": "renounceOwnership",
      "outputs": [],
      "stateMutability": "nonpayable",
      "type": "function"
    },
    {
      "inputs": [
        {
          "internalType": "address",
          "name": "from",
          "type": "address"
        },
        {
          "internalType": "address",
          "name": "to",
          "type": "address"
        },
        {
          "internalType": "uint256[]",
          "name": "ids",
          "type": "uint256[]"
        },
        {
          "internalType": "uint256[]",
          "name": "amounts",
          "type": "uint256[]"
        },
        {
          "internalType": "bytes",
          "name": "data",
          "type": "bytes"
        }
      ],
      "name": "safeBatchTransferFrom",
      "outputs": [],
      "stateMutability": "nonpayable",
      "type": "function"
    },
    {
      "inputs": [
        {
          "internalType": "address",
          "name": "from",
          "type": "address"
        },
        {
          "internalType": "address",
          "name": "to",
          "type": "address"
        },
        {
          "internalType": "uint256",
          "name": "id",
          "type": "uint256"
        },
        {
          "internalType": "uint256",
          "name": "amount",
          "type": "uint256"
        },
        {
          "internalType": "bytes",
          "name": "data",
          "type": "bytes"
        }
      ],
      "name": "safeTransferFrom",
      "outputs": [],
      "stateMutability": "nonpayable",
      "type": "function"
    },
    {
      "inputs": [
        {
          "internalType": "address",
          "name": "operator",
          "type": "address"
        },
        {
          "internalType": "bool",
          "name": "approved",
          "type": "bool"
        }
      ],
      "name": "setApprovalForAll",
      "outputs": [],
      "stateMutability": "nonpayable",
      "type": "function"
    },
    {
      "inputs": [],
      "name": "stCimple",
      "outputs": [
        {
          "internalType": "uint256",
          "name": "",
          "type": "uint256"
        }
      ],
      "stateMutability": "view",
      "type": "function",
      "constant": true
    },
    {
      "inputs": [
        {
          "internalType": "bytes4",
          "name": "interfaceId",
          "type": "bytes4"
        }
      ],
      "name": "supportsInterface",
      "outputs": [
        {
          "internalType": "bool",
          "name": "",
          "type": "bool"
        }
      ],
      "stateMutability": "view",
      "type": "function",
      "constant": true
    },
    {
      "inputs": [
        {
          "internalType": "uint256",
          "name": "",
          "type": "uint256"
        }
      ],
      "name": "tokenBurn",
      "outputs": [
        {
          "internalType": "uint256",
          "name": "",
          "type": "uint256"
        }
      ],
      "stateMutability": "view",
      "type": "function",
      "constant": true
    },
    {
      "inputs": [
        {
          "internalType": "uint256",
          "name": "",
          "type": "uint256"
        }
      ],
      "name": "tokenSupply",
      "outputs": [
        {
          "internalType": "uint256",
          "name": "",
          "type": "uint256"
        }
      ],
      "stateMutability": "view",
      "type": "function",
      "constant": true
    },
    {
      "inputs": [
        {
          "internalType": "uint256",
          "name": "",
          "type": "uint256"
        }
      ],
      "name": "tokenSupplyLimit",
      "outputs": [
        {
          "internalType": "uint256",
          "name": "",
          "type": "uint256"
        }
      ],
      "stateMutability": "view",
      "type": "function",
      "constant": true
    },
    {
      "inputs": [],
      "name": "totalMintRoleList",
      "outputs": [
        {
          "internalType": "uint256",
          "name": "",
          "type": "uint256"
        }
      ],
      "stateMutability": "view",
      "type": "function",
      "constant": true
    },
    {
      "inputs": [
        {
          "internalType": "address",
          "name": "newOwner",
          "type": "address"
        }
      ],
      "name": "transferOwnership",
      "outputs": [],
      "stateMutability": "nonpayable",
      "type": "function"
    },
    {
      "inputs": [
        {
          "internalType": "uint256",
          "name": "",
          "type": "uint256"
        }
      ],
      "name": "uri",
      "outputs": [
        {
          "internalType": "string",
          "name": "",
          "type": "string"
        }
      ],
      "stateMutability": "view",
      "type": "function",
      "constant": true
    },
    {
      "inputs": [
        {
          "internalType": "address[]",
          "name": "addresses",
          "type": "address[]"
        }
      ],
      "name": "multipleAddressesToMintableRoleList",
      "outputs": [],
      "stateMutability": "nonpayable",
      "type": "function"
    },
    {
      "inputs": [
        {
          "internalType": "address",
          "name": "userAddress",
          "type": "address"
        }
      ],
      "name": "singleAddressToMintableRoleList",
      "outputs": [],
      "stateMutability": "nonpayable",
      "type": "function"
    },
    {
      "inputs": [
        {
          "internalType": "address[]",
          "name": "addresses",
          "type": "address[]"
        }
      ],
      "name": "removeAddressesFromMintableRoleList",
      "outputs": [],
      "stateMutability": "nonpayable",
      "type": "function"
    },
    {
      "inputs": [
        {
          "internalType": "address",
          "name": "userAddress",
          "type": "address"
        }
      ],
      "name": "removeAddressFromMintableRoleList",
      "outputs": [],
      "stateMutability": "nonpayable",
      "type": "function"
    },
    {
      "inputs": [
        {
          "internalType": "string",
          "name": "newuri",
          "type": "string"
        }
      ],
      "name": "setURI",
      "outputs": [],
      "stateMutability": "nonpayable",
      "type": "function"
    },
    {
      "inputs": [
        {
          "internalType": "address",
          "name": "account",
          "type": "address"
        },
        {
          "internalType": "uint256",
          "name": "id",
          "type": "uint256"
        },
        {
          "internalType": "uint256",
          "name": "amount",
          "type": "uint256"
        }
      ],
      "name": "mint",
      "outputs": [],
      "stateMutability": "nonpayable",
      "type": "function"
    },
    {
      "inputs": [
        {
          "internalType": "address",
          "name": "account",
          "type": "address"
        },
        {
          "internalType": "uint256",
          "name": "id",
          "type": "uint256"
        }
      ],
      "name": "mintNFT",
      "outputs": [],
      "stateMutability": "nonpayable",
      "type": "function"
    },
    {
      "inputs": [
        {
          "internalType": "address",
          "name": "to",
          "type": "address"
        },
        {
          "internalType": "uint256[]",
          "name": "ids",
          "type": "uint256[]"
        },
        {
          "internalType": "uint256[]",
          "name": "amounts",
          "type": "uint256[]"
        },
        {
          "internalType": "bytes",
          "name": "data",
          "type": "bytes"
        }
      ],
      "name": "mintBatch",
      "outputs": [],
      "stateMutability": "nonpayable",
      "type": "function"
    },
    {
      "inputs": [
        {
          "internalType": "address",
          "name": "to",
          "type": "address"
        },
        {
          "internalType": "uint256[]",
          "name": "ids",
          "type": "uint256[]"
        }
      ],
      "name": "mintBatchNFT",
      "outputs": [],
      "stateMutability": "nonpayable",
      "type": "function"
    },
    {
      "inputs": [
        {
          "internalType": "address",
          "name": "account",
          "type": "address"
        },
        {
          "internalType": "uint256",
          "name": "id",
          "type": "uint256"
        },
        {
          "internalType": "uint256",
          "name": "amount",
          "type": "uint256"
        }
      ],
      "name": "burn",
      "outputs": [],
      "stateMutability": "nonpayable",
      "type": "function"
    },
    {
      "inputs": [
        {
          "internalType": "address",
          "name": "account",
          "type": "address"
        },
        {
          "internalType": "uint256",
          "name": "id",
          "type": "uint256"
        }
      ],
      "name": "burnNFT",
      "outputs": [],
      "stateMutability": "nonpayable",
      "type": "function"
    },
    {
      "inputs": [
        {
          "internalType": "address",
          "name": "from",
          "type": "address"
        },
        {
          "internalType": "uint256[]",
          "name": "ids",
          "type": "uint256[]"
        },
        {
          "internalType": "uint256[]",
          "name": "amounts",
          "type": "uint256[]"
        }
      ],
      "name": "burnBatch",
      "outputs": [],
      "stateMutability": "nonpayable",
      "type": "function"
    },
    {
      "inputs": [
        {
          "internalType": "address",
          "name": "from",
          "type": "address"
        },
        {
          "internalType": "uint256[]",
          "name": "ids",
          "type": "uint256[]"
        }
      ],
      "name": "burnBatchNFT",
      "outputs": [],
      "stateMutability": "nonpayable",
      "type": "function"
    },
    {
      "inputs": [
        {
          "internalType": "uint256",
          "name": "_currentTimeStamp",
          "type": "uint256"
        }
      ],
      "name": "calculateCimpleIR",
      "outputs": [
        {
          "internalType": "uint256",
          "name": "",
          "type": "uint256"
        },
        {
          "internalType": "uint256",
          "name": "",
          "type": "uint256"
        },
        {
          "internalType": "uint256",
          "name": "",
          "type": "uint256"
        }
      ],
      "stateMutability": "view",
      "type": "function",
      "constant": true
    },
    {
      "inputs": [
        {
          "internalType": "address",
          "name": "userAddress",
          "type": "address"
        }
      ],
      "name": "getUserInfo",
      "outputs": [
        {
          "components": [
            {
              "internalType": "uint256",
              "name": "cimpleValue",
              "type": "uint256"
            },
            {
              "internalType": "uint256",
              "name": "stCimpleValue",
              "type": "uint256"
            },
            {
              "internalType": "uint256",
              "name": "CMPGValue",
              "type": "uint256"
            },
            {
              "internalType": "uint256",
              "name": "referralID",
              "type": "uint256"
            },
            {
              "internalType": "uint256",
              "name": "referredBy",
              "type": "uint256"
            }
          ],
          "internalType": "struct CimpleDAO.UserDetail",
          "name": "tempUserInfo",
          "type": "tuple"
        }
      ],
      "stateMutability": "view",
      "type": "function",
      "constant": true
    }
  ],
  "bytecode": "0x60806040523480156200001157600080fd5b50604051806020016040528060008152506200003a6301ffc9a760e01b6200014b60201b60201c565b6200004b816200025460201b60201c565b6200006363d9b67a2660e01b6200014b60201b60201c565b6200007b630e89341c60e01b6200014b60201b60201c565b5060006200008e6200027060201b60201c565b905080600460006101000a81548173ffffffffffffffffffffffffffffffffffffffff021916908373ffffffffffffffffffffffffffffffffffffffff1602179055508073ffffffffffffffffffffffffffffffffffffffff16600073ffffffffffffffffffffffffffffffffffffffff167f8be0079c531659141344cd1fd0a4f28419497f9722a3daafe3b4186f6b6457e060405160405180910390a3504260098190555062000145336200027860201b60201c565b62000646565b63ffffffff60e01b817bffffffffffffffffffffffffffffffffffffffffffffffffffffffff19161415620001e8576040517f08c379a000000000000000000000000000000000000000000000000000000000815260040180806020018281038252601c8152602001807f4552433136353a20696e76616c696420696e746572666163652069640000000081525060200191505060405180910390fd5b6001600080837bffffffffffffffffffffffffffffffffffffffffffffffffffffffff19167bffffffffffffffffffffffffffffffffffffffffffffffffffffffff1916815260200190815260200160002060006101000a81548160ff02191690831515021790555050565b80600390805190602001906200026c92919062000590565b5050565b600033905090565b600b60008273ffffffffffffffffffffffffffffffffffffffff1673ffffffffffffffffffffffffffffffffffffffff16815260200190815260200160002060009054906101000a900460ff161562000366576000600e60008373ffffffffffffffffffffffffffffffffffffffff1673ffffffffffffffffffffffffffffffffffffffff168152602001908152602001600020905062000321826000620004ae60201b60201c565b81600001819055506200033c826001620004ae60201b60201c565b816001018190555062000357826002620004ae60201b60201c565b816002018190555050620004ab565b6001600b60008373ffffffffffffffffffffffffffffffffffffffff1673ffffffffffffffffffffffffffffffffffffffff16815260200190815260200160002060006101000a81548160ff021916908315150217905550600d6000815480929190600101919050555060006040518060a00160405280620003f0846000620004ae60201b60201c565b815260200162000408846001620004ae60201b60201c565b815260200162000420846002620004ae60201b60201c565b8152602001600d5481526020016000815250905080600e60008473ffffffffffffffffffffffffffffffffffffffff1673ffffffffffffffffffffffffffffffffffffffff1681526020019081526020016000206000820151816000015560208201518160010155604082015181600201556060820151816003015560808201518160040155905050505b50565b60008073ffffffffffffffffffffffffffffffffffffffff168373ffffffffffffffffffffffffffffffffffffffff16141562000537576040517f08c379a000000000000000000000000000000000000000000000000000000000815260040180806020018281038252602b81526020018062005e93602b913960400191505060405180910390fd5b6001600083815260200190815260200160002060008473ffffffffffffffffffffffffffffffffffffffff1673ffffffffffffffffffffffffffffffffffffffff16815260200190815260200160002054905092915050565b828054600181600116156101000203166002900490600052602060002090601f016020900481019282620005c8576000855562000614565b82601f10620005e357805160ff191683800117855562000614565b8280016001018555821562000614579182015b8281111562000613578251825591602001919060010190620005f6565b5b50905062000623919062000627565b5090565b5b808211156200064257600081600090555060010162000628565b5090565b61583d80620006566000396000f3fe608060405234801561001057600080fd5b50600436106102105760003560e01c80636386c1c711610125578063c876321f116100ad578063f217c9aa1161007c578063f217c9aa14610645578063f242432a14610661578063f2fde38b1461067d578063f37eeedc14610699578063f5298aca146106b757610210565b8063c876321f146105a9578063ddfc193d146105db578063df15d76f146105f9578063e985e9c51461061557610210565b80638da5cb5b116100f45780638da5cb5b14610505578063939031b514610523578063a22cb46514610541578063a93bbad51461055d578063b367ebed1461058d57610210565b80636386c1c714610493578063679cef4d146104c35780636b20c454146104df578063715018a6146104fb57610210565b806325eb49f1116101a857806339451a881161017757806339451a88146103dd5780633c168eab1461040d57806347fcf018146104295780634e1273f4146104455780635a0038611461047557610210565b806325eb49f1146103455780632693ebf21461036157806328fd70ec146103915780632eb2c2d6146103c157610210565b80630e50cee5116101e45780630e50cee5146102ad5780630e89341c146102dd578063156e29f61461030d5780631f7fdffa1461032957610210565b8062fdd58e1461021557806301ffc9a71461024557806302fe53051461027557806303b11d4514610291575b600080fd5b61022f600480360381019061022a9190614c80565b6106d3565b60405161023c9190615225565b60405180910390f35b61025f600480360381019061025a9190614db8565b6107b3565b60405161026c919061514d565b60405180910390f35b61028f600480360381019061028a9190614de1565b61081a565b005b6102ab60048036038101906102a69190614ac6565b6108f0565b005b6102c760048036038101906102c29190614913565b6109f5565b6040516102d4919061514d565b60405180910390f35b6102f760048036038101906102f29190614e22565b610a15565b6040516103049190615168565b60405180910390f35b61032760048036038101906103229190614cbc565b610ab9565b005b610343600480360381019061033e9190614b99565b610c0e565b005b61035f600480360381019061035a9190614ac6565b610d83565b005b61037b60048036038101906103769190614e22565b610e88565b6040516103889190615225565b60405180910390f35b6103ab60048036038101906103a69190614e22565b610ea0565b6040516103b89190615225565b60405180910390f35b6103db60048036038101906103d69190614978565b610eb8565b005b6103f760048036038101906103f29190614e22565b611343565b6040516104049190615225565b60405180910390f35b61042760048036038101906104229190614c80565b61135b565b005b610443600480360381019061043e9190614c80565b611503565b005b61045f600480360381019061045a9190614d4c565b611697565b60405161046c919061512b565b60405180910390f35b61047d611889565b60405161048a9190615225565b60405180910390f35b6104ad60048036038101906104a89190614913565b61188f565b6040516104ba919061520a565b60405180910390f35b6104dd60048036038101906104d89190614913565b6119a6565b005b6104f960048036038101906104f49190614b1a565b611b56565b005b610503611d3f565b005b61050d611eca565b60405161051a9190615110565b60405180910390f35b61052b611ef4565b6040516105389190615225565b60405180910390f35b61055b60048036038101906105569190614c44565b611ef9565b005b61057760048036038101906105729190614913565b612092565b604051610584919061514d565b60405180910390f35b6105a760048036038101906105a29190614913565b6120b2565b005b6105c360048036038101906105be9190614e22565b61225a565b6040516105d293929190615240565b60405180910390f35b6105e36124ca565b6040516105f09190615225565b60405180910390f35b610613600480360381019061060e9190614d0b565b6124cf565b005b61062f600480360381019061062a919061493c565b6125d2565b60405161063c919061514d565b60405180910390f35b61065f600480360381019061065a9190614d0b565b612666565b005b61067b60048036038101906106769190614a37565b612769565b005b61069760048036038101906106929190614913565b612ade565b005b6106a1612cee565b6040516106ae9190615225565b60405180910390f35b6106d160048036038101906106cc9190614cbc565b612cf3565b005b60008073ffffffffffffffffffffffffffffffffffffffff168373ffffffffffffffffffffffffffffffffffffffff16141561075a576040517f08c379a000000000000000000000000000000000000000000000000000000000815260040180806020018281038252602b8152602001806155fa602b913960400191505060405180910390fd5b6001600083815260200190815260200160002060008473ffffffffffffffffffffffffffffffffffffffff1673ffffffffffffffffffffffffffffffffffffffff16815260200190815260200160002054905092915050565b6000806000837bffffffffffffffffffffffffffffffffffffffffffffffffffffffff19167bffffffffffffffffffffffffffffffffffffffffffffffffffffffff1916815260200190815260200160002060009054906101000a900460ff169050919050565b610822612e4f565b73ffffffffffffffffffffffffffffffffffffffff16600460009054906101000a900473ffffffffffffffffffffffffffffffffffffffff1673ffffffffffffffffffffffffffffffffffffffff16146108e4576040517f08c379a00000000000000000000000000000000000000000000000000000000081526004018080602001828103825260208152602001807f4f776e61626c653a2063616c6c6572206973206e6f7420746865206f776e657281525060200191505060405180910390fd5b6108ed81612e57565b50565b6108f8612e4f565b73ffffffffffffffffffffffffffffffffffffffff16600460009054906101000a900473ffffffffffffffffffffffffffffffffffffffff1673ffffffffffffffffffffffffffffffffffffffff16146109ba576040517f08c379a00000000000000000000000000000000000000000000000000000000081526004018080602001828103825260208152602001807f4f776e61626c653a2063616c6c6572206973206e6f7420746865206f776e657281525060200191505060405180910390fd5b60005b81518110156109f0576109e3838383815181106109d657fe5b6020026020010151611503565b80806001019150506109bd565b505050565b600b6020528060005260406000206000915054906101000a900460ff1681565b606060038054600181600116156101000203166002900480601f016020809104026020016040519081016040528092919081815260200182805460018160011615610100020316600290048015610aad5780601f10610a8257610100808354040283529160200191610aad565b820191906000526020600020905b815481529060010190602001808311610a9057829003601f168201915b50505050509050919050565b600a60003373ffffffffffffffffffffffffffffffffffffffff1673ffffffffffffffffffffffffffffffffffffffff16815260200190815260200160002060009054906101000a900460ff1680610b435750610b14611eca565b73ffffffffffffffffffffffffffffffffffffffff163373ffffffffffffffffffffffffffffffffffffffff16145b610b82576040517f08c379a0000000000000000000000000000000000000000000000000000000008152600401610b79906151aa565b60405180910390fd5b610bc38383836040518060400160405280600581526020017f3078303030000000000000000000000000000000000000000000000000000000815250612e71565b610be981600560008581526020019081526020016000205461307490919063ffffffff16565b6005600084815260200190815260200160002081905550610c09836130fc565b505050565b610c16612e4f565b73ffffffffffffffffffffffffffffffffffffffff16600460009054906101000a900473ffffffffffffffffffffffffffffffffffffffff1673ffffffffffffffffffffffffffffffffffffffff1614610cd8576040517f08c379a00000000000000000000000000000000000000000000000000000000081526004018080602001828103825260208152602001807f4f776e61626c653a2063616c6c6572206973206e6f7420746865206f776e657281525060200191505060405180910390fd5b610ce484848484613300565b60005b8351811015610d7357610d3c838281518110610cff57fe5b602002602001015160056000878581518110610d1757fe5b602002602001015181526020019081526020016000205461307490919063ffffffff16565b60056000868481518110610d4c57fe5b60200260200101518152602001908152602001600020819055508080600101915050610ce7565b50610d7d846130fc565b50505050565b610d8b612e4f565b73ffffffffffffffffffffffffffffffffffffffff16600460009054906101000a900473ffffffffffffffffffffffffffffffffffffffff1673ffffffffffffffffffffffffffffffffffffffff1614610e4d576040517f08c379a00000000000000000000000000000000000000000000000000000000081526004018080602001828103825260208152602001807f4f776e61626c653a2063616c6c6572206973206e6f7420746865206f776e657281525060200191505060405180910390fd5b60005b8151811015610e8357610e7683838381518110610e6957fe5b602002602001015161135b565b8080600101915050610e50565b505050565b60056020528060005260406000206000915090505481565b60076020528060005260406000206000915090505481565b8151835114610f12576040517f08c379a00000000000000000000000000000000000000000000000000000000081526004018080602001828103825260288152602001806157bf6028913960400191505060405180910390fd5b600073ffffffffffffffffffffffffffffffffffffffff168473ffffffffffffffffffffffffffffffffffffffff161415610f98576040517f08c379a00000000000000000000000000000000000000000000000000000000081526004018080602001828103825260258152602001806156c96025913960400191505060405180910390fd5b610fa0612e4f565b73ffffffffffffffffffffffffffffffffffffffff168573ffffffffffffffffffffffffffffffffffffffff161480610fe65750610fe585610fe0612e4f565b6125d2565b5b61103b576040517f08c379a00000000000000000000000000000000000000000000000000000000081526004018080602001828103825260328152602001806156ee6032913960400191505060405180910390fd5b6000611045612e4f565b9050611055818787878787613622565b60005b845181101561122657600085828151811061106f57fe5b60200260200101519050600085838151811061108757fe5b6020026020010151905061110e816040518060600160405280602a8152602001615743602a91396001600086815260200190815260200160002060008d73ffffffffffffffffffffffffffffffffffffffff1673ffffffffffffffffffffffffffffffffffffffff1681526020019081526020016000205461362a9092919063ffffffff16565b6001600084815260200190815260200160002060008b73ffffffffffffffffffffffffffffffffffffffff1673ffffffffffffffffffffffffffffffffffffffff168152602001908152602001600020819055506111c5816001600085815260200190815260200160002060008b73ffffffffffffffffffffffffffffffffffffffff1673ffffffffffffffffffffffffffffffffffffffff1681526020019081526020016000205461307490919063ffffffff16565b6001600084815260200190815260200160002060008a73ffffffffffffffffffffffffffffffffffffffff1673ffffffffffffffffffffffffffffffffffffffff168152602001908152602001600020819055505050806001019050611058565b508473ffffffffffffffffffffffffffffffffffffffff168673ffffffffffffffffffffffffffffffffffffffff168273ffffffffffffffffffffffffffffffffffffffff167f4a39dc06d4c0dbc64b70af90fd698a233a518aa5d07e595d983b8c0526c8f7fb8787604051808060200180602001838103835285818151815260200191508051906020019060200280838360005b838110156112d65780820151818401526020810190506112bb565b50505050905001838103825284818151815260200191508051906020019060200280838360005b838110156113185780820151818401526020810190506112fd565b5050505090500194505050505060405180910390a461133b8187878787876136ea565b505050505050565b60066020528060005260406000206000915090505481565b600a60003373ffffffffffffffffffffffffffffffffffffffff1673ffffffffffffffffffffffffffffffffffffffff16815260200190815260200160002060009054906101000a900460ff16806113e557506113b6611eca565b73ffffffffffffffffffffffffffffffffffffffff163373ffffffffffffffffffffffffffffffffffffffff16145b611424576040517f08c379a000000000000000000000000000000000000000000000000000000000815260040161141b906151aa565b60405180910390fd5b611466828260016040518060400160405280600581526020017f3078303030000000000000000000000000000000000000000000000000000000815250612e71565b816008600083815260200190815260200160002060006101000a81548173ffffffffffffffffffffffffffffffffffffffff021916908373ffffffffffffffffffffffffffffffffffffffff1602179055506114df6001600560008481526020019081526020016000205461307490919063ffffffff16565b60056000838152602001908152602001600020819055506114ff826130fc565b5050565b600a60003373ffffffffffffffffffffffffffffffffffffffff1673ffffffffffffffffffffffffffffffffffffffff16815260200190815260200160002060009054906101000a900460ff168061158d575061155e611eca565b73ffffffffffffffffffffffffffffffffffffffff163373ffffffffffffffffffffffffffffffffffffffff16145b6115cc576040517f08c379a00000000000000000000000000000000000000000000000000000000081526004016115c3906151aa565b60405180910390fd5b6115d882826001613a79565b6115ff60016005600084815260200190815260200160002054613c9590919063ffffffff16565b600560008381526020019081526020016000208190555061163d6001600660008481526020019081526020016000205461307490919063ffffffff16565b60066000838152602001908152602001600020819055506008600082815260200190815260200160002060006101000a81549073ffffffffffffffffffffffffffffffffffffffff0219169055611693826130fc565b5050565b606081518351146116f3576040517f08c379a00000000000000000000000000000000000000000000000000000000081526004018080602001828103825260298152602001806157966029913960400191505060405180910390fd5b6000835167ffffffffffffffff8111801561170d57600080fd5b5060405190808252806020026020018201604052801561173c5781602001602082028036833780820191505090505b50905060005b845181101561187e57600073ffffffffffffffffffffffffffffffffffffffff1685828151811061176f57fe5b602002602001015173ffffffffffffffffffffffffffffffffffffffff1614156117e4576040517f08c379a00000000000000000000000000000000000000000000000000000000081526004018080602001828103825260318152602001806156256031913960400191505060405180910390fd5b600160008583815181106117f457fe5b60200260200101518152602001908152602001600020600086838151811061181857fe5b602002602001015173ffffffffffffffffffffffffffffffffffffffff1673ffffffffffffffffffffffffffffffffffffffff1681526020019081526020016000205482828151811061186757fe5b602002602001018181525050806001019050611742565b508091505092915050565b600c5481565b6118976145c6565b600b60008373ffffffffffffffffffffffffffffffffffffffff1673ffffffffffffffffffffffffffffffffffffffff16815260200190815260200160002060009054906101000a900460ff16611923576040517f08c379a000000000000000000000000000000000000000000000000000000000815260040161191a906151ea565b60405180910390fd5b600e60008373ffffffffffffffffffffffffffffffffffffffff1673ffffffffffffffffffffffffffffffffffffffff1681526020019081526020016000206040518060a0016040529081600082015481526020016001820154815260200160028201548152602001600382015481526020016004820154815250509050919050565b6119ae612e4f565b73ffffffffffffffffffffffffffffffffffffffff16600460009054906101000a900473ffffffffffffffffffffffffffffffffffffffff1673ffffffffffffffffffffffffffffffffffffffff1614611a70576040517f08c379a00000000000000000000000000000000000000000000000000000000081526004018080602001828103825260208152602001807f4f776e61626c653a2063616c6c6572206973206e6f7420746865206f776e657281525060200191505060405180910390fd5b600073ffffffffffffffffffffffffffffffffffffffff168173ffffffffffffffffffffffffffffffffffffffff161415611ae0576040517f08c379a0000000000000000000000000000000000000000000000000000000008152600401611ad7906151ca565b60405180910390fd5b6001600a60008373ffffffffffffffffffffffffffffffffffffffff1673ffffffffffffffffffffffffffffffffffffffff16815260200190815260200160002060006101000a81548160ff021916908315150217905550600c60008154809291906001019190505550611b53816130fc565b50565b611b5e612e4f565b73ffffffffffffffffffffffffffffffffffffffff16600460009054906101000a900473ffffffffffffffffffffffffffffffffffffffff1673ffffffffffffffffffffffffffffffffffffffff1614611c20576040517f08c379a00000000000000000000000000000000000000000000000000000000081526004018080602001828103825260208152602001807f4f776e61626c653a2063616c6c6572206973206e6f7420746865206f776e657281525060200191505060405180910390fd5b611c2b838383613cdf565b60005b8251811015611d3057611c83828281518110611c4657fe5b602002602001015160056000868581518110611c5e57fe5b6020026020010151815260200190815260200160002054613c9590919063ffffffff16565b60056000858481518110611c9357fe5b6020026020010151815260200190815260200160002081905550611cf9828281518110611cbc57fe5b602002602001015160066000868581518110611cd457fe5b602002602001015181526020019081526020016000205461307490919063ffffffff16565b60066000858481518110611d0957fe5b60200260200101518152602001908152602001600020819055508080600101915050611c2e565b50611d3a836130fc565b505050565b611d47612e4f565b73ffffffffffffffffffffffffffffffffffffffff16600460009054906101000a900473ffffffffffffffffffffffffffffffffffffffff1673ffffffffffffffffffffffffffffffffffffffff1614611e09576040517f08c379a00000000000000000000000000000000000000000000000000000000081526004018080602001828103825260208152602001807f4f776e61626c653a2063616c6c6572206973206e6f7420746865206f776e657281525060200191505060405180910390fd5b600073ffffffffffffffffffffffffffffffffffffffff16600460009054906101000a900473ffffffffffffffffffffffffffffffffffffffff1673ffffffffffffffffffffffffffffffffffffffff167f8be0079c531659141344cd1fd0a4f28419497f9722a3daafe3b4186f6b6457e060405160405180910390a36000600460006101000a81548173ffffffffffffffffffffffffffffffffffffffff021916908373ffffffffffffffffffffffffffffffffffffffff160217905550565b6000600460009054906101000a900473ffffffffffffffffffffffffffffffffffffffff16905090565b600281565b8173ffffffffffffffffffffffffffffffffffffffff16611f18612e4f565b73ffffffffffffffffffffffffffffffffffffffff161415611f85576040517f08c379a000000000000000000000000000000000000000000000000000000000815260040180806020018281038252602981526020018061576d6029913960400191505060405180910390fd5b8060026000611f92612e4f565b73ffffffffffffffffffffffffffffffffffffffff1673ffffffffffffffffffffffffffffffffffffffff16815260200190815260200160002060008473ffffffffffffffffffffffffffffffffffffffff1673ffffffffffffffffffffffffffffffffffffffff16815260200190815260200160002060006101000a81548160ff0219169083151502179055508173ffffffffffffffffffffffffffffffffffffffff1661203f612e4f565b73ffffffffffffffffffffffffffffffffffffffff167f17307eab39ab6107e8899845ad3d59bd9653f200f220920489ca2b5937696c318360405180821515815260200191505060405180910390a35050565b600a6020528060005260406000206000915054906101000a900460ff1681565b6120ba612e4f565b73ffffffffffffffffffffffffffffffffffffffff16600460009054906101000a900473ffffffffffffffffffffffffffffffffffffffff1673ffffffffffffffffffffffffffffffffffffffff161461217c576040517f08c379a00000000000000000000000000000000000000000000000000000000081526004018080602001828103825260208152602001807f4f776e61626c653a2063616c6c6572206973206e6f7420746865206f776e657281525060200191505060405180910390fd5b600073ffffffffffffffffffffffffffffffffffffffff168173ffffffffffffffffffffffffffffffffffffffff1614156121ec576040517f08c379a00000000000000000000000000000000000000000000000000000000081526004016121e3906151ca565b60405180910390fd5b6000600a60008373ffffffffffffffffffffffffffffffffffffffff1673ffffffffffffffffffffffffffffffffffffffff16815260200190815260200160002060006101000a81548160ff021916908315150217905550600c600081548092919060019003919050555050565b600080600083600954106122a3576040517f08c379a000000000000000000000000000000000000000000000000000000000815260040161229a9061518a565b60405180910390fd5b600084905060006122bf60095483613c9590919063ffffffff16565b905060006122ed61016d6122df620151808561401a90919063ffffffff16565b61406490919063ffffffff16565b905060006123086301e143208461401a90919063ffffffff16565b9050600064174876e8009050600064e8d4a5100090506123266145f5565b61232e6145f5565b64174876e800826000601f811061234157fe5b60200201818152505064e8d4a51000816000601f811061235d57fe5b602002018181525050601e85111561237457601e94505b6001851015612395578185601f811061238957fe5b60200201519350612477565b6000600190505b858111612420576000606460af8560018503601f81106123b857fe5b602002015102816123c557fe5b0490506000600190505b8281116123fb576402540be400640248c581138302816123eb57fe5b04915080806001019150506123cf565b50808483601f811061240957fe5b60200201818152505050808060010191505061239c565b508185601f811061242d57fe5b6020020151935061016d8260018703601f811061244657fe5b6020020151028160018703601f811061245b57fe5b6020020151018186601f811061246d57fe5b6020020181815250505b600086850290508186601f811061248a57fe5b602002015193508084019350670de0b6b3a764000084106124b157670de0b6b3a764000093505b8385889b509b509b505050505050505050509193909250565b600081565b6124d7612e4f565b73ffffffffffffffffffffffffffffffffffffffff16600460009054906101000a900473ffffffffffffffffffffffffffffffffffffffff1673ffffffffffffffffffffffffffffffffffffffff1614612599576040517f08c379a00000000000000000000000000000000000000000000000000000000081526004018080602001828103825260208152602001807f4f776e61626c653a2063616c6c6572206973206e6f7420746865206f776e657281525060200191505060405180910390fd5b60005b81518110156125ce576125c18282815181106125b457fe5b60200260200101516119a6565b808060010191505061259c565b5050565b6000600260008473ffffffffffffffffffffffffffffffffffffffff1673ffffffffffffffffffffffffffffffffffffffff16815260200190815260200160002060008373ffffffffffffffffffffffffffffffffffffffff1673ffffffffffffffffffffffffffffffffffffffff16815260200190815260200160002060009054906101000a900460ff16905092915050565b61266e612e4f565b73ffffffffffffffffffffffffffffffffffffffff16600460009054906101000a900473ffffffffffffffffffffffffffffffffffffffff1673ffffffffffffffffffffffffffffffffffffffff1614612730576040517f08c379a00000000000000000000000000000000000000000000000000000000081526004018080602001828103825260208152602001807f4f776e61626c653a2063616c6c6572206973206e6f7420746865206f776e657281525060200191505060405180910390fd5b60005b81518110156127655761275882828151811061274b57fe5b60200260200101516120b2565b8080600101915050612733565b5050565b600073ffffffffffffffffffffffffffffffffffffffff168473ffffffffffffffffffffffffffffffffffffffff1614156127ef576040517f08c379a00000000000000000000000000000000000000000000000000000000081526004018080602001828103825260258152602001806156c96025913960400191505060405180910390fd5b6127f7612e4f565b73ffffffffffffffffffffffffffffffffffffffff168573ffffffffffffffffffffffffffffffffffffffff16148061283d575061283c85612837612e4f565b6125d2565b5b612892576040517f08c379a00000000000000000000000000000000000000000000000000000000081526004018080602001828103825260298152602001806156a06029913960400191505060405180910390fd5b600061289c612e4f565b90506128bc8187876128ad886140ae565b6128b6886140ae565b87613622565b612939836040518060600160405280602a8152602001615743602a91396001600088815260200190815260200160002060008a73ffffffffffffffffffffffffffffffffffffffff1673ffffffffffffffffffffffffffffffffffffffff1681526020019081526020016000205461362a9092919063ffffffff16565b6001600086815260200190815260200160002060008873ffffffffffffffffffffffffffffffffffffffff1673ffffffffffffffffffffffffffffffffffffffff168152602001908152602001600020819055506129f0836001600087815260200190815260200160002060008873ffffffffffffffffffffffffffffffffffffffff1673ffffffffffffffffffffffffffffffffffffffff1681526020019081526020016000205461307490919063ffffffff16565b6001600086815260200190815260200160002060008773ffffffffffffffffffffffffffffffffffffffff1673ffffffffffffffffffffffffffffffffffffffff168152602001908152602001600020819055508473ffffffffffffffffffffffffffffffffffffffff168673ffffffffffffffffffffffffffffffffffffffff168273ffffffffffffffffffffffffffffffffffffffff167fc3d58168c5ae7397731d063d5bbf3d657854427343f4c083240f7aacaa2d0f628787604051808381526020018281526020019250505060405180910390a4612ad681878787878761411f565b505050505050565b612ae6612e4f565b73ffffffffffffffffffffffffffffffffffffffff16600460009054906101000a900473ffffffffffffffffffffffffffffffffffffffff1673ffffffffffffffffffffffffffffffffffffffff1614612ba8576040517f08c379a00000000000000000000000000000000000000000000000000000000081526004018080602001828103825260208152602001807f4f776e61626c653a2063616c6c6572206973206e6f7420746865206f776e657281525060200191505060405180910390fd5b600073ffffffffffffffffffffffffffffffffffffffff168173ffffffffffffffffffffffffffffffffffffffff161415612c2e576040517f08c379a00000000000000000000000000000000000000000000000000000000081526004018080602001828103825260268152602001806156566026913960400191505060405180910390fd5b8073ffffffffffffffffffffffffffffffffffffffff16600460009054906101000a900473ffffffffffffffffffffffffffffffffffffffff1673ffffffffffffffffffffffffffffffffffffffff167f8be0079c531659141344cd1fd0a4f28419497f9722a3daafe3b4186f6b6457e060405160405180910390a380600460006101000a81548173ffffffffffffffffffffffffffffffffffffffff021916908373ffffffffffffffffffffffffffffffffffffffff16021790555050565b600181565b600a60003373ffffffffffffffffffffffffffffffffffffffff1673ffffffffffffffffffffffffffffffffffffffff16815260200190815260200160002060009054906101000a900460ff1680612d7d5750612d4e611eca565b73ffffffffffffffffffffffffffffffffffffffff163373ffffffffffffffffffffffffffffffffffffffff16145b612dbc576040517f08c379a0000000000000000000000000000000000000000000000000000000008152600401612db3906151aa565b60405180910390fd5b612dc7838383613a79565b612ded816005600085815260200190815260200160002054613c9590919063ffffffff16565b6005600084815260200190815260200160002081905550612e2a81600660008581526020019081526020016000205461307490919063ffffffff16565b6006600084815260200190815260200160002081905550612e4a836130fc565b505050565b600033905090565b8060039080519060200190612e6d929190614618565b5050565b600073ffffffffffffffffffffffffffffffffffffffff168473ffffffffffffffffffffffffffffffffffffffff161415612ef7576040517f08c379a00000000000000000000000000000000000000000000000000000000081526004018080602001828103825260218152602001806157e76021913960400191505060405180910390fd5b6000612f01612e4f565b9050612f2281600087612f13886140ae565b612f1c886140ae565b87613622565b612f85836001600087815260200190815260200160002060008873ffffffffffffffffffffffffffffffffffffffff1673ffffffffffffffffffffffffffffffffffffffff1681526020019081526020016000205461307490919063ffffffff16565b6001600086815260200190815260200160002060008773ffffffffffffffffffffffffffffffffffffffff1673ffffffffffffffffffffffffffffffffffffffff168152602001908152602001600020819055508473ffffffffffffffffffffffffffffffffffffffff16600073ffffffffffffffffffffffffffffffffffffffff168273ffffffffffffffffffffffffffffffffffffffff167fc3d58168c5ae7397731d063d5bbf3d657854427343f4c083240f7aacaa2d0f628787604051808381526020018281526020019250505060405180910390a461306d8160008787878761411f565b5050505050565b6000808284019050838110156130f2576040517f08c379a000000000000000000000000000000000000000000000000000000000815260040180806020018281038252601b8152602001807f536166654d6174683a206164646974696f6e206f766572666c6f77000000000081525060200191505060405180910390fd5b8091505092915050565b600b60008273ffffffffffffffffffffffffffffffffffffffff1673ffffffffffffffffffffffffffffffffffffffff16815260200190815260200160002060009054906101000a900460ff16156131d0576000600e60008373ffffffffffffffffffffffffffffffffffffffff1673ffffffffffffffffffffffffffffffffffffffff168152602001908152602001600020905061319c8260006106d3565b81600001819055506131af8260016106d3565b81600101819055506131c28260026106d3565b8160020181905550506132fd565b6001600b60008373ffffffffffffffffffffffffffffffffffffffff1673ffffffffffffffffffffffffffffffffffffffff16815260200190815260200160002060006101000a81548160ff021916908315150217905550600d6000815480929190600101919050555060006040518060a001604052806132528460006106d3565b81526020016132628460016106d3565b81526020016132728460026106d3565b8152602001600d5481526020016000815250905080600e60008473ffffffffffffffffffffffffffffffffffffffff1673ffffffffffffffffffffffffffffffffffffffff1681526020019081526020016000206000820151816000015560208201518160010155604082015181600201556060820151816003015560808201518160040155905050505b50565b600073ffffffffffffffffffffffffffffffffffffffff168473ffffffffffffffffffffffffffffffffffffffff161415613386576040517f08c379a00000000000000000000000000000000000000000000000000000000081526004018080602001828103825260218152602001806157e76021913960400191505060405180910390fd5b81518351146133e0576040517f08c379a00000000000000000000000000000000000000000000000000000000081526004018080602001828103825260288152602001806157bf6028913960400191505060405180910390fd5b60006133ea612e4f565b90506133fb81600087878787613622565b60005b8451811015613504576134906001600087848151811061341a57fe5b6020026020010151815260200190815260200160002060008873ffffffffffffffffffffffffffffffffffffffff1673ffffffffffffffffffffffffffffffffffffffff1681526020019081526020016000205485838151811061347a57fe5b602002602001015161307490919063ffffffff16565b600160008784815181106134a057fe5b6020026020010151815260200190815260200160002060008873ffffffffffffffffffffffffffffffffffffffff1673ffffffffffffffffffffffffffffffffffffffff1681526020019081526020016000208190555080806001019150506133fe565b508473ffffffffffffffffffffffffffffffffffffffff16600073ffffffffffffffffffffffffffffffffffffffff168273ffffffffffffffffffffffffffffffffffffffff167f4a39dc06d4c0dbc64b70af90fd698a233a518aa5d07e595d983b8c0526c8f7fb8787604051808060200180602001838103835285818151815260200191508051906020019060200280838360005b838110156135b557808201518184015260208101905061359a565b50505050905001838103825284818151815260200191508051906020019060200280838360005b838110156135f75780820151818401526020810190506135dc565b5050505090500194505050505060405180910390a461361b816000878787876136ea565b5050505050565b505050505050565b60008383111582906136d7576040517f08c379a00000000000000000000000000000000000000000000000000000000081526004018080602001828103825283818151815260200191508051906020019080838360005b8381101561369c578082015181840152602081019050613681565b50505050905090810190601f1680156136c95780820380516001836020036101000a031916815260200191505b509250505060405180910390fd5b5060008385039050809150509392505050565b6137098473ffffffffffffffffffffffffffffffffffffffff1661442c565b15613a71578373ffffffffffffffffffffffffffffffffffffffff1663bc197c8187878686866040518663ffffffff1660e01b8152600401808673ffffffffffffffffffffffffffffffffffffffff1681526020018573ffffffffffffffffffffffffffffffffffffffff168152602001806020018060200180602001848103845287818151815260200191508051906020019060200280838360005b838110156137c15780820151818401526020810190506137a6565b50505050905001848103835286818151815260200191508051906020019060200280838360005b838110156138035780820151818401526020810190506137e8565b50505050905001848103825285818151815260200191508051906020019080838360005b83811015613842578082015181840152602081019050613827565b50505050905090810190601f16801561386f5780820380516001836020036101000a031916815260200191505b5098505050505050505050602060405180830381600087803b15801561389457600080fd5b505af19250505080156138c857506040513d60208110156138b457600080fd5b810190808051906020019092919050505060015b6139d2576138d461548b565b806138df5750613981565b806040517f08c379a00000000000000000000000000000000000000000000000000000000081526004018080602001828103825283818151815260200191508051906020019080838360005b8381101561394657808201518184015260208101905061392b565b50505050905090810190601f1680156139735780820380516001836020036101000a031916815260200191505b509250505060405180910390fd5b6040517f08c379a000000000000000000000000000000000000000000000000000000000815260040180806020018281038252603481526020018061559e6034913960400191505060405180910390fd5b63bc197c8160e01b7bffffffffffffffffffffffffffffffffffffffffffffffffffffffff1916817bffffffffffffffffffffffffffffffffffffffffffffffffffffffff191614613a6f576040517f08c379a00000000000000000000000000000000000000000000000000000000081526004018080602001828103825260288152602001806155d26028913960400191505060405180910390fd5b505b505050505050565b600073ffffffffffffffffffffffffffffffffffffffff168373ffffffffffffffffffffffffffffffffffffffff161415613aff576040517f08c379a00000000000000000000000000000000000000000000000000000000081526004018080602001828103825260238152602001806157206023913960400191505060405180910390fd5b6000613b09612e4f565b9050613b3981856000613b1b876140ae565b613b24876140ae565b60405180602001604052806000815250613622565b613bb68260405180606001604052806024815260200161567c602491396001600087815260200190815260200160002060008873ffffffffffffffffffffffffffffffffffffffff1673ffffffffffffffffffffffffffffffffffffffff1681526020019081526020016000205461362a9092919063ffffffff16565b6001600085815260200190815260200160002060008673ffffffffffffffffffffffffffffffffffffffff1673ffffffffffffffffffffffffffffffffffffffff16815260200190815260200160002081905550600073ffffffffffffffffffffffffffffffffffffffff168473ffffffffffffffffffffffffffffffffffffffff168273ffffffffffffffffffffffffffffffffffffffff167fc3d58168c5ae7397731d063d5bbf3d657854427343f4c083240f7aacaa2d0f628686604051808381526020018281526020019250505060405180910390a450505050565b6000613cd783836040518060400160405280601e81526020017f536166654d6174683a207375627472616374696f6e206f766572666c6f77000081525061362a565b905092915050565b600073ffffffffffffffffffffffffffffffffffffffff168373ffffffffffffffffffffffffffffffffffffffff161415613d65576040517f08c379a00000000000000000000000000000000000000000000000000000000081526004018080602001828103825260238152602001806157206023913960400191505060405180910390fd5b8051825114613dbf576040517f08c379a00000000000000000000000000000000000000000000000000000000081526004018080602001828103825260288152602001806157bf6028913960400191505060405180910390fd5b6000613dc9612e4f565b9050613de981856000868660405180602001604052806000815250613622565b60005b8351811015613f0c57613e98838281518110613e0457fe5b602002602001015160405180606001604052806024815260200161567c6024913960016000888681518110613e3557fe5b6020026020010151815260200190815260200160002060008973ffffffffffffffffffffffffffffffffffffffff1673ffffffffffffffffffffffffffffffffffffffff1681526020019081526020016000205461362a9092919063ffffffff16565b60016000868481518110613ea857fe5b6020026020010151815260200190815260200160002060008773ffffffffffffffffffffffffffffffffffffffff1673ffffffffffffffffffffffffffffffffffffffff168152602001908152602001600020819055508080600101915050613dec565b50600073ffffffffffffffffffffffffffffffffffffffff168473ffffffffffffffffffffffffffffffffffffffff168273ffffffffffffffffffffffffffffffffffffffff167f4a39dc06d4c0dbc64b70af90fd698a233a518aa5d07e595d983b8c0526c8f7fb8686604051808060200180602001838103835285818151815260200191508051906020019060200280838360005b83811015613fbd578082015181840152602081019050613fa2565b50505050905001838103825284818151815260200191508051906020019060200280838360005b83811015613fff578082015181840152602081019050613fe4565b5050505090500194505050505060405180910390a450505050565b600061405c83836040518060400160405280601a81526020017f536166654d6174683a206469766973696f6e206279207a65726f00000000000081525061443f565b905092915050565b60006140a683836040518060400160405280601881526020017f536166654d6174683a206d6f64756c6f206279207a65726f0000000000000000815250614505565b905092915050565b60606000600167ffffffffffffffff811180156140ca57600080fd5b506040519080825280602002602001820160405280156140f95781602001602082028036833780820191505090505b509050828160008151811061410a57fe5b60200260200101818152505080915050919050565b61413e8473ffffffffffffffffffffffffffffffffffffffff1661442c565b15614424578373ffffffffffffffffffffffffffffffffffffffff1663f23a6e6187878686866040518663ffffffff1660e01b8152600401808673ffffffffffffffffffffffffffffffffffffffff1681526020018573ffffffffffffffffffffffffffffffffffffffff16815260200184815260200183815260200180602001828103825283818151815260200191508051906020019080838360005b838110156141f75780820151818401526020810190506141dc565b50505050905090810190601f1680156142245780820380516001836020036101000a031916815260200191505b509650505050505050602060405180830381600087803b15801561424757600080fd5b505af192505050801561427b57506040513d602081101561426757600080fd5b810190808051906020019092919050505060015b6143855761428761548b565b806142925750614334565b806040517f08c379a00000000000000000000000000000000000000000000000000000000081526004018080602001828103825283818151815260200191508051906020019080838360005b838110156142f95780820151818401526020810190506142de565b50505050905090810190601f1680156143265780820380516001836020036101000a031916815260200191505b509250505060405180910390fd5b6040517f08c379a000000000000000000000000000000000000000000000000000000000815260040180806020018281038252603481526020018061559e6034913960400191505060405180910390fd5b63f23a6e6160e01b7bffffffffffffffffffffffffffffffffffffffffffffffffffffffff1916817bffffffffffffffffffffffffffffffffffffffffffffffffffffffff191614614422576040517f08c379a00000000000000000000000000000000000000000000000000000000081526004018080602001828103825260288152602001806155d26028913960400191505060405180910390fd5b505b505050505050565b600080823b905060008111915050919050565b600080831182906144eb576040517f08c379a00000000000000000000000000000000000000000000000000000000081526004018080602001828103825283818151815260200191508051906020019080838360005b838110156144b0578082015181840152602081019050614495565b50505050905090810190601f1680156144dd5780820380516001836020036101000a031916815260200191505b509250505060405180910390fd5b5060008385816144f757fe5b049050809150509392505050565b60008083141582906145b2576040517f08c379a00000000000000000000000000000000000000000000000000000000081526004018080602001828103825283818151815260200191508051906020019080838360005b8381101561457757808201518184015260208101905061455c565b50505050905090810190601f1680156145a45780820380516001836020036101000a031916815260200191505b509250505060405180910390fd5b508284816145bc57fe5b0690509392505050565b6040518060a0016040528060008152602001600081526020016000815260200160008152602001600081525090565b604051806103e00160405280601f90602082028036833780820191505090505090565b828054600181600116156101000203166002900490600052602060002090601f01602090048101928261464e5760008555614695565b82601f1061466757805160ff1916838001178555614695565b82800160010185558215614695579182015b82811115614694578251825591602001919060010190614679565b5b5090506146a291906146a6565b5090565b5b808211156146bf5760008160009055506001016146a7565b5090565b60006146d66146d1846152a8565b615277565b905080838252602082019050828560208602820111156146f557600080fd5b60005b85811015614725578161470b8882614817565b8452602084019350602083019250506001810190506146f8565b5050509392505050565b600061474261473d846152d4565b615277565b9050808382526020820190508285602086028201111561476157600080fd5b60005b85811015614791578161477788826148fe565b845260208401935060208301925050600181019050614764565b5050509392505050565b60006147ae6147a984615300565b615277565b9050828152602081018484840111156147c657600080fd5b6147d1848285615429565b509392505050565b60006147ec6147e784615330565b615277565b90508281526020810184848401111561480457600080fd5b61480f848285615429565b509392505050565b60008135905061482681615541565b92915050565b600082601f83011261483d57600080fd5b813561484d8482602086016146c3565b91505092915050565b600082601f83011261486757600080fd5b813561487784826020860161472f565b91505092915050565b60008135905061488f81615558565b92915050565b6000813590506148a48161556f565b92915050565b600082601f8301126148bb57600080fd5b81356148cb84826020860161479b565b91505092915050565b600082601f8301126148e557600080fd5b81356148f58482602086016147d9565b91505092915050565b60008135905061490d81615586565b92915050565b60006020828403121561492557600080fd5b600061493384828501614817565b91505092915050565b6000806040838503121561494f57600080fd5b600061495d85828601614817565b925050602061496e85828601614817565b9150509250929050565b600080600080600060a0868803121561499057600080fd5b600061499e88828901614817565b95505060206149af88828901614817565b945050604086013567ffffffffffffffff8111156149cc57600080fd5b6149d888828901614856565b935050606086013567ffffffffffffffff8111156149f557600080fd5b614a0188828901614856565b925050608086013567ffffffffffffffff811115614a1e57600080fd5b614a2a888289016148aa565b9150509295509295909350565b600080600080600060a08688031215614a4f57600080fd5b6000614a5d88828901614817565b9550506020614a6e88828901614817565b9450506040614a7f888289016148fe565b9350506060614a90888289016148fe565b925050608086013567ffffffffffffffff811115614aad57600080fd5b614ab9888289016148aa565b9150509295509295909350565b60008060408385031215614ad957600080fd5b6000614ae785828601614817565b925050602083013567ffffffffffffffff811115614b0457600080fd5b614b1085828601614856565b9150509250929050565b600080600060608486031215614b2f57600080fd5b6000614b3d86828701614817565b935050602084013567ffffffffffffffff811115614b5a57600080fd5b614b6686828701614856565b925050604084013567ffffffffffffffff811115614b8357600080fd5b614b8f86828701614856565b9150509250925092565b60008060008060808587031215614baf57600080fd5b6000614bbd87828801614817565b945050602085013567ffffffffffffffff811115614bda57600080fd5b614be687828801614856565b935050604085013567ffffffffffffffff811115614c0357600080fd5b614c0f87828801614856565b925050606085013567ffffffffffffffff811115614c2c57600080fd5b614c38878288016148aa565b91505092959194509250565b60008060408385031215614c5757600080fd5b6000614c6585828601614817565b9250506020614c7685828601614880565b9150509250929050565b60008060408385031215614c9357600080fd5b6000614ca185828601614817565b9250506020614cb2858286016148fe565b9150509250929050565b600080600060608486031215614cd157600080fd5b6000614cdf86828701614817565b9350506020614cf0868287016148fe565b9250506040614d01868287016148fe565b9150509250925092565b600060208284031215614d1d57600080fd5b600082013567ffffffffffffffff811115614d3757600080fd5b614d438482850161482c565b91505092915050565b60008060408385031215614d5f57600080fd5b600083013567ffffffffffffffff811115614d7957600080fd5b614d858582860161482c565b925050602083013567ffffffffffffffff811115614da257600080fd5b614dae85828601614856565b9150509250929050565b600060208284031215614dca57600080fd5b6000614dd884828501614895565b91505092915050565b600060208284031215614df357600080fd5b600082013567ffffffffffffffff811115614e0d57600080fd5b614e19848285016148d4565b91505092915050565b600060208284031215614e3457600080fd5b6000614e42848285016148fe565b91505092915050565b6000614e5783836150f2565b60208301905092915050565b614e6c816153b5565b82525050565b6000614e7d82615370565b614e878185615393565b9350614e9283615360565b8060005b83811015614ec3578151614eaa8882614e4b565b9750614eb583615386565b925050600181019050614e96565b5085935050505092915050565b614ed9816153c7565b82525050565b6000614eea8261537b565b614ef481856153a4565b9350614f04818560208601615438565b614f0d8161546d565b840191505092915050565b6000614f256035836153a4565b91507f4572726f722c2073656c65637465642064617465206973206c6f77657220746860008301527f616e20746f6b656e207075626c697368206461746500000000000000000000006020830152604082019050919050565b6000614f8b602c836153a4565b91507f536f7272792c20746869732061646472657373206973206e6f74206f6e20746860008301527f652077686974656c6973742e00000000000000000000000000000000000000006020830152604082019050919050565b6000614ff16017836153a4565b91507f416464726573732063616e206e6f74206265207a65726f0000000000000000006000830152602082019050919050565b60006150316029836153a4565b91507f6572726f723a205573657220646f6573206e6f74206578697374206f6e20636860008301527f61696e20646174612e00000000000000000000000000000000000000000000006020830152604082019050919050565b60a0820160008201516150a060008501826150f2565b5060208201516150b360208501826150f2565b5060408201516150c660408501826150f2565b5060608201516150d960608501826150f2565b5060808201516150ec60808501826150f2565b50505050565b6150fb8161541f565b82525050565b61510a8161541f565b82525050565b60006020820190506151256000830184614e63565b92915050565b600060208201905081810360008301526151458184614e72565b905092915050565b60006020820190506151626000830184614ed0565b92915050565b600060208201905081810360008301526151828184614edf565b905092915050565b600060208201905081810360008301526151a381614f18565b9050919050565b600060208201905081810360008301526151c381614f7e565b9050919050565b600060208201905081810360008301526151e381614fe4565b9050919050565b6000602082019050818103600083015261520381615024565b9050919050565b600060a08201905061521f600083018461508a565b92915050565b600060208201905061523a6000830184615101565b92915050565b60006060820190506152556000830186615101565b6152626020830185615101565b61526f6040830184615101565b949350505050565b6000604051905081810181811067ffffffffffffffff8211171561529e5761529d61546b565b5b8060405250919050565b600067ffffffffffffffff8211156152c3576152c261546b565b5b602082029050602081019050919050565b600067ffffffffffffffff8211156152ef576152ee61546b565b5b602082029050602081019050919050565b600067ffffffffffffffff82111561531b5761531a61546b565b5b601f19601f8301169050602081019050919050565b600067ffffffffffffffff82111561534b5761534a61546b565b5b601f19601f8301169050602081019050919050565b6000819050602082019050919050565b600081519050919050565b600081519050919050565b6000602082019050919050565b600082825260208201905092915050565b600082825260208201905092915050565b60006153c0826153ff565b9050919050565b60008115159050919050565b60007fffffffff0000000000000000000000000000000000000000000000000000000082169050919050565b600073ffffffffffffffffffffffffffffffffffffffff82169050919050565b6000819050919050565b82818337600083830152505050565b60005b8381101561545657808201518184015260208101905061543b565b83811115615465576000848401525b50505050565bfe5b6000601f19601f8301169050919050565b60008160e01c9050919050565b600060443d101561549b5761553e565b60046000803e6154ac60005161547e565b6308c379a081146154bd575061553e565b60405160043d036004823e80513d602482011167ffffffffffffffff821117156154e95750505061553e565b808201805167ffffffffffffffff81111561550857505050505061553e565b8060208301013d85018111156155235750505050505061553e565b61552c8261546d565b60208401016040528296505050505050505b90565b61554a816153b5565b811461555557600080fd5b50565b615561816153c7565b811461556c57600080fd5b50565b615578816153d3565b811461558357600080fd5b50565b61558f8161541f565b811461559a57600080fd5b5056fe455243313135353a207472616e7366657220746f206e6f6e2045524331313535526563656976657220696d706c656d656e746572455243313135353a204552433131353552656365697665722072656a656374656420746f6b656e73455243313135353a2062616c616e636520717565727920666f7220746865207a65726f2061646472657373455243313135353a2062617463682062616c616e636520717565727920666f7220746865207a65726f20616464726573734f776e61626c653a206e6577206f776e657220697320746865207a65726f2061646472657373455243313135353a206275726e20616d6f756e7420657863656564732062616c616e6365455243313135353a2063616c6c6572206973206e6f74206f776e6572206e6f7220617070726f766564455243313135353a207472616e7366657220746f20746865207a65726f2061646472657373455243313135353a207472616e736665722063616c6c6572206973206e6f74206f776e6572206e6f7220617070726f766564455243313135353a206275726e2066726f6d20746865207a65726f2061646472657373455243313135353a20696e73756666696369656e742062616c616e636520666f72207472616e73666572455243313135353a2073657474696e6720617070726f76616c2073746174757320666f722073656c66455243313135353a206163636f756e747320616e6420696473206c656e677468206d69736d61746368455243313135353a2069647320616e6420616d6f756e7473206c656e677468206d69736d61746368455243313135353a206d696e7420746f20746865207a65726f2061646472657373a26469706673582212204412e1480b263e5dcacdc10b1b01b93d0772017c5e842554ca8d96d7f2fdf67964736f6c63430007060033455243313135353a2062616c616e636520717565727920666f7220746865207a65726f2061646472657373",
  "immutableReferences": {},
  "source": "// SPDX-License-Identifier: MIT\r\npragma solidity >=0.6.0 <0.8.0;\r\npragma experimental ABIEncoderV2;\r\nimport \"@openzeppelin/contracts/access/Ownable.sol\";\r\nimport \"@openzeppelin/contracts/math/SafeMath.sol\";\r\nimport \"@openzeppelin/contracts/token/ERC1155/ERC1155.sol\";\r\ncontract CimpleDAO is ERC1155, Ownable {\r\n    using SafeMath for uint256;\r\n    //token id \r\n    uint256 public constant Cimple = 0;\r\n    uint256 public constant stCimple = 1;\r\n    uint256 public constant CMPG = 2;\r\n    // total amount both mint and burn\r\n    mapping(uint256 => uint256) public tokenSupply;\r\n    mapping(uint256 => uint256) public tokenBurn;\r\n    mapping(uint256 => uint256) public tokenSupplyLimit;\r\n    mapping(uint256 => address) nftOwners;\r\n\r\n    uint256 private deployedStartTimeStamp; // contract deployed timestamp * this is in need to calculate cimpleIR, etc\r\n    uint256 private constant oneSecondTimeStamp = 1; \r\n    uint256 private constant oneDayTimeStamp = 864 * 1e2; // timestamp per day\r\n    uint256 private constant oneYearTimeStamp = 3154 * 1e4; // timestamp per year\r\n    //whitelist    \r\n    mapping(address => bool) public mintRoleList;\r\n    mapping(address => bool) public registeredUsers;\r\n    uint256 public totalMintRoleList;\r\n\r\n    // additional Cimple token price rate according to year\r\n    // mapping(uint256 => uint256) public additionalDailyRatePerYear;\r\n    // uint256[] private additionalDailyRatePerYear;\r\n    // user info structure\r\n    struct UserDetail {\r\n        uint256 cimpleValue;\r\n        uint256 stCimpleValue;\r\n        uint256 CMPGValue;\r\n        uint256 referralID;\r\n        uint256 referredBy;\r\n    }\r\n    uint256 private currentReferralIDIndex;\r\n    mapping (address=>UserDetail) private usersInfo;\r\n\r\n    // mintable modifier\r\n    modifier mintable() {\r\n        require(mintRoleList[msg.sender] || msg.sender == owner(), 'Sorry, this address is not on the whitelist.');\r\n        _;\r\n    }\r\n\r\n    // event calculatedCimpleIR (uint256 indexed ciIR, uint256 curTimeStamp);\r\n    constructor() ERC1155(\"\") {\r\n        deployedStartTimeStamp = block.timestamp;\r\n        _addOrUpdateUserInfo(msg.sender);\r\n    }\r\n\r\n    /** Add multiple addresses to mintableRoleList */\r\n    function multipleAddressesToMintableRoleList(address[] memory addresses) public onlyOwner {\r\n        for(uint256 i =0; i < addresses.length; i++) {\r\n            singleAddressToMintableRoleList(addresses[i]);\r\n        }\r\n    }\r\n\r\n    /** Add single address to mintableRoleList */\r\n    function singleAddressToMintableRoleList(address userAddress) public onlyOwner {\r\n        require(userAddress != address(0), \"Address can not be zero\");\r\n        mintRoleList[userAddress] = true;\r\n        totalMintRoleList++;\r\n        _addOrUpdateUserInfo(userAddress);\r\n    }\r\n\r\n    /** Remove multiple addresses from mintableRoleList */\r\n    function removeAddressesFromMintableRoleList(address[] memory addresses) public onlyOwner {\r\n        for(uint i =0; i<addresses.length; i++) {\r\n            removeAddressFromMintableRoleList(addresses[i]);\r\n        }\r\n    }\r\n\r\n    /** Remove single address from mintableRoleList */\r\n    function removeAddressFromMintableRoleList(address userAddress) public onlyOwner {\r\n        require(userAddress != address(0), \"Address can not be zero\");\r\n        mintRoleList[userAddress] = false;\r\n        totalMintRoleList--;\r\n    }\r\n    function setURI(string memory newuri) public onlyOwner {\r\n        _setURI(newuri);\r\n    }\r\n    // Mint FT and NFT including batch minting functions\r\n    function mint(address account, uint256 id, uint256 amount) public mintable {\r\n        _mint(account, id, amount, \"0x000\");\r\n        tokenSupply[id] = tokenSupply[id].add(amount);\r\n        _addOrUpdateUserInfo(account);\r\n    }\r\n\r\n    function mintNFT(address account, uint256 id) public mintable {\r\n        _mint(account, id, 1, \"0x000\");\r\n        nftOwners[id] = account;\r\n        tokenSupply[id] = tokenSupply[id].add(1);\r\n        _addOrUpdateUserInfo(account);\r\n    }\r\n\r\n    function mintBatch(address to, uint256[] memory ids, uint256[] memory amounts, bytes memory data) public onlyOwner {\r\n        _mintBatch(to, ids, amounts, data);\r\n        for(uint256 i = 0; i < ids.length; i++){\r\n            tokenSupply[ids[i]] = tokenSupply[ids[i]].add(amounts[i]);\r\n        }\r\n        _addOrUpdateUserInfo(to);\r\n    }\r\n    function mintBatchNFT(address to, uint256[] memory ids) public onlyOwner {\r\n        for(uint256 i = 0; i < ids.length; i++){\r\n            mintNFT(to, ids[i]);\r\n        }\r\n    }\r\n    // Burn FT and NFT function\r\n    function burn(address account, uint256 id, uint256 amount) public mintable {\r\n        _burn(account, id, amount);\r\n        tokenSupply[id] = tokenSupply[id].sub(amount);\r\n        tokenBurn[id] = tokenBurn[id].add(amount);\r\n        _addOrUpdateUserInfo(account);\r\n    }\r\n    function burnNFT(address account, uint256 id) public mintable {\r\n        _burn(account, id, 1);\r\n        tokenSupply[id] = tokenSupply[id].sub(1);\r\n        tokenBurn[id] = tokenBurn[id].add(1);\r\n        delete nftOwners[id];\r\n        _addOrUpdateUserInfo(account);\r\n    }\r\n\r\n    function burnBatch(address from, uint256[] memory ids, uint256[] memory amounts) public onlyOwner {\r\n        _burnBatch(from, ids, amounts);\r\n        for(uint256 i = 0; i < ids.length; i++){\r\n            tokenSupply[ids[i]] = tokenSupply[ids[i]].sub(amounts[i]);\r\n            tokenBurn[ids[i]] = tokenBurn[ids[i]].add(amounts[i]);\r\n        }\r\n        _addOrUpdateUserInfo(from);\r\n    }\r\n    function burnBatchNFT(address from, uint256[] memory ids) public onlyOwner {\r\n        for(uint256 i = 0; i < ids.length; i++){\r\n            burnNFT(from, ids[i]);\r\n        }\r\n    }\r\n    // implementation issuance/redemption rate\r\n    function calculateCimpleIR(uint256 _currentTimeStamp) external view returns( uint256, uint256, uint256 ) {\r\n    // require(msg.sender==minter, 'Error, msg.sender does not have minter role'); //dBank\r\n        require(deployedStartTimeStamp < _currentTimeStamp, 'Error, selected date is lower than token publish date'); //dBank\r\n        uint256 currentTimeStamp = _currentTimeStamp;\r\n        uint256 periodTimeStamp = currentTimeStamp.sub(deployedStartTimeStamp);\r\n        uint256 usedDayCount = periodTimeStamp.div(oneDayTimeStamp).mod(365);\r\n        uint256 usedYearCount = periodTimeStamp.div(oneYearTimeStamp);\r\n        uint256 stepPrice = 1e11;\r\n        uint256 cimpleIR = 1e12;\r\n        uint256[31] memory additionalDailyRatePerYear;\r\n        uint256[31] memory baseCimpleIRForNewYear;\r\n        additionalDailyRatePerYear[0] = 1e11;\r\n        baseCimpleIRForNewYear[0] = 1e12;\r\n        if(usedYearCount > 30) {\r\n            usedYearCount = 30;\r\n        }\r\n        if(usedYearCount < uint256(1)){\r\n            stepPrice = additionalDailyRatePerYear[usedYearCount];\r\n        }else{\r\n            for (uint256 i = 1; i <= usedYearCount; i++) {\r\n                uint256 temp = additionalDailyRatePerYear[i - 1] * 175 / 100;\r\n                for (uint256 index = 1; index <= i; index++) {\r\n                    temp = temp * 9810837779 / 1e10;\r\n                }\r\n                additionalDailyRatePerYear[i] = temp;\r\n            }\r\n            stepPrice = additionalDailyRatePerYear[usedYearCount];\r\n            baseCimpleIRForNewYear[usedYearCount] = baseCimpleIRForNewYear[usedYearCount - 1] +  additionalDailyRatePerYear[usedYearCount - 1] * 365;\r\n        }\r\n        uint256 deltaIR = stepPrice * usedDayCount;\r\n        cimpleIR = baseCimpleIRForNewYear[usedYearCount];\r\n        cimpleIR = cimpleIR + deltaIR;\r\n        if(cimpleIR >= 1e18) {\r\n            cimpleIR = 1e18;\r\n        }\r\n        return (cimpleIR, stepPrice, usedDayCount);\r\n    }\r\n    // ADD, EDIT, DELETE \r\n    function _addOrUpdateUserInfo(address userAddress) internal {\r\n        if(registeredUsers[userAddress]){\r\n            UserDetail storage tempUser = usersInfo[userAddress];\r\n            tempUser.cimpleValue = balanceOf(userAddress, Cimple);\r\n            tempUser.stCimpleValue = balanceOf(userAddress, stCimple);\r\n            tempUser.CMPGValue = balanceOf(userAddress, CMPG);\r\n        }else{\r\n            registeredUsers[userAddress] = true;\r\n            currentReferralIDIndex++;\r\n            UserDetail memory tempUser = UserDetail(balanceOf(userAddress, Cimple), balanceOf(userAddress, stCimple), balanceOf(userAddress, CMPG), currentReferralIDIndex, 0);\r\n            usersInfo[userAddress] = tempUser;\r\n        }\r\n        \r\n    }\r\n\r\n    function getUserInfo(address userAddress) external view returns( UserDetail memory tempUserInfo ) {\r\n        require(registeredUsers[userAddress], \"error: User does not exist on chain data.\");\r\n        tempUserInfo = usersInfo[userAddress];\r\n        return tempUserInfo;\r\n    }\r\n}",
  "sourcePath": "F:\\repo\\smartcontract_1155\\src\\contracts\\CimpleDAO.sol",
  "compiler": {
    "name": "solc",
    "version": "0.7.6+commit.7338295f.Emscripten.clang"
  },
  "schemaVersion": "3.4.4",
  "updatedAt": "2022-01-17T12:13:41.646Z",
  "networkType": "ethereum",
  "devdoc": {
    "kind": "dev",
    "methods": {
      "balanceOf(address,uint256)": {
        "details": "See {IERC1155-balanceOf}. Requirements: - `account` cannot be the zero address."
      },
      "balanceOfBatch(address[],uint256[])": {
        "details": "See {IERC1155-balanceOfBatch}. Requirements: - `accounts` and `ids` must have the same length."
      },
      "isApprovedForAll(address,address)": {
        "details": "See {IERC1155-isApprovedForAll}."
      },
      "owner()": {
        "details": "Returns the address of the current owner."
      },
      "renounceOwnership()": {
        "details": "Leaves the contract without owner. It will not be possible to call `onlyOwner` functions anymore. Can only be called by the current owner. NOTE: Renouncing ownership will leave the contract without an owner, thereby removing any functionality that is only available to the owner."
      },
      "safeBatchTransferFrom(address,address,uint256[],uint256[],bytes)": {
        "details": "See {IERC1155-safeBatchTransferFrom}."
      },
      "safeTransferFrom(address,address,uint256,uint256,bytes)": {
        "details": "See {IERC1155-safeTransferFrom}."
      },
      "setApprovalForAll(address,bool)": {
        "details": "See {IERC1155-setApprovalForAll}."
      },
      "supportsInterface(bytes4)": {
        "details": "See {IERC165-supportsInterface}. Time complexity O(1), guaranteed to always use less than 30 000 gas."
      },
      "transferOwnership(address)": {
        "details": "Transfers ownership of the contract to a new account (`newOwner`). Can only be called by the current owner."
      },
      "uri(uint256)": {
        "details": "See {IERC1155MetadataURI-uri}. This implementation returns the same URI for *all* token types. It relies on the token type ID substitution mechanism https://eips.ethereum.org/EIPS/eip-1155#metadata[defined in the EIP]. Clients calling this function must replace the `\\{id\\}` substring with the actual token type ID."
      }
    },
    "version": 1
  },
  "userdoc": {
    "kind": "user",
    "methods": {
      "multipleAddressesToMintableRoleList(address[])": {
        "notice": "Add multiple addresses to mintableRoleList "
      },
      "removeAddressFromMintableRoleList(address)": {
        "notice": "Remove single address from mintableRoleList "
      },
      "removeAddressesFromMintableRoleList(address[])": {
        "notice": "Remove multiple addresses from mintableRoleList "
      },
      "singleAddressToMintableRoleList(address)": {
        "notice": "Add single address to mintableRoleList "
      }
    },
    "version": 1
  }
}