{
  "contractName": "CimpleDAO",
  "abi": [
    {
      "inputs": [],
      "stateMutability": "nonpayable",
      "type": "constructor"
    },
    {
      "anonymous": false,
      "inputs": [
        {
          "indexed": true,
          "internalType": "address",
          "name": "account",
          "type": "address"
        },
        {
          "indexed": true,
          "internalType": "address",
          "name": "operator",
          "type": "address"
        },
        {
          "indexed": false,
          "internalType": "bool",
          "name": "approved",
          "type": "bool"
        }
      ],
      "name": "ApprovalForAll",
      "type": "event"
    },
    {
      "anonymous": false,
      "inputs": [
        {
          "indexed": true,
          "internalType": "address",
          "name": "previousOwner",
          "type": "address"
        },
        {
          "indexed": true,
          "internalType": "address",
          "name": "newOwner",
          "type": "address"
        }
      ],
      "name": "OwnershipTransferred",
      "type": "event"
    },
    {
      "anonymous": false,
      "inputs": [
        {
          "indexed": true,
          "internalType": "address",
          "name": "operator",
          "type": "address"
        },
        {
          "indexed": true,
          "internalType": "address",
          "name": "from",
          "type": "address"
        },
        {
          "indexed": true,
          "internalType": "address",
          "name": "to",
          "type": "address"
        },
        {
          "indexed": false,
          "internalType": "uint256[]",
          "name": "ids",
          "type": "uint256[]"
        },
        {
          "indexed": false,
          "internalType": "uint256[]",
          "name": "values",
          "type": "uint256[]"
        }
      ],
      "name": "TransferBatch",
      "type": "event"
    },
    {
      "anonymous": false,
      "inputs": [
        {
          "indexed": true,
          "internalType": "address",
          "name": "operator",
          "type": "address"
        },
        {
          "indexed": true,
          "internalType": "address",
          "name": "from",
          "type": "address"
        },
        {
          "indexed": true,
          "internalType": "address",
          "name": "to",
          "type": "address"
        },
        {
          "indexed": false,
          "internalType": "uint256",
          "name": "id",
          "type": "uint256"
        },
        {
          "indexed": false,
          "internalType": "uint256",
          "name": "value",
          "type": "uint256"
        }
      ],
      "name": "TransferSingle",
      "type": "event"
    },
    {
      "anonymous": false,
      "inputs": [
        {
          "indexed": false,
          "internalType": "string",
          "name": "value",
          "type": "string"
        },
        {
          "indexed": true,
          "internalType": "uint256",
          "name": "id",
          "type": "uint256"
        }
      ],
      "name": "URI",
      "type": "event"
    },
    {
      "inputs": [],
      "name": "CMPG",
      "outputs": [
        {
          "internalType": "uint256",
          "name": "",
          "type": "uint256"
        }
      ],
      "stateMutability": "view",
      "type": "function",
      "constant": true
    },
    {
      "inputs": [],
      "name": "Cimple",
      "outputs": [
        {
          "internalType": "uint256",
          "name": "",
          "type": "uint256"
        }
      ],
      "stateMutability": "view",
      "type": "function",
      "constant": true
    },
    {
      "inputs": [
        {
          "internalType": "address",
          "name": "account",
          "type": "address"
        },
        {
          "internalType": "uint256",
          "name": "id",
          "type": "uint256"
        }
      ],
      "name": "balanceOf",
      "outputs": [
        {
          "internalType": "uint256",
          "name": "",
          "type": "uint256"
        }
      ],
      "stateMutability": "view",
      "type": "function",
      "constant": true
    },
    {
      "inputs": [
        {
          "internalType": "address[]",
          "name": "accounts",
          "type": "address[]"
        },
        {
          "internalType": "uint256[]",
          "name": "ids",
          "type": "uint256[]"
        }
      ],
      "name": "balanceOfBatch",
      "outputs": [
        {
          "internalType": "uint256[]",
          "name": "",
          "type": "uint256[]"
        }
      ],
      "stateMutability": "view",
      "type": "function",
      "constant": true
    },
    {
      "inputs": [
        {
          "internalType": "address",
          "name": "account",
          "type": "address"
        },
        {
          "internalType": "address",
          "name": "operator",
          "type": "address"
        }
      ],
      "name": "isApprovedForAll",
      "outputs": [
        {
          "internalType": "bool",
          "name": "",
          "type": "bool"
        }
      ],
      "stateMutability": "view",
      "type": "function",
      "constant": true
    },
    {
      "inputs": [
        {
          "internalType": "address",
          "name": "",
          "type": "address"
        }
      ],
      "name": "mintRoleList",
      "outputs": [
        {
          "internalType": "bool",
          "name": "",
          "type": "bool"
        }
      ],
      "stateMutability": "view",
      "type": "function",
      "constant": true
    },
    {
      "inputs": [],
      "name": "owner",
      "outputs": [
        {
          "internalType": "address",
          "name": "",
          "type": "address"
        }
      ],
      "stateMutability": "view",
      "type": "function",
      "constant": true
    },
    {
      "inputs": [
        {
          "internalType": "address",
          "name": "",
          "type": "address"
        }
      ],
      "name": "registeredUsers",
      "outputs": [
        {
          "internalType": "bool",
          "name": "",
          "type": "bool"
        }
      ],
      "stateMutability": "view",
      "type": "function",
      "constant": true
    },
    {
      "inputs": [],
      "name": "renounceOwnership",
      "outputs": [],
      "stateMutability": "nonpayable",
      "type": "function"
    },
    {
      "inputs": [
        {
          "internalType": "address",
          "name": "from",
          "type": "address"
        },
        {
          "internalType": "address",
          "name": "to",
          "type": "address"
        },
        {
          "internalType": "uint256[]",
          "name": "ids",
          "type": "uint256[]"
        },
        {
          "internalType": "uint256[]",
          "name": "amounts",
          "type": "uint256[]"
        },
        {
          "internalType": "bytes",
          "name": "data",
          "type": "bytes"
        }
      ],
      "name": "safeBatchTransferFrom",
      "outputs": [],
      "stateMutability": "nonpayable",
      "type": "function"
    },
    {
      "inputs": [
        {
          "internalType": "address",
          "name": "from",
          "type": "address"
        },
        {
          "internalType": "address",
          "name": "to",
          "type": "address"
        },
        {
          "internalType": "uint256",
          "name": "id",
          "type": "uint256"
        },
        {
          "internalType": "uint256",
          "name": "amount",
          "type": "uint256"
        },
        {
          "internalType": "bytes",
          "name": "data",
          "type": "bytes"
        }
      ],
      "name": "safeTransferFrom",
      "outputs": [],
      "stateMutability": "nonpayable",
      "type": "function"
    },
    {
      "inputs": [
        {
          "internalType": "address",
          "name": "operator",
          "type": "address"
        },
        {
          "internalType": "bool",
          "name": "approved",
          "type": "bool"
        }
      ],
      "name": "setApprovalForAll",
      "outputs": [],
      "stateMutability": "nonpayable",
      "type": "function"
    },
    {
      "inputs": [],
      "name": "stCimple",
      "outputs": [
        {
          "internalType": "uint256",
          "name": "",
          "type": "uint256"
        }
      ],
      "stateMutability": "view",
      "type": "function",
      "constant": true
    },
    {
      "inputs": [
        {
          "internalType": "bytes4",
          "name": "interfaceId",
          "type": "bytes4"
        }
      ],
      "name": "supportsInterface",
      "outputs": [
        {
          "internalType": "bool",
          "name": "",
          "type": "bool"
        }
      ],
      "stateMutability": "view",
      "type": "function",
      "constant": true
    },
    {
      "inputs": [
        {
          "internalType": "uint256",
          "name": "",
          "type": "uint256"
        }
      ],
      "name": "tokenBurn",
      "outputs": [
        {
          "internalType": "uint256",
          "name": "",
          "type": "uint256"
        }
      ],
      "stateMutability": "view",
      "type": "function",
      "constant": true
    },
    {
      "inputs": [
        {
          "internalType": "uint256",
          "name": "",
          "type": "uint256"
        }
      ],
      "name": "tokenSupply",
      "outputs": [
        {
          "internalType": "uint256",
          "name": "",
          "type": "uint256"
        }
      ],
      "stateMutability": "view",
      "type": "function",
      "constant": true
    },
    {
      "inputs": [
        {
          "internalType": "uint256",
          "name": "",
          "type": "uint256"
        }
      ],
      "name": "tokenSupplyLimit",
      "outputs": [
        {
          "internalType": "uint256",
          "name": "",
          "type": "uint256"
        }
      ],
      "stateMutability": "view",
      "type": "function",
      "constant": true
    },
    {
      "inputs": [],
      "name": "totalMintRoleList",
      "outputs": [
        {
          "internalType": "uint256",
          "name": "",
          "type": "uint256"
        }
      ],
      "stateMutability": "view",
      "type": "function",
      "constant": true
    },
    {
      "inputs": [
        {
          "internalType": "address",
          "name": "newOwner",
          "type": "address"
        }
      ],
      "name": "transferOwnership",
      "outputs": [],
      "stateMutability": "nonpayable",
      "type": "function"
    },
    {
      "inputs": [
        {
          "internalType": "uint256",
          "name": "",
          "type": "uint256"
        }
      ],
      "name": "uri",
      "outputs": [
        {
          "internalType": "string",
          "name": "",
          "type": "string"
        }
      ],
      "stateMutability": "view",
      "type": "function",
      "constant": true
    },
    {
      "inputs": [
        {
          "internalType": "address[]",
          "name": "addresses",
          "type": "address[]"
        }
      ],
      "name": "multipleAddressesToMintableRoleList",
      "outputs": [],
      "stateMutability": "nonpayable",
      "type": "function"
    },
    {
      "inputs": [
        {
          "internalType": "address",
          "name": "userAddress",
          "type": "address"
        }
      ],
      "name": "singleAddressToMintableRoleList",
      "outputs": [],
      "stateMutability": "nonpayable",
      "type": "function"
    },
    {
      "inputs": [
        {
          "internalType": "address[]",
          "name": "addresses",
          "type": "address[]"
        }
      ],
      "name": "removeAddressesFromMintableRoleList",
      "outputs": [],
      "stateMutability": "nonpayable",
      "type": "function"
    },
    {
      "inputs": [
        {
          "internalType": "address",
          "name": "userAddress",
          "type": "address"
        }
      ],
      "name": "removeAddressFromMintableRoleList",
      "outputs": [],
      "stateMutability": "nonpayable",
      "type": "function"
    },
    {
      "inputs": [
        {
          "internalType": "string",
          "name": "newuri",
          "type": "string"
        }
      ],
      "name": "setURI",
      "outputs": [],
      "stateMutability": "nonpayable",
      "type": "function"
    },
    {
      "inputs": [
        {
          "internalType": "address",
          "name": "account",
          "type": "address"
        },
        {
          "internalType": "uint256",
          "name": "id",
          "type": "uint256"
        },
        {
          "internalType": "uint256",
          "name": "amount",
          "type": "uint256"
        }
      ],
      "name": "mint",
      "outputs": [],
      "stateMutability": "nonpayable",
      "type": "function"
    },
    {
      "inputs": [
        {
          "internalType": "address",
          "name": "account",
          "type": "address"
        },
        {
          "internalType": "uint256",
          "name": "id",
          "type": "uint256"
        }
      ],
      "name": "mintNFT",
      "outputs": [],
      "stateMutability": "nonpayable",
      "type": "function"
    },
    {
      "inputs": [
        {
          "internalType": "address",
          "name": "to",
          "type": "address"
        },
        {
          "internalType": "uint256[]",
          "name": "ids",
          "type": "uint256[]"
        },
        {
          "internalType": "uint256[]",
          "name": "amounts",
          "type": "uint256[]"
        },
        {
          "internalType": "bytes",
          "name": "data",
          "type": "bytes"
        }
      ],
      "name": "mintBatch",
      "outputs": [],
      "stateMutability": "nonpayable",
      "type": "function"
    },
    {
      "inputs": [
        {
          "internalType": "address",
          "name": "to",
          "type": "address"
        },
        {
          "internalType": "uint256[]",
          "name": "ids",
          "type": "uint256[]"
        }
      ],
      "name": "mintBatchNFT",
      "outputs": [],
      "stateMutability": "nonpayable",
      "type": "function"
    },
    {
      "inputs": [
        {
          "internalType": "address",
          "name": "account",
          "type": "address"
        },
        {
          "internalType": "uint256",
          "name": "id",
          "type": "uint256"
        },
        {
          "internalType": "uint256",
          "name": "amount",
          "type": "uint256"
        }
      ],
      "name": "burn",
      "outputs": [],
      "stateMutability": "nonpayable",
      "type": "function"
    },
    {
      "inputs": [
        {
          "internalType": "address",
          "name": "account",
          "type": "address"
        },
        {
          "internalType": "uint256",
          "name": "id",
          "type": "uint256"
        }
      ],
      "name": "burnNFT",
      "outputs": [],
      "stateMutability": "nonpayable",
      "type": "function"
    },
    {
      "inputs": [
        {
          "internalType": "address",
          "name": "from",
          "type": "address"
        },
        {
          "internalType": "uint256[]",
          "name": "ids",
          "type": "uint256[]"
        },
        {
          "internalType": "uint256[]",
          "name": "amounts",
          "type": "uint256[]"
        }
      ],
      "name": "burnBatch",
      "outputs": [],
      "stateMutability": "nonpayable",
      "type": "function"
    },
    {
      "inputs": [
        {
          "internalType": "address",
          "name": "from",
          "type": "address"
        },
        {
          "internalType": "uint256[]",
          "name": "ids",
          "type": "uint256[]"
        }
      ],
      "name": "burnBatchNFT",
      "outputs": [],
      "stateMutability": "nonpayable",
      "type": "function"
    },
    {
      "inputs": [
        {
          "internalType": "uint256",
          "name": "_currentTimeStamp",
          "type": "uint256"
        }
      ],
      "name": "calculateCimpleIR",
      "outputs": [
        {
          "internalType": "uint256",
          "name": "",
          "type": "uint256"
        },
        {
          "internalType": "uint256",
          "name": "",
          "type": "uint256"
        },
        {
          "internalType": "uint256",
          "name": "",
          "type": "uint256"
        }
      ],
      "stateMutability": "view",
      "type": "function",
      "constant": true
    },
    {
      "inputs": [
        {
          "internalType": "address",
          "name": "userAddress",
          "type": "address"
        }
      ],
      "name": "getUserInfo",
      "outputs": [
        {
          "components": [
            {
              "internalType": "uint256",
              "name": "cimpleValue",
              "type": "uint256"
            },
            {
              "internalType": "uint256",
              "name": "stCimpleValue",
              "type": "uint256"
            },
            {
              "internalType": "uint256",
              "name": "CMPGValue",
              "type": "uint256"
            },
            {
              "internalType": "uint256",
              "name": "referralID",
              "type": "uint256"
            },
            {
              "internalType": "uint256",
              "name": "referredBy",
              "type": "uint256"
            }
          ],
          "internalType": "struct CimpleDAO.UserDetail",
          "name": "tempUserInfo",
          "type": "tuple"
        }
      ],
      "stateMutability": "view",
      "type": "function",
      "constant": true
    },
    {
      "inputs": [
        {
          "internalType": "address",
          "name": "_stakeholder",
          "type": "address"
        }
      ],
      "name": "addStakeholder",
      "outputs": [],
      "stateMutability": "nonpayable",
      "type": "function"
    },
    {
      "inputs": [
        {
          "internalType": "address",
          "name": "_stakeholder",
          "type": "address"
        }
      ],
      "name": "removeStakeholder",
      "outputs": [],
      "stateMutability": "nonpayable",
      "type": "function"
    },
    {
      "inputs": [],
      "name": "totalStakes",
      "outputs": [
        {
          "internalType": "uint256",
          "name": "",
          "type": "uint256"
        }
      ],
      "stateMutability": "view",
      "type": "function",
      "constant": true
    },
    {
      "inputs": [
        {
          "internalType": "address",
          "name": "staker",
          "type": "address"
        },
        {
          "internalType": "uint256",
          "name": "_stake",
          "type": "uint256"
        }
      ],
      "name": "createStake",
      "outputs": [],
      "stateMutability": "nonpayable",
      "type": "function"
    },
    {
      "inputs": [
        {
          "internalType": "address",
          "name": "unstaker",
          "type": "address"
        },
        {
          "internalType": "uint256",
          "name": "_stake",
          "type": "uint256"
        }
      ],
      "name": "removeStake",
      "outputs": [],
      "stateMutability": "nonpayable",
      "type": "function"
    },
    {
      "inputs": [],
      "name": "totalRewards",
      "outputs": [
        {
          "internalType": "uint256",
          "name": "",
          "type": "uint256"
        }
      ],
      "stateMutability": "view",
      "type": "function",
      "constant": true
    },
    {
      "inputs": [
        {
          "internalType": "address",
          "name": "_stakeholder",
          "type": "address"
        }
      ],
      "name": "calculateReward",
      "outputs": [
        {
          "internalType": "uint256",
          "name": "",
          "type": "uint256"
        }
      ],
      "stateMutability": "view",
      "type": "function",
      "constant": true
    },
    {
      "inputs": [],
      "name": "distributeRewards",
      "outputs": [],
      "stateMutability": "nonpayable",
      "type": "function"
    }
  ],
  "bytecode": "0x60806040523480156200001157600080fd5b50604051806020016040528060008152506200003a6301ffc9a760e01b6200016860201b60201c565b6200004b816200027160201b60201c565b6200006363d9b67a2660e01b6200016860201b60201c565b6200007b630e89341c60e01b6200016860201b60201c565b5060006200008e6200028d60201b60201c565b905080600460006101000a81548173ffffffffffffffffffffffffffffffffffffffff021916908373ffffffffffffffffffffffffffffffffffffffff1602179055508073ffffffffffffffffffffffffffffffffffffffff16600073ffffffffffffffffffffffffffffffffffffffff167f8be0079c531659141344cd1fd0a4f28419497f9722a3daafe3b4186f6b6457e060405160405180910390a350426009819055506305f5e10060076000600281526020019081526020016000208190555062000162336200029560201b60201c565b62000663565b63ffffffff60e01b817bffffffffffffffffffffffffffffffffffffffffffffffffffffffff1916141562000205576040517f08c379a000000000000000000000000000000000000000000000000000000000815260040180806020018281038252601c8152602001807f4552433136353a20696e76616c696420696e746572666163652069640000000081525060200191505060405180910390fd5b6001600080837bffffffffffffffffffffffffffffffffffffffffffffffffffffffff19167bffffffffffffffffffffffffffffffffffffffffffffffffffffffff1916815260200190815260200160002060006101000a81548160ff02191690831515021790555050565b806003908051906020019062000289929190620005ad565b5050565b600033905090565b600b60008273ffffffffffffffffffffffffffffffffffffffff1673ffffffffffffffffffffffffffffffffffffffff16815260200190815260200160002060009054906101000a900460ff161562000383576000600e60008373ffffffffffffffffffffffffffffffffffffffff1673ffffffffffffffffffffffffffffffffffffffff16815260200190815260200160002090506200033e826000620004cb60201b60201c565b816000018190555062000359826001620004cb60201b60201c565b816001018190555062000374826002620004cb60201b60201c565b816002018190555050620004c8565b6001600b60008373ffffffffffffffffffffffffffffffffffffffff1673ffffffffffffffffffffffffffffffffffffffff16815260200190815260200160002060006101000a81548160ff021916908315150217905550600d6000815480929190600101919050555060006040518060a001604052806200040d846000620004cb60201b60201c565b815260200162000425846001620004cb60201b60201c565b81526020016200043d846002620004cb60201b60201c565b8152602001600d5481526020016000815250905080600e60008473ffffffffffffffffffffffffffffffffffffffff1673ffffffffffffffffffffffffffffffffffffffff1681526020019081526020016000206000820151816000015560208201518160010155604082015181600201556060820151816003015560808201518160040155905050505b50565b60008073ffffffffffffffffffffffffffffffffffffffff168373ffffffffffffffffffffffffffffffffffffffff16141562000554576040517f08c379a000000000000000000000000000000000000000000000000000000000815260040180806020018281038252602b81526020018062006661602b913960400191505060405180910390fd5b6001600083815260200190815260200160002060008473ffffffffffffffffffffffffffffffffffffffff1673ffffffffffffffffffffffffffffffffffffffff16815260200190815260200160002054905092915050565b828054600181600116156101000203166002900490600052602060002090601f016020900481019282620005e5576000855562000631565b82601f106200060057805160ff191683800117855562000631565b8280016001018555821562000631579182015b828111156200063057825182559160200191906001019062000613565b5b50905062000640919062000644565b5090565b5b808211156200065f57600081600090555060010162000645565b5090565b615fee80620006736000396000f3fe608060405234801561001057600080fd5b50600436106102685760003560e01c80636b20c45411610151578063d82e3962116100c3578063e985e9c511610087578063e985e9c514610753578063f217c9aa14610783578063f242432a1461079f578063f2fde38b146107bb578063f37eeedc146107d7578063f5298aca146107f557610268565b8063d82e3962146106b1578063d86f5a6b146106e1578063ddfc193d146106fd578063df15d76f1461071b578063e5c42fd11461073757610268565b8063a22cb46511610115578063a22cb465146105dd578063a93bbad5146105f9578063b367ebed14610629578063bcb0c2d714610645578063bf9befb114610661578063c876321f1461067f57610268565b80636b20c454146105715780636f4a2cd01461058d578063715018a6146105975780638da5cb5b146105a1578063939031b5146105bf57610268565b80632693ebf2116101ea57806347fcf018116101ae57806347fcf0181461049f5780634e1273f4146104bb5780635a003861146104eb5780636386c1c714610509578063679cef4d1461053957806368ce7d8a1461055557610268565b80632693ebf2146103d757806328fd70ec146104075780632eb2c2d61461043757806339451a88146104535780633c168eab1461048357610268565b80630e50cee5116102315780630e50cee5146103235780630e89341c14610353578063156e29f6146103835780631f7fdffa1461039f57806325eb49f1146103bb57610268565b8062fdd58e1461026d57806301ffc9a71461029d57806302fe5305146102cd57806303b11d45146102e95780630e15561a14610305575b600080fd5b61028760048036038101906102829190615431565b610811565b60405161029491906159d6565b60405180910390f35b6102b760048036038101906102b29190615569565b6108f1565b6040516102c491906158fe565b60405180910390f35b6102e760048036038101906102e29190615592565b610958565b005b61030360048036038101906102fe9190615277565b610a2e565b005b61030d610b33565b60405161031a91906159d6565b60405180910390f35b61033d600480360381019061033891906150c4565b610bb3565b60405161034a91906158fe565b60405180910390f35b61036d600480360381019061036891906155d3565b610bd3565b60405161037a9190615919565b60405180910390f35b61039d6004803603810190610398919061546d565b610c77565b005b6103b960048036038101906103b4919061534a565b610dcc565b005b6103d560048036038101906103d09190615277565b610f41565b005b6103f160048036038101906103ec91906155d3565b611046565b6040516103fe91906159d6565b60405180910390f35b610421600480360381019061041c91906155d3565b61105e565b60405161042e91906159d6565b60405180910390f35b610451600480360381019061044c9190615129565b611076565b005b61046d600480360381019061046891906155d3565b611501565b60405161047a91906159d6565b60405180910390f35b61049d60048036038101906104989190615431565b611519565b005b6104b960048036038101906104b49190615431565b6116c1565b005b6104d560048036038101906104d091906154fd565b611855565b6040516104e291906158dc565b60405180910390f35b6104f3611a47565b60405161050091906159d6565b60405180910390f35b610523600480360381019061051e91906150c4565b611a4d565b60405161053091906159bb565b60405180910390f35b610553600480360381019061054e91906150c4565b611b64565b005b61056f600480360381019061056a9190615431565b611d14565b005b61058b600480360381019061058691906152cb565b611e17565b005b610595612000565b005b61059f61213f565b005b6105a96122ca565b6040516105b691906158c1565b60405180910390f35b6105c76122f4565b6040516105d491906159d6565b60405180910390f35b6105f760048036038101906105f291906153f5565b6122f9565b005b610613600480360381019061060e91906150c4565b612492565b60405161062091906158fe565b60405180910390f35b610643600480360381019061063e91906150c4565b6124b2565b005b61065f600480360381019061065a91906150c4565b61265a565b005b61066961274b565b60405161067691906159d6565b60405180910390f35b610699600480360381019061069491906155d3565b6127cb565b6040516106a8939291906159f1565b60405180910390f35b6106cb60048036038101906106c691906150c4565b612a3b565b6040516106d891906159d6565b60405180910390f35b6106fb60048036038101906106f69190615431565b612a59565b005b610705612b5c565b60405161071291906159d6565b60405180910390f35b610735600480360381019061073091906154bc565b612b61565b005b610751600480360381019061074c91906150c4565b612c64565b005b61076d600480360381019061076891906150ed565b612cdf565b60405161077a91906158fe565b60405180910390f35b61079d600480360381019061079891906154bc565b612d73565b005b6107b960048036038101906107b491906151e8565b612e76565b005b6107d560048036038101906107d091906150c4565b6131eb565b005b6107df6133fb565b6040516107ec91906159d6565b60405180910390f35b61080f600480360381019061080a919061546d565b613400565b005b60008073ffffffffffffffffffffffffffffffffffffffff168373ffffffffffffffffffffffffffffffffffffffff161415610898576040517f08c379a000000000000000000000000000000000000000000000000000000000815260040180806020018281038252602b815260200180615dab602b913960400191505060405180910390fd5b6001600083815260200190815260200160002060008473ffffffffffffffffffffffffffffffffffffffff1673ffffffffffffffffffffffffffffffffffffffff16815260200190815260200160002054905092915050565b6000806000837bffffffffffffffffffffffffffffffffffffffffffffffffffffffff19167bffffffffffffffffffffffffffffffffffffffffffffffffffffffff1916815260200190815260200160002060009054906101000a900460ff169050919050565b61096061355c565b73ffffffffffffffffffffffffffffffffffffffff16600460009054906101000a900473ffffffffffffffffffffffffffffffffffffffff1673ffffffffffffffffffffffffffffffffffffffff1614610a22576040517f08c379a00000000000000000000000000000000000000000000000000000000081526004018080602001828103825260208152602001807f4f776e61626c653a2063616c6c6572206973206e6f7420746865206f776e657281525060200191505060405180910390fd5b610a2b81613564565b50565b610a3661355c565b73ffffffffffffffffffffffffffffffffffffffff16600460009054906101000a900473ffffffffffffffffffffffffffffffffffffffff1673ffffffffffffffffffffffffffffffffffffffff1614610af8576040517f08c379a00000000000000000000000000000000000000000000000000000000081526004018080602001828103825260208152602001807f4f776e61626c653a2063616c6c6572206973206e6f7420746865206f776e657281525060200191505060405180910390fd5b60005b8151811015610b2e57610b2183838381518110610b1457fe5b60200260200101516116c1565b8080600101915050610afb565b505050565b6000806000905060005b600f80549050811015610bab57610b9e610b8f600f8381548110610b5d57fe5b9060005260206000200160009054906101000a900473ffffffffffffffffffffffffffffffffffffffff166002610811565b8361357e90919063ffffffff16565b9150600181019050610b3d565b508091505090565b600b6020528060005260406000206000915054906101000a900460ff1681565b606060038054600181600116156101000203166002900480601f016020809104026020016040519081016040528092919081815260200182805460018160011615610100020316600290048015610c6b5780601f10610c4057610100808354040283529160200191610c6b565b820191906000526020600020905b815481529060010190602001808311610c4e57829003601f168201915b50505050509050919050565b600a60003373ffffffffffffffffffffffffffffffffffffffff1673ffffffffffffffffffffffffffffffffffffffff16815260200190815260200160002060009054906101000a900460ff1680610d015750610cd26122ca565b73ffffffffffffffffffffffffffffffffffffffff163373ffffffffffffffffffffffffffffffffffffffff16145b610d40576040517f08c379a0000000000000000000000000000000000000000000000000000000008152600401610d379061595b565b60405180910390fd5b610d818383836040518060400160405280600581526020017f3078303030000000000000000000000000000000000000000000000000000000815250613606565b610da781600560008581526020019081526020016000205461357e90919063ffffffff16565b6005600084815260200190815260200160002081905550610dc783613809565b505050565b610dd461355c565b73ffffffffffffffffffffffffffffffffffffffff16600460009054906101000a900473ffffffffffffffffffffffffffffffffffffffff1673ffffffffffffffffffffffffffffffffffffffff1614610e96576040517f08c379a00000000000000000000000000000000000000000000000000000000081526004018080602001828103825260208152602001807f4f776e61626c653a2063616c6c6572206973206e6f7420746865206f776e657281525060200191505060405180910390fd5b610ea284848484613a0d565b60005b8351811015610f3157610efa838281518110610ebd57fe5b602002602001015160056000878581518110610ed557fe5b602002602001015181526020019081526020016000205461357e90919063ffffffff16565b60056000868481518110610f0a57fe5b60200260200101518152602001908152602001600020819055508080600101915050610ea5565b50610f3b84613809565b50505050565b610f4961355c565b73ffffffffffffffffffffffffffffffffffffffff16600460009054906101000a900473ffffffffffffffffffffffffffffffffffffffff1673ffffffffffffffffffffffffffffffffffffffff161461100b576040517f08c379a00000000000000000000000000000000000000000000000000000000081526004018080602001828103825260208152602001807f4f776e61626c653a2063616c6c6572206973206e6f7420746865206f776e657281525060200191505060405180910390fd5b60005b8151811015611041576110348383838151811061102757fe5b6020026020010151611519565b808060010191505061100e565b505050565b60056020528060005260406000206000915090505481565b60076020528060005260406000206000915090505481565b81518351146110d0576040517f08c379a0000000000000000000000000000000000000000000000000000000008152600401808060200182810382526028815260200180615f706028913960400191505060405180910390fd5b600073ffffffffffffffffffffffffffffffffffffffff168473ffffffffffffffffffffffffffffffffffffffff161415611156576040517f08c379a0000000000000000000000000000000000000000000000000000000008152600401808060200182810382526025815260200180615e7a6025913960400191505060405180910390fd5b61115e61355c565b73ffffffffffffffffffffffffffffffffffffffff168573ffffffffffffffffffffffffffffffffffffffff1614806111a457506111a38561119e61355c565b612cdf565b5b6111f9576040517f08c379a0000000000000000000000000000000000000000000000000000000008152600401808060200182810382526032815260200180615e9f6032913960400191505060405180910390fd5b600061120361355c565b9050611213818787878787613d2f565b60005b84518110156113e457600085828151811061122d57fe5b60200260200101519050600085838151811061124557fe5b602002602001015190506112cc816040518060600160405280602a8152602001615ef4602a91396001600086815260200190815260200160002060008d73ffffffffffffffffffffffffffffffffffffffff1673ffffffffffffffffffffffffffffffffffffffff16815260200190815260200160002054613d379092919063ffffffff16565b6001600084815260200190815260200160002060008b73ffffffffffffffffffffffffffffffffffffffff1673ffffffffffffffffffffffffffffffffffffffff16815260200190815260200160002081905550611383816001600085815260200190815260200160002060008b73ffffffffffffffffffffffffffffffffffffffff1673ffffffffffffffffffffffffffffffffffffffff1681526020019081526020016000205461357e90919063ffffffff16565b6001600084815260200190815260200160002060008a73ffffffffffffffffffffffffffffffffffffffff1673ffffffffffffffffffffffffffffffffffffffff168152602001908152602001600020819055505050806001019050611216565b508473ffffffffffffffffffffffffffffffffffffffff168673ffffffffffffffffffffffffffffffffffffffff168273ffffffffffffffffffffffffffffffffffffffff167f4a39dc06d4c0dbc64b70af90fd698a233a518aa5d07e595d983b8c0526c8f7fb8787604051808060200180602001838103835285818151815260200191508051906020019060200280838360005b83811015611494578082015181840152602081019050611479565b50505050905001838103825284818151815260200191508051906020019060200280838360005b838110156114d65780820151818401526020810190506114bb565b5050505090500194505050505060405180910390a46114f9818787878787613df7565b505050505050565b60066020528060005260406000206000915090505481565b600a60003373ffffffffffffffffffffffffffffffffffffffff1673ffffffffffffffffffffffffffffffffffffffff16815260200190815260200160002060009054906101000a900460ff16806115a357506115746122ca565b73ffffffffffffffffffffffffffffffffffffffff163373ffffffffffffffffffffffffffffffffffffffff16145b6115e2576040517f08c379a00000000000000000000000000000000000000000000000000000000081526004016115d99061595b565b60405180910390fd5b611624828260016040518060400160405280600581526020017f3078303030000000000000000000000000000000000000000000000000000000815250613606565b816008600083815260200190815260200160002060006101000a81548173ffffffffffffffffffffffffffffffffffffffff021916908373ffffffffffffffffffffffffffffffffffffffff16021790555061169d6001600560008481526020019081526020016000205461357e90919063ffffffff16565b60056000838152602001908152602001600020819055506116bd82613809565b5050565b600a60003373ffffffffffffffffffffffffffffffffffffffff1673ffffffffffffffffffffffffffffffffffffffff16815260200190815260200160002060009054906101000a900460ff168061174b575061171c6122ca565b73ffffffffffffffffffffffffffffffffffffffff163373ffffffffffffffffffffffffffffffffffffffff16145b61178a576040517f08c379a00000000000000000000000000000000000000000000000000000000081526004016117819061595b565b60405180910390fd5b61179682826001614186565b6117bd600160056000848152602001908152602001600020546143a290919063ffffffff16565b60056000838152602001908152602001600020819055506117fb6001600660008481526020019081526020016000205461357e90919063ffffffff16565b60066000838152602001908152602001600020819055506008600082815260200190815260200160002060006101000a81549073ffffffffffffffffffffffffffffffffffffffff021916905561185182613809565b5050565b606081518351146118b1576040517f08c379a0000000000000000000000000000000000000000000000000000000008152600401808060200182810382526029815260200180615f476029913960400191505060405180910390fd5b6000835167ffffffffffffffff811180156118cb57600080fd5b506040519080825280602002602001820160405280156118fa5781602001602082028036833780820191505090505b50905060005b8451811015611a3c57600073ffffffffffffffffffffffffffffffffffffffff1685828151811061192d57fe5b602002602001015173ffffffffffffffffffffffffffffffffffffffff1614156119a2576040517f08c379a0000000000000000000000000000000000000000000000000000000008152600401808060200182810382526031815260200180615dd66031913960400191505060405180910390fd5b600160008583815181106119b257fe5b6020026020010151815260200190815260200160002060008683815181106119d657fe5b602002602001015173ffffffffffffffffffffffffffffffffffffffff1673ffffffffffffffffffffffffffffffffffffffff16815260200190815260200160002054828281518110611a2557fe5b602002602001018181525050806001019050611900565b508091505092915050565b600c5481565b611a55614d77565b600b60008373ffffffffffffffffffffffffffffffffffffffff1673ffffffffffffffffffffffffffffffffffffffff16815260200190815260200160002060009054906101000a900460ff16611ae1576040517f08c379a0000000000000000000000000000000000000000000000000000000008152600401611ad89061599b565b60405180910390fd5b600e60008373ffffffffffffffffffffffffffffffffffffffff1673ffffffffffffffffffffffffffffffffffffffff1681526020019081526020016000206040518060a0016040529081600082015481526020016001820154815260200160028201548152602001600382015481526020016004820154815250509050919050565b611b6c61355c565b73ffffffffffffffffffffffffffffffffffffffff16600460009054906101000a900473ffffffffffffffffffffffffffffffffffffffff1673ffffffffffffffffffffffffffffffffffffffff1614611c2e576040517f08c379a00000000000000000000000000000000000000000000000000000000081526004018080602001828103825260208152602001807f4f776e61626c653a2063616c6c6572206973206e6f7420746865206f776e657281525060200191505060405180910390fd5b600073ffffffffffffffffffffffffffffffffffffffff168173ffffffffffffffffffffffffffffffffffffffff161415611c9e576040517f08c379a0000000000000000000000000000000000000000000000000000000008152600401611c959061597b565b60405180910390fd5b6001600a60008373ffffffffffffffffffffffffffffffffffffffff1673ffffffffffffffffffffffffffffffffffffffff16815260200190815260200160002060006101000a81548160ff021916908315150217905550600c60008154809291906001019190505550611d1181613809565b50565b611d1c61355c565b73ffffffffffffffffffffffffffffffffffffffff16600460009054906101000a900473ffffffffffffffffffffffffffffffffffffffff1673ffffffffffffffffffffffffffffffffffffffff1614611dde576040517f08c379a00000000000000000000000000000000000000000000000000000000081526004018080602001828103825260208152602001807f4f776e61626c653a2063616c6c6572206973206e6f7420746865206f776e657281525060200191505060405180910390fd5b611dea82600183613400565b6000611df7836001610811565b1415611e0757611e068261265a565b5b611e1382600083610c77565b5050565b611e1f61355c565b73ffffffffffffffffffffffffffffffffffffffff16600460009054906101000a900473ffffffffffffffffffffffffffffffffffffffff1673ffffffffffffffffffffffffffffffffffffffff1614611ee1576040517f08c379a00000000000000000000000000000000000000000000000000000000081526004018080602001828103825260208152602001807f4f776e61626c653a2063616c6c6572206973206e6f7420746865206f776e657281525060200191505060405180910390fd5b611eec8383836143ec565b60005b8251811015611ff157611f44828281518110611f0757fe5b602002602001015160056000868581518110611f1f57fe5b60200260200101518152602001908152602001600020546143a290919063ffffffff16565b60056000858481518110611f5457fe5b6020026020010151815260200190815260200160002081905550611fba828281518110611f7d57fe5b602002602001015160066000868581518110611f9557fe5b602002602001015181526020019081526020016000205461357e90919063ffffffff16565b60066000858481518110611fca57fe5b60200260200101518152602001908152602001600020819055508080600101915050611eef565b50611ffb83613809565b505050565b61200861355c565b73ffffffffffffffffffffffffffffffffffffffff16600460009054906101000a900473ffffffffffffffffffffffffffffffffffffffff1673ffffffffffffffffffffffffffffffffffffffff16146120ca576040517f08c379a00000000000000000000000000000000000000000000000000000000081526004018080602001828103825260208152602001807f4f776e61626c653a2063616c6c6572206973206e6f7420746865206f776e657281525060200191505060405180910390fd5b60005b600f8054905081101561213c576000600f82815481106120e957fe5b9060005260206000200160009054906101000a900473ffffffffffffffffffffffffffffffffffffffff169050600061212182612a3b565b905061212f82600183610c77565b50506001810190506120cd565b50565b61214761355c565b73ffffffffffffffffffffffffffffffffffffffff16600460009054906101000a900473ffffffffffffffffffffffffffffffffffffffff1673ffffffffffffffffffffffffffffffffffffffff1614612209576040517f08c379a00000000000000000000000000000000000000000000000000000000081526004018080602001828103825260208152602001807f4f776e61626c653a2063616c6c6572206973206e6f7420746865206f776e657281525060200191505060405180910390fd5b600073ffffffffffffffffffffffffffffffffffffffff16600460009054906101000a900473ffffffffffffffffffffffffffffffffffffffff1673ffffffffffffffffffffffffffffffffffffffff167f8be0079c531659141344cd1fd0a4f28419497f9722a3daafe3b4186f6b6457e060405160405180910390a36000600460006101000a81548173ffffffffffffffffffffffffffffffffffffffff021916908373ffffffffffffffffffffffffffffffffffffffff160217905550565b6000600460009054906101000a900473ffffffffffffffffffffffffffffffffffffffff16905090565b600281565b8173ffffffffffffffffffffffffffffffffffffffff1661231861355c565b73ffffffffffffffffffffffffffffffffffffffff161415612385576040517f08c379a0000000000000000000000000000000000000000000000000000000008152600401808060200182810382526029815260200180615f1e6029913960400191505060405180910390fd5b806002600061239261355c565b73ffffffffffffffffffffffffffffffffffffffff1673ffffffffffffffffffffffffffffffffffffffff16815260200190815260200160002060008473ffffffffffffffffffffffffffffffffffffffff1673ffffffffffffffffffffffffffffffffffffffff16815260200190815260200160002060006101000a81548160ff0219169083151502179055508173ffffffffffffffffffffffffffffffffffffffff1661243f61355c565b73ffffffffffffffffffffffffffffffffffffffff167f17307eab39ab6107e8899845ad3d59bd9653f200f220920489ca2b5937696c318360405180821515815260200191505060405180910390a35050565b600a6020528060005260406000206000915054906101000a900460ff1681565b6124ba61355c565b73ffffffffffffffffffffffffffffffffffffffff16600460009054906101000a900473ffffffffffffffffffffffffffffffffffffffff1673ffffffffffffffffffffffffffffffffffffffff161461257c576040517f08c379a00000000000000000000000000000000000000000000000000000000081526004018080602001828103825260208152602001807f4f776e61626c653a2063616c6c6572206973206e6f7420746865206f776e657281525060200191505060405180910390fd5b600073ffffffffffffffffffffffffffffffffffffffff168173ffffffffffffffffffffffffffffffffffffffff1614156125ec576040517f08c379a00000000000000000000000000000000000000000000000000000000081526004016125e39061597b565b60405180910390fd5b6000600a60008373ffffffffffffffffffffffffffffffffffffffff1673ffffffffffffffffffffffffffffffffffffffff16815260200190815260200160002060006101000a81548160ff021916908315150217905550600c600081548092919060019003919050555050565b60008061266683614727565b91509150811561274657600f6001600f80549050038154811061268557fe5b9060005260206000200160009054906101000a900473ffffffffffffffffffffffffffffffffffffffff16600f82815481106126bd57fe5b9060005260206000200160006101000a81548173ffffffffffffffffffffffffffffffffffffffff021916908373ffffffffffffffffffffffffffffffffffffffff160217905550600f80548061271057fe5b6001900381819060005260206000200160006101000a81549073ffffffffffffffffffffffffffffffffffffffff021916905590555b505050565b6000806000905060005b600f805490508110156127c3576127b66127a7600f838154811061277557fe5b9060005260206000200160009054906101000a900473ffffffffffffffffffffffffffffffffffffffff166001610811565b8361357e90919063ffffffff16565b9150600181019050612755565b508091505090565b60008060008360095410612814576040517f08c379a000000000000000000000000000000000000000000000000000000000815260040161280b9061593b565b60405180910390fd5b60008490506000612830600954836143a290919063ffffffff16565b9050600061285e61016d61285062015180856147cb90919063ffffffff16565b61481590919063ffffffff16565b905060006128796301e14320846147cb90919063ffffffff16565b9050600064174876e8009050600064e8d4a510009050612897614da6565b61289f614da6565b64174876e800826000601f81106128b257fe5b60200201818152505064e8d4a51000816000601f81106128ce57fe5b602002018181525050601e8511156128e557601e94505b6001851015612906578185601f81106128fa57fe5b602002015193506129e8565b6000600190505b858111612991576000606460af8560018503601f811061292957fe5b6020020151028161293657fe5b0490506000600190505b82811161296c576402540be400640248c5811383028161295c57fe5b0491508080600101915050612940565b50808483601f811061297a57fe5b60200201818152505050808060010191505061290d565b508185601f811061299e57fe5b6020020151935061016d8260018703601f81106129b757fe5b6020020151028160018703601f81106129cc57fe5b6020020151018186601f81106129de57fe5b6020020181815250505b600086850290508186601f81106129fb57fe5b602002015193508084019350670de0b6b3a76400008410612a2257670de0b6b3a764000093505b8385889b509b509b505050505050505050509193909250565b60006064612a4a836001610811565b81612a5157fe5b049050919050565b612a6161355c565b73ffffffffffffffffffffffffffffffffffffffff16600460009054906101000a900473ffffffffffffffffffffffffffffffffffffffff1673ffffffffffffffffffffffffffffffffffffffff1614612b23576040517f08c379a00000000000000000000000000000000000000000000000000000000081526004018080602001828103825260208152602001807f4f776e61626c653a2063616c6c6572206973206e6f7420746865206f776e657281525060200191505060405180910390fd5b612b2f82600083613400565b6000612b3c836001610811565b1415612b4c57612b4b82612c64565b5b612b5882600183610c77565b5050565b600081565b612b6961355c565b73ffffffffffffffffffffffffffffffffffffffff16600460009054906101000a900473ffffffffffffffffffffffffffffffffffffffff1673ffffffffffffffffffffffffffffffffffffffff1614612c2b576040517f08c379a00000000000000000000000000000000000000000000000000000000081526004018080602001828103825260208152602001807f4f776e61626c653a2063616c6c6572206973206e6f7420746865206f776e657281525060200191505060405180910390fd5b60005b8151811015612c6057612c53828281518110612c4657fe5b6020026020010151611b64565b8080600101915050612c2e565b5050565b6000612c6f82614727565b50905080612cdb57600f829080600181540180825580915050600190039060005260206000200160009091909190916101000a81548173ffffffffffffffffffffffffffffffffffffffff021916908373ffffffffffffffffffffffffffffffffffffffff1602179055505b5050565b6000600260008473ffffffffffffffffffffffffffffffffffffffff1673ffffffffffffffffffffffffffffffffffffffff16815260200190815260200160002060008373ffffffffffffffffffffffffffffffffffffffff1673ffffffffffffffffffffffffffffffffffffffff16815260200190815260200160002060009054906101000a900460ff16905092915050565b612d7b61355c565b73ffffffffffffffffffffffffffffffffffffffff16600460009054906101000a900473ffffffffffffffffffffffffffffffffffffffff1673ffffffffffffffffffffffffffffffffffffffff1614612e3d576040517f08c379a00000000000000000000000000000000000000000000000000000000081526004018080602001828103825260208152602001807f4f776e61626c653a2063616c6c6572206973206e6f7420746865206f776e657281525060200191505060405180910390fd5b60005b8151811015612e7257612e65828281518110612e5857fe5b60200260200101516124b2565b8080600101915050612e40565b5050565b600073ffffffffffffffffffffffffffffffffffffffff168473ffffffffffffffffffffffffffffffffffffffff161415612efc576040517f08c379a0000000000000000000000000000000000000000000000000000000008152600401808060200182810382526025815260200180615e7a6025913960400191505060405180910390fd5b612f0461355c565b73ffffffffffffffffffffffffffffffffffffffff168573ffffffffffffffffffffffffffffffffffffffff161480612f4a5750612f4985612f4461355c565b612cdf565b5b612f9f576040517f08c379a0000000000000000000000000000000000000000000000000000000008152600401808060200182810382526029815260200180615e516029913960400191505060405180910390fd5b6000612fa961355c565b9050612fc9818787612fba8861485f565b612fc38861485f565b87613d2f565b613046836040518060600160405280602a8152602001615ef4602a91396001600088815260200190815260200160002060008a73ffffffffffffffffffffffffffffffffffffffff1673ffffffffffffffffffffffffffffffffffffffff16815260200190815260200160002054613d379092919063ffffffff16565b6001600086815260200190815260200160002060008873ffffffffffffffffffffffffffffffffffffffff1673ffffffffffffffffffffffffffffffffffffffff168152602001908152602001600020819055506130fd836001600087815260200190815260200160002060008873ffffffffffffffffffffffffffffffffffffffff1673ffffffffffffffffffffffffffffffffffffffff1681526020019081526020016000205461357e90919063ffffffff16565b6001600086815260200190815260200160002060008773ffffffffffffffffffffffffffffffffffffffff1673ffffffffffffffffffffffffffffffffffffffff168152602001908152602001600020819055508473ffffffffffffffffffffffffffffffffffffffff168673ffffffffffffffffffffffffffffffffffffffff168273ffffffffffffffffffffffffffffffffffffffff167fc3d58168c5ae7397731d063d5bbf3d657854427343f4c083240f7aacaa2d0f628787604051808381526020018281526020019250505060405180910390a46131e38187878787876148d0565b505050505050565b6131f361355c565b73ffffffffffffffffffffffffffffffffffffffff16600460009054906101000a900473ffffffffffffffffffffffffffffffffffffffff1673ffffffffffffffffffffffffffffffffffffffff16146132b5576040517f08c379a00000000000000000000000000000000000000000000000000000000081526004018080602001828103825260208152602001807f4f776e61626c653a2063616c6c6572206973206e6f7420746865206f776e657281525060200191505060405180910390fd5b600073ffffffffffffffffffffffffffffffffffffffff168173ffffffffffffffffffffffffffffffffffffffff16141561333b576040517f08c379a0000000000000000000000000000000000000000000000000000000008152600401808060200182810382526026815260200180615e076026913960400191505060405180910390fd5b8073ffffffffffffffffffffffffffffffffffffffff16600460009054906101000a900473ffffffffffffffffffffffffffffffffffffffff1673ffffffffffffffffffffffffffffffffffffffff167f8be0079c531659141344cd1fd0a4f28419497f9722a3daafe3b4186f6b6457e060405160405180910390a380600460006101000a81548173ffffffffffffffffffffffffffffffffffffffff021916908373ffffffffffffffffffffffffffffffffffffffff16021790555050565b600181565b600a60003373ffffffffffffffffffffffffffffffffffffffff1673ffffffffffffffffffffffffffffffffffffffff16815260200190815260200160002060009054906101000a900460ff168061348a575061345b6122ca565b73ffffffffffffffffffffffffffffffffffffffff163373ffffffffffffffffffffffffffffffffffffffff16145b6134c9576040517f08c379a00000000000000000000000000000000000000000000000000000000081526004016134c09061595b565b60405180910390fd5b6134d4838383614186565b6134fa8160056000858152602001908152602001600020546143a290919063ffffffff16565b600560008481526020019081526020016000208190555061353781600660008581526020019081526020016000205461357e90919063ffffffff16565b600660008481526020019081526020016000208190555061355783613809565b505050565b600033905090565b806003908051906020019061357a929190614dc9565b5050565b6000808284019050838110156135fc576040517f08c379a000000000000000000000000000000000000000000000000000000000815260040180806020018281038252601b8152602001807f536166654d6174683a206164646974696f6e206f766572666c6f77000000000081525060200191505060405180910390fd5b8091505092915050565b600073ffffffffffffffffffffffffffffffffffffffff168473ffffffffffffffffffffffffffffffffffffffff16141561368c576040517f08c379a0000000000000000000000000000000000000000000000000000000008152600401808060200182810382526021815260200180615f986021913960400191505060405180910390fd5b600061369661355c565b90506136b7816000876136a88861485f565b6136b18861485f565b87613d2f565b61371a836001600087815260200190815260200160002060008873ffffffffffffffffffffffffffffffffffffffff1673ffffffffffffffffffffffffffffffffffffffff1681526020019081526020016000205461357e90919063ffffffff16565b6001600086815260200190815260200160002060008773ffffffffffffffffffffffffffffffffffffffff1673ffffffffffffffffffffffffffffffffffffffff168152602001908152602001600020819055508473ffffffffffffffffffffffffffffffffffffffff16600073ffffffffffffffffffffffffffffffffffffffff168273ffffffffffffffffffffffffffffffffffffffff167fc3d58168c5ae7397731d063d5bbf3d657854427343f4c083240f7aacaa2d0f628787604051808381526020018281526020019250505060405180910390a4613802816000878787876148d0565b5050505050565b600b60008273ffffffffffffffffffffffffffffffffffffffff1673ffffffffffffffffffffffffffffffffffffffff16815260200190815260200160002060009054906101000a900460ff16156138dd576000600e60008373ffffffffffffffffffffffffffffffffffffffff1673ffffffffffffffffffffffffffffffffffffffff16815260200190815260200160002090506138a9826000610811565b81600001819055506138bc826001610811565b81600101819055506138cf826002610811565b816002018190555050613a0a565b6001600b60008373ffffffffffffffffffffffffffffffffffffffff1673ffffffffffffffffffffffffffffffffffffffff16815260200190815260200160002060006101000a81548160ff021916908315150217905550600d6000815480929190600101919050555060006040518060a0016040528061395f846000610811565b815260200161396f846001610811565b815260200161397f846002610811565b8152602001600d5481526020016000815250905080600e60008473ffffffffffffffffffffffffffffffffffffffff1673ffffffffffffffffffffffffffffffffffffffff1681526020019081526020016000206000820151816000015560208201518160010155604082015181600201556060820151816003015560808201518160040155905050505b50565b600073ffffffffffffffffffffffffffffffffffffffff168473ffffffffffffffffffffffffffffffffffffffff161415613a93576040517f08c379a0000000000000000000000000000000000000000000000000000000008152600401808060200182810382526021815260200180615f986021913960400191505060405180910390fd5b8151835114613aed576040517f08c379a0000000000000000000000000000000000000000000000000000000008152600401808060200182810382526028815260200180615f706028913960400191505060405180910390fd5b6000613af761355c565b9050613b0881600087878787613d2f565b60005b8451811015613c1157613b9d60016000878481518110613b2757fe5b6020026020010151815260200190815260200160002060008873ffffffffffffffffffffffffffffffffffffffff1673ffffffffffffffffffffffffffffffffffffffff16815260200190815260200160002054858381518110613b8757fe5b602002602001015161357e90919063ffffffff16565b60016000878481518110613bad57fe5b6020026020010151815260200190815260200160002060008873ffffffffffffffffffffffffffffffffffffffff1673ffffffffffffffffffffffffffffffffffffffff168152602001908152602001600020819055508080600101915050613b0b565b508473ffffffffffffffffffffffffffffffffffffffff16600073ffffffffffffffffffffffffffffffffffffffff168273ffffffffffffffffffffffffffffffffffffffff167f4a39dc06d4c0dbc64b70af90fd698a233a518aa5d07e595d983b8c0526c8f7fb8787604051808060200180602001838103835285818151815260200191508051906020019060200280838360005b83811015613cc2578082015181840152602081019050613ca7565b50505050905001838103825284818151815260200191508051906020019060200280838360005b83811015613d04578082015181840152602081019050613ce9565b5050505090500194505050505060405180910390a4613d2881600087878787613df7565b5050505050565b505050505050565b6000838311158290613de4576040517f08c379a00000000000000000000000000000000000000000000000000000000081526004018080602001828103825283818151815260200191508051906020019080838360005b83811015613da9578082015181840152602081019050613d8e565b50505050905090810190601f168015613dd65780820380516001836020036101000a031916815260200191505b509250505060405180910390fd5b5060008385039050809150509392505050565b613e168473ffffffffffffffffffffffffffffffffffffffff16614bdd565b1561417e578373ffffffffffffffffffffffffffffffffffffffff1663bc197c8187878686866040518663ffffffff1660e01b8152600401808673ffffffffffffffffffffffffffffffffffffffff1681526020018573ffffffffffffffffffffffffffffffffffffffff168152602001806020018060200180602001848103845287818151815260200191508051906020019060200280838360005b83811015613ece578082015181840152602081019050613eb3565b50505050905001848103835286818151815260200191508051906020019060200280838360005b83811015613f10578082015181840152602081019050613ef5565b50505050905001848103825285818151815260200191508051906020019080838360005b83811015613f4f578082015181840152602081019050613f34565b50505050905090810190601f168015613f7c5780820380516001836020036101000a031916815260200191505b5098505050505050505050602060405180830381600087803b158015613fa157600080fd5b505af1925050508015613fd557506040513d6020811015613fc157600080fd5b810190808051906020019092919050505060015b6140df57613fe1615c3c565b80613fec575061408e565b806040517f08c379a00000000000000000000000000000000000000000000000000000000081526004018080602001828103825283818151815260200191508051906020019080838360005b83811015614053578082015181840152602081019050614038565b50505050905090810190601f1680156140805780820380516001836020036101000a031916815260200191505b509250505060405180910390fd5b6040517f08c379a0000000000000000000000000000000000000000000000000000000008152600401808060200182810382526034815260200180615d4f6034913960400191505060405180910390fd5b63bc197c8160e01b7bffffffffffffffffffffffffffffffffffffffffffffffffffffffff1916817bffffffffffffffffffffffffffffffffffffffffffffffffffffffff19161461417c576040517f08c379a0000000000000000000000000000000000000000000000000000000008152600401808060200182810382526028815260200180615d836028913960400191505060405180910390fd5b505b505050505050565b600073ffffffffffffffffffffffffffffffffffffffff168373ffffffffffffffffffffffffffffffffffffffff16141561420c576040517f08c379a0000000000000000000000000000000000000000000000000000000008152600401808060200182810382526023815260200180615ed16023913960400191505060405180910390fd5b600061421661355c565b9050614246818560006142288761485f565b6142318761485f565b60405180602001604052806000815250613d2f565b6142c382604051806060016040528060248152602001615e2d602491396001600087815260200190815260200160002060008873ffffffffffffffffffffffffffffffffffffffff1673ffffffffffffffffffffffffffffffffffffffff16815260200190815260200160002054613d379092919063ffffffff16565b6001600085815260200190815260200160002060008673ffffffffffffffffffffffffffffffffffffffff1673ffffffffffffffffffffffffffffffffffffffff16815260200190815260200160002081905550600073ffffffffffffffffffffffffffffffffffffffff168473ffffffffffffffffffffffffffffffffffffffff168273ffffffffffffffffffffffffffffffffffffffff167fc3d58168c5ae7397731d063d5bbf3d657854427343f4c083240f7aacaa2d0f628686604051808381526020018281526020019250505060405180910390a450505050565b60006143e483836040518060400160405280601e81526020017f536166654d6174683a207375627472616374696f6e206f766572666c6f770000815250613d37565b905092915050565b600073ffffffffffffffffffffffffffffffffffffffff168373ffffffffffffffffffffffffffffffffffffffff161415614472576040517f08c379a0000000000000000000000000000000000000000000000000000000008152600401808060200182810382526023815260200180615ed16023913960400191505060405180910390fd5b80518251146144cc576040517f08c379a0000000000000000000000000000000000000000000000000000000008152600401808060200182810382526028815260200180615f706028913960400191505060405180910390fd5b60006144d661355c565b90506144f681856000868660405180602001604052806000815250613d2f565b60005b8351811015614619576145a583828151811061451157fe5b6020026020010151604051806060016040528060248152602001615e2d602491396001600088868151811061454257fe5b6020026020010151815260200190815260200160002060008973ffffffffffffffffffffffffffffffffffffffff1673ffffffffffffffffffffffffffffffffffffffff16815260200190815260200160002054613d379092919063ffffffff16565b600160008684815181106145b557fe5b6020026020010151815260200190815260200160002060008773ffffffffffffffffffffffffffffffffffffffff1673ffffffffffffffffffffffffffffffffffffffff1681526020019081526020016000208190555080806001019150506144f9565b50600073ffffffffffffffffffffffffffffffffffffffff168473ffffffffffffffffffffffffffffffffffffffff168273ffffffffffffffffffffffffffffffffffffffff167f4a39dc06d4c0dbc64b70af90fd698a233a518aa5d07e595d983b8c0526c8f7fb8686604051808060200180602001838103835285818151815260200191508051906020019060200280838360005b838110156146ca5780820151818401526020810190506146af565b50505050905001838103825284818151815260200191508051906020019060200280838360005b8381101561470c5780820151818401526020810190506146f1565b5050505090500194505050505060405180910390a450505050565b60008060005b600f805490508110156147bd57600f818154811061474757fe5b9060005260206000200160009054906101000a900473ffffffffffffffffffffffffffffffffffffffff1673ffffffffffffffffffffffffffffffffffffffff168473ffffffffffffffffffffffffffffffffffffffff1614156147b25760018192509250506147c6565b60018101905061472d565b50600080915091505b915091565b600061480d83836040518060400160405280601a81526020017f536166654d6174683a206469766973696f6e206279207a65726f000000000000815250614bf0565b905092915050565b600061485783836040518060400160405280601881526020017f536166654d6174683a206d6f64756c6f206279207a65726f0000000000000000815250614cb6565b905092915050565b60606000600167ffffffffffffffff8111801561487b57600080fd5b506040519080825280602002602001820160405280156148aa5781602001602082028036833780820191505090505b50905082816000815181106148bb57fe5b60200260200101818152505080915050919050565b6148ef8473ffffffffffffffffffffffffffffffffffffffff16614bdd565b15614bd5578373ffffffffffffffffffffffffffffffffffffffff1663f23a6e6187878686866040518663ffffffff1660e01b8152600401808673ffffffffffffffffffffffffffffffffffffffff1681526020018573ffffffffffffffffffffffffffffffffffffffff16815260200184815260200183815260200180602001828103825283818151815260200191508051906020019080838360005b838110156149a857808201518184015260208101905061498d565b50505050905090810190601f1680156149d55780820380516001836020036101000a031916815260200191505b509650505050505050602060405180830381600087803b1580156149f857600080fd5b505af1925050508015614a2c57506040513d6020811015614a1857600080fd5b810190808051906020019092919050505060015b614b3657614a38615c3c565b80614a435750614ae5565b806040517f08c379a00000000000000000000000000000000000000000000000000000000081526004018080602001828103825283818151815260200191508051906020019080838360005b83811015614aaa578082015181840152602081019050614a8f565b50505050905090810190601f168015614ad75780820380516001836020036101000a031916815260200191505b509250505060405180910390fd5b6040517f08c379a0000000000000000000000000000000000000000000000000000000008152600401808060200182810382526034815260200180615d4f6034913960400191505060405180910390fd5b63f23a6e6160e01b7bffffffffffffffffffffffffffffffffffffffffffffffffffffffff1916817bffffffffffffffffffffffffffffffffffffffffffffffffffffffff191614614bd3576040517f08c379a0000000000000000000000000000000000000000000000000000000008152600401808060200182810382526028815260200180615d836028913960400191505060405180910390fd5b505b505050505050565b600080823b905060008111915050919050565b60008083118290614c9c576040517f08c379a00000000000000000000000000000000000000000000000000000000081526004018080602001828103825283818151815260200191508051906020019080838360005b83811015614c61578082015181840152602081019050614c46565b50505050905090810190601f168015614c8e5780820380516001836020036101000a031916815260200191505b509250505060405180910390fd5b506000838581614ca857fe5b049050809150509392505050565b6000808314158290614d63576040517f08c379a00000000000000000000000000000000000000000000000000000000081526004018080602001828103825283818151815260200191508051906020019080838360005b83811015614d28578082015181840152602081019050614d0d565b50505050905090810190601f168015614d555780820380516001836020036101000a031916815260200191505b509250505060405180910390fd5b50828481614d6d57fe5b0690509392505050565b6040518060a0016040528060008152602001600081526020016000815260200160008152602001600081525090565b604051806103e00160405280601f90602082028036833780820191505090505090565b828054600181600116156101000203166002900490600052602060002090601f016020900481019282614dff5760008555614e46565b82601f10614e1857805160ff1916838001178555614e46565b82800160010185558215614e46579182015b82811115614e45578251825591602001919060010190614e2a565b5b509050614e539190614e57565b5090565b5b80821115614e70576000816000905550600101614e58565b5090565b6000614e87614e8284615a59565b615a28565b90508083825260208201905082856020860282011115614ea657600080fd5b60005b85811015614ed65781614ebc8882614fc8565b845260208401935060208301925050600181019050614ea9565b5050509392505050565b6000614ef3614eee84615a85565b615a28565b90508083825260208201905082856020860282011115614f1257600080fd5b60005b85811015614f425781614f2888826150af565b845260208401935060208301925050600181019050614f15565b5050509392505050565b6000614f5f614f5a84615ab1565b615a28565b905082815260208101848484011115614f7757600080fd5b614f82848285615bda565b509392505050565b6000614f9d614f9884615ae1565b615a28565b905082815260208101848484011115614fb557600080fd5b614fc0848285615bda565b509392505050565b600081359050614fd781615cf2565b92915050565b600082601f830112614fee57600080fd5b8135614ffe848260208601614e74565b91505092915050565b600082601f83011261501857600080fd5b8135615028848260208601614ee0565b91505092915050565b60008135905061504081615d09565b92915050565b60008135905061505581615d20565b92915050565b600082601f83011261506c57600080fd5b813561507c848260208601614f4c565b91505092915050565b600082601f83011261509657600080fd5b81356150a6848260208601614f8a565b91505092915050565b6000813590506150be81615d37565b92915050565b6000602082840312156150d657600080fd5b60006150e484828501614fc8565b91505092915050565b6000806040838503121561510057600080fd5b600061510e85828601614fc8565b925050602061511f85828601614fc8565b9150509250929050565b600080600080600060a0868803121561514157600080fd5b600061514f88828901614fc8565b955050602061516088828901614fc8565b945050604086013567ffffffffffffffff81111561517d57600080fd5b61518988828901615007565b935050606086013567ffffffffffffffff8111156151a657600080fd5b6151b288828901615007565b925050608086013567ffffffffffffffff8111156151cf57600080fd5b6151db8882890161505b565b9150509295509295909350565b600080600080600060a0868803121561520057600080fd5b600061520e88828901614fc8565b955050602061521f88828901614fc8565b9450506040615230888289016150af565b9350506060615241888289016150af565b925050608086013567ffffffffffffffff81111561525e57600080fd5b61526a8882890161505b565b9150509295509295909350565b6000806040838503121561528a57600080fd5b600061529885828601614fc8565b925050602083013567ffffffffffffffff8111156152b557600080fd5b6152c185828601615007565b9150509250929050565b6000806000606084860312156152e057600080fd5b60006152ee86828701614fc8565b935050602084013567ffffffffffffffff81111561530b57600080fd5b61531786828701615007565b925050604084013567ffffffffffffffff81111561533457600080fd5b61534086828701615007565b9150509250925092565b6000806000806080858703121561536057600080fd5b600061536e87828801614fc8565b945050602085013567ffffffffffffffff81111561538b57600080fd5b61539787828801615007565b935050604085013567ffffffffffffffff8111156153b457600080fd5b6153c087828801615007565b925050606085013567ffffffffffffffff8111156153dd57600080fd5b6153e98782880161505b565b91505092959194509250565b6000806040838503121561540857600080fd5b600061541685828601614fc8565b925050602061542785828601615031565b9150509250929050565b6000806040838503121561544457600080fd5b600061545285828601614fc8565b9250506020615463858286016150af565b9150509250929050565b60008060006060848603121561548257600080fd5b600061549086828701614fc8565b93505060206154a1868287016150af565b92505060406154b2868287016150af565b9150509250925092565b6000602082840312156154ce57600080fd5b600082013567ffffffffffffffff8111156154e857600080fd5b6154f484828501614fdd565b91505092915050565b6000806040838503121561551057600080fd5b600083013567ffffffffffffffff81111561552a57600080fd5b61553685828601614fdd565b925050602083013567ffffffffffffffff81111561555357600080fd5b61555f85828601615007565b9150509250929050565b60006020828403121561557b57600080fd5b600061558984828501615046565b91505092915050565b6000602082840312156155a457600080fd5b600082013567ffffffffffffffff8111156155be57600080fd5b6155ca84828501615085565b91505092915050565b6000602082840312156155e557600080fd5b60006155f3848285016150af565b91505092915050565b600061560883836158a3565b60208301905092915050565b61561d81615b66565b82525050565b600061562e82615b21565b6156388185615b44565b935061564383615b11565b8060005b8381101561567457815161565b88826155fc565b975061566683615b37565b925050600181019050615647565b5085935050505092915050565b61568a81615b78565b82525050565b600061569b82615b2c565b6156a58185615b55565b93506156b5818560208601615be9565b6156be81615c1e565b840191505092915050565b60006156d6603583615b55565b91507f4572726f722c2073656c65637465642064617465206973206c6f77657220746860008301527f616e20746f6b656e207075626c697368206461746500000000000000000000006020830152604082019050919050565b600061573c602c83615b55565b91507f536f7272792c20746869732061646472657373206973206e6f74206f6e20746860008301527f652077686974656c6973742e00000000000000000000000000000000000000006020830152604082019050919050565b60006157a2601783615b55565b91507f416464726573732063616e206e6f74206265207a65726f0000000000000000006000830152602082019050919050565b60006157e2602983615b55565b91507f6572726f723a205573657220646f6573206e6f74206578697374206f6e20636860008301527f61696e20646174612e00000000000000000000000000000000000000000000006020830152604082019050919050565b60a08201600082015161585160008501826158a3565b50602082015161586460208501826158a3565b50604082015161587760408501826158a3565b50606082015161588a60608501826158a3565b50608082015161589d60808501826158a3565b50505050565b6158ac81615bd0565b82525050565b6158bb81615bd0565b82525050565b60006020820190506158d66000830184615614565b92915050565b600060208201905081810360008301526158f68184615623565b905092915050565b60006020820190506159136000830184615681565b92915050565b600060208201905081810360008301526159338184615690565b905092915050565b60006020820190508181036000830152615954816156c9565b9050919050565b600060208201905081810360008301526159748161572f565b9050919050565b6000602082019050818103600083015261599481615795565b9050919050565b600060208201905081810360008301526159b4816157d5565b9050919050565b600060a0820190506159d0600083018461583b565b92915050565b60006020820190506159eb60008301846158b2565b92915050565b6000606082019050615a0660008301866158b2565b615a1360208301856158b2565b615a2060408301846158b2565b949350505050565b6000604051905081810181811067ffffffffffffffff82111715615a4f57615a4e615c1c565b5b8060405250919050565b600067ffffffffffffffff821115615a7457615a73615c1c565b5b602082029050602081019050919050565b600067ffffffffffffffff821115615aa057615a9f615c1c565b5b602082029050602081019050919050565b600067ffffffffffffffff821115615acc57615acb615c1c565b5b601f19601f8301169050602081019050919050565b600067ffffffffffffffff821115615afc57615afb615c1c565b5b601f19601f8301169050602081019050919050565b6000819050602082019050919050565b600081519050919050565b600081519050919050565b6000602082019050919050565b600082825260208201905092915050565b600082825260208201905092915050565b6000615b7182615bb0565b9050919050565b60008115159050919050565b60007fffffffff0000000000000000000000000000000000000000000000000000000082169050919050565b600073ffffffffffffffffffffffffffffffffffffffff82169050919050565b6000819050919050565b82818337600083830152505050565b60005b83811015615c07578082015181840152602081019050615bec565b83811115615c16576000848401525b50505050565bfe5b6000601f19601f8301169050919050565b60008160e01c9050919050565b600060443d1015615c4c57615cef565b60046000803e615c5d600051615c2f565b6308c379a08114615c6e5750615cef565b60405160043d036004823e80513d602482011167ffffffffffffffff82111715615c9a57505050615cef565b808201805167ffffffffffffffff811115615cb9575050505050615cef565b8060208301013d8501811115615cd457505050505050615cef565b615cdd82615c1e565b60208401016040528296505050505050505b90565b615cfb81615b66565b8114615d0657600080fd5b50565b615d1281615b78565b8114615d1d57600080fd5b50565b615d2981615b84565b8114615d3457600080fd5b50565b615d4081615bd0565b8114615d4b57600080fd5b5056fe455243313135353a207472616e7366657220746f206e6f6e2045524331313535526563656976657220696d706c656d656e746572455243313135353a204552433131353552656365697665722072656a656374656420746f6b656e73455243313135353a2062616c616e636520717565727920666f7220746865207a65726f2061646472657373455243313135353a2062617463682062616c616e636520717565727920666f7220746865207a65726f20616464726573734f776e61626c653a206e6577206f776e657220697320746865207a65726f2061646472657373455243313135353a206275726e20616d6f756e7420657863656564732062616c616e6365455243313135353a2063616c6c6572206973206e6f74206f776e6572206e6f7220617070726f766564455243313135353a207472616e7366657220746f20746865207a65726f2061646472657373455243313135353a207472616e736665722063616c6c6572206973206e6f74206f776e6572206e6f7220617070726f766564455243313135353a206275726e2066726f6d20746865207a65726f2061646472657373455243313135353a20696e73756666696369656e742062616c616e636520666f72207472616e73666572455243313135353a2073657474696e6720617070726f76616c2073746174757320666f722073656c66455243313135353a206163636f756e747320616e6420696473206c656e677468206d69736d61746368455243313135353a2069647320616e6420616d6f756e7473206c656e677468206d69736d61746368455243313135353a206d696e7420746f20746865207a65726f2061646472657373a264697066735822122091f659ac4095ae9567bc3ae2cf4b366b15b2a6a8afd34ff5e1f0dab2c538b1b764736f6c63430007060033455243313135353a2062616c616e636520717565727920666f7220746865207a65726f2061646472657373",
  "immutableReferences": {},
  "source": "// SPDX-License-Identifier: MIT\r\npragma solidity >=0.6.0 <0.8.0;\r\npragma experimental ABIEncoderV2;\r\nimport \"@openzeppelin/contracts/access/Ownable.sol\";\r\nimport \"@openzeppelin/contracts/math/SafeMath.sol\";\r\nimport \"@openzeppelin/contracts/token/ERC1155/ERC1155.sol\";\r\ncontract CimpleDAO is ERC1155, Ownable {\r\n    using SafeMath for uint256;\r\n    //token id \r\n    uint256 public constant Cimple = 0;\r\n    uint256 public constant stCimple = 1;\r\n    uint256 public constant CMPG = 2;\r\n    // total amount both mint and burn\r\n    mapping(uint256 => uint256) public tokenSupply;\r\n    mapping(uint256 => uint256) public tokenBurn;\r\n    mapping(uint256 => uint256) public tokenSupplyLimit;\r\n    mapping(uint256 => address) nftOwners;\r\n\r\n    uint256 private deployedStartTimeStamp; // contract deployed timestamp * this is in need to calculate cimpleIR, etc\r\n    uint256 private constant oneSecondTimeStamp = 1; \r\n    uint256 private constant oneDayTimeStamp = 864 * 1e2; // timestamp per day\r\n    uint256 private constant oneYearTimeStamp = 3154 * 1e4; // timestamp per year\r\n    //whitelist    \r\n    mapping(address => bool) public mintRoleList;\r\n    mapping(address => bool) public registeredUsers;\r\n    uint256 public totalMintRoleList;\r\n\r\n    // user info structure\r\n    struct UserDetail {\r\n        uint256 cimpleValue;\r\n        uint256 stCimpleValue;\r\n        uint256 CMPGValue;\r\n        uint256 referralID;\r\n        uint256 referredBy;\r\n    }\r\n    uint256 private currentReferralIDIndex;\r\n    mapping (address=>UserDetail) private usersInfo;\r\n\r\n    //staking part config\r\n    address[] internal stakeholders; \r\n    // End staking part config\r\n\r\n    // mintable modifier\r\n    modifier mintable() {\r\n        require(mintRoleList[msg.sender] || msg.sender == owner(), 'Sorry, this address is not on the whitelist.');\r\n        _;\r\n    }\r\n\r\n    // event calculatedCimpleIR (uint256 indexed ciIR, uint256 curTimeStamp);\r\n    constructor() ERC1155(\"\") {\r\n        deployedStartTimeStamp = block.timestamp;\r\n        tokenSupplyLimit[CMPG] = 1e8;\r\n        _addOrUpdateUserInfo(msg.sender);\r\n    }\r\n\r\n    /** Add multiple addresses to mintableRoleList */\r\n    function multipleAddressesToMintableRoleList(address[] memory addresses) public onlyOwner {\r\n        for(uint256 i =0; i < addresses.length; i++) {\r\n            singleAddressToMintableRoleList(addresses[i]);\r\n        }\r\n    }\r\n\r\n    /** Add single address to mintableRoleList */\r\n    function singleAddressToMintableRoleList(address userAddress) public onlyOwner {\r\n        require(userAddress != address(0), \"Address can not be zero\");\r\n        mintRoleList[userAddress] = true;\r\n        totalMintRoleList++;\r\n        _addOrUpdateUserInfo(userAddress);\r\n    }\r\n\r\n    /** Remove multiple addresses from mintableRoleList */\r\n    function removeAddressesFromMintableRoleList(address[] memory addresses) public onlyOwner {\r\n        for(uint i =0; i<addresses.length; i++) {\r\n            removeAddressFromMintableRoleList(addresses[i]);\r\n        }\r\n    }\r\n\r\n    /** Remove single address from mintableRoleList */\r\n    function removeAddressFromMintableRoleList(address userAddress) public onlyOwner {\r\n        require(userAddress != address(0), \"Address can not be zero\");\r\n        mintRoleList[userAddress] = false;\r\n        totalMintRoleList--;\r\n    }\r\n    function setURI(string memory newuri) public onlyOwner {\r\n        _setURI(newuri);\r\n    }\r\n    // Mint FT and NFT including batch minting functions\r\n    function mint(address account, uint256 id, uint256 amount) public mintable {\r\n        _mint(account, id, amount, \"0x000\");\r\n        tokenSupply[id] = tokenSupply[id].add(amount);\r\n        _addOrUpdateUserInfo(account);\r\n    }\r\n\r\n    function mintNFT(address account, uint256 id) public mintable {\r\n        _mint(account, id, 1, \"0x000\");\r\n        nftOwners[id] = account;\r\n        tokenSupply[id] = tokenSupply[id].add(1);\r\n        _addOrUpdateUserInfo(account);\r\n    }\r\n\r\n    function mintBatch(address to, uint256[] memory ids, uint256[] memory amounts, bytes memory data) public onlyOwner {\r\n        _mintBatch(to, ids, amounts, data);\r\n        for(uint256 i = 0; i < ids.length; i++){\r\n            tokenSupply[ids[i]] = tokenSupply[ids[i]].add(amounts[i]);\r\n        }\r\n        _addOrUpdateUserInfo(to);\r\n    }\r\n    function mintBatchNFT(address to, uint256[] memory ids) public onlyOwner {\r\n        for(uint256 i = 0; i < ids.length; i++){\r\n            mintNFT(to, ids[i]);\r\n        }\r\n    }\r\n    // Burn FT and NFT function\r\n    function burn(address account, uint256 id, uint256 amount) public mintable {\r\n        _burn(account, id, amount);\r\n        tokenSupply[id] = tokenSupply[id].sub(amount);\r\n        tokenBurn[id] = tokenBurn[id].add(amount);\r\n        _addOrUpdateUserInfo(account);\r\n    }\r\n    function burnNFT(address account, uint256 id) public mintable {\r\n        _burn(account, id, 1);\r\n        tokenSupply[id] = tokenSupply[id].sub(1);\r\n        tokenBurn[id] = tokenBurn[id].add(1);\r\n        delete nftOwners[id];\r\n        _addOrUpdateUserInfo(account);\r\n    }\r\n\r\n    function burnBatch(address from, uint256[] memory ids, uint256[] memory amounts) public onlyOwner {\r\n        _burnBatch(from, ids, amounts);\r\n        for(uint256 i = 0; i < ids.length; i++){\r\n            tokenSupply[ids[i]] = tokenSupply[ids[i]].sub(amounts[i]);\r\n            tokenBurn[ids[i]] = tokenBurn[ids[i]].add(amounts[i]);\r\n        }\r\n        _addOrUpdateUserInfo(from);\r\n    }\r\n    function burnBatchNFT(address from, uint256[] memory ids) public onlyOwner {\r\n        for(uint256 i = 0; i < ids.length; i++){\r\n            burnNFT(from, ids[i]);\r\n        }\r\n    }\r\n    // implementation issuance/redemption rate\r\n    function calculateCimpleIR(uint256 _currentTimeStamp) external view returns( uint256, uint256, uint256 ) {\r\n    // require(msg.sender==minter, 'Error, msg.sender does not have minter role'); //dBank\r\n        require(deployedStartTimeStamp < _currentTimeStamp, 'Error, selected date is lower than token publish date'); //dBank\r\n        uint256 currentTimeStamp = _currentTimeStamp;\r\n        uint256 periodTimeStamp = currentTimeStamp.sub(deployedStartTimeStamp);\r\n        uint256 usedDayCount = periodTimeStamp.div(oneDayTimeStamp).mod(365);\r\n        uint256 usedYearCount = periodTimeStamp.div(oneYearTimeStamp);\r\n        uint256 stepPrice = 1e11;\r\n        uint256 cimpleIR = 1e12;\r\n        uint256[31] memory additionalDailyRatePerYear;\r\n        uint256[31] memory baseCimpleIRForNewYear;\r\n        additionalDailyRatePerYear[0] = 1e11;\r\n        baseCimpleIRForNewYear[0] = 1e12;\r\n        if(usedYearCount > 30) {\r\n            usedYearCount = 30;\r\n        }\r\n        if(usedYearCount < uint256(1)){\r\n            stepPrice = additionalDailyRatePerYear[usedYearCount];\r\n        }else{\r\n            for (uint256 i = 1; i <= usedYearCount; i++) {\r\n                uint256 temp = additionalDailyRatePerYear[i - 1] * 175 / 100;\r\n                for (uint256 index = 1; index <= i; index++) {\r\n                    temp = temp * 9810837779 / 1e10;\r\n                }\r\n                additionalDailyRatePerYear[i] = temp;\r\n            }\r\n            stepPrice = additionalDailyRatePerYear[usedYearCount];\r\n            baseCimpleIRForNewYear[usedYearCount] = baseCimpleIRForNewYear[usedYearCount - 1] +  additionalDailyRatePerYear[usedYearCount - 1] * 365;\r\n        }\r\n        uint256 deltaIR = stepPrice * usedDayCount;\r\n        cimpleIR = baseCimpleIRForNewYear[usedYearCount];\r\n        cimpleIR = cimpleIR + deltaIR;\r\n        if(cimpleIR >= 1e18) {\r\n            cimpleIR = 1e18;\r\n        }\r\n        return (cimpleIR, stepPrice, usedDayCount);\r\n    }\r\n    // ADD, EDIT, DELETE \r\n    function _addOrUpdateUserInfo(address userAddress) internal {\r\n        if(registeredUsers[userAddress]){\r\n            UserDetail storage tempUser = usersInfo[userAddress];\r\n            tempUser.cimpleValue = balanceOf(userAddress, Cimple);\r\n            tempUser.stCimpleValue = balanceOf(userAddress, stCimple);\r\n            tempUser.CMPGValue = balanceOf(userAddress, CMPG);\r\n        }else{\r\n            registeredUsers[userAddress] = true;\r\n            currentReferralIDIndex++;\r\n            UserDetail memory tempUser = UserDetail(balanceOf(userAddress, Cimple), balanceOf(userAddress, stCimple), balanceOf(userAddress, CMPG), currentReferralIDIndex, 0);\r\n            usersInfo[userAddress] = tempUser;\r\n        }\r\n        \r\n    }\r\n\r\n    function getUserInfo(address userAddress) external view returns( UserDetail memory tempUserInfo ) {\r\n        require(registeredUsers[userAddress], \"error: User does not exist on chain data.\");\r\n        tempUserInfo = usersInfo[userAddress];\r\n        return tempUserInfo;\r\n    }\r\n\r\n    // staking part is here ===================\r\n    /**\r\n    * @notice A method to check if an address is a stakeholder.\r\n    * @param _address The address to verify.\r\n    * @return bool, uint256 Whether the address is a stakeholder,\r\n    * and if so its position in the stakeholders array.\r\n    */\r\n    function isStakeholder(address _address) internal view returns(bool, uint256) {\r\n       for (uint256 s = 0; s < stakeholders.length; s += 1){\r\n           if (_address == stakeholders[s]) return (true, s);\r\n       }\r\n       return (false, 0);\r\n    }\r\n    /**\r\n    * @notice A method to add a stakeholder.\r\n    * @param _stakeholder The stakeholder to add.\r\n    */\r\n    function addStakeholder(address _stakeholder) public {\r\n        (bool _isStakeholder, ) = isStakeholder(_stakeholder);\r\n        if(!_isStakeholder) stakeholders.push(_stakeholder);\r\n    }\r\n\r\n    /**\r\n        * @notice A method to remove a stakeholder.\r\n        * @param _stakeholder The stakeholder to remove.\r\n        */\r\n    function removeStakeholder(address _stakeholder) public {\r\n        (bool _isStakeholder, uint256 s) = isStakeholder(_stakeholder);\r\n        if(_isStakeholder){\r\n            stakeholders[s] = stakeholders[stakeholders.length - 1];\r\n            stakeholders.pop();\r\n        }\r\n    }\r\n    /**\r\n        * @notice A method to the aggregated stakes from all stakeholders.\r\n        * @return uint256 The aggregated stakes from all stakeholders.\r\n        */\r\n    function totalStakes() public view returns(uint256) {\r\n       uint256 _totalStakes = 0;\r\n       for (uint256 s = 0; s < stakeholders.length; s += 1){\r\n           _totalStakes = _totalStakes.add(balanceOf(stakeholders[s], stCimple));\r\n       }\r\n       return _totalStakes;\r\n    }\r\n    /**\r\n    * @notice A method for a stakeholder to create a stake.\r\n    * @param _stake The size of the stake to be created.\r\n    */\r\n    function createStake(address staker, uint256 _stake) public onlyOwner{\r\n        burn(staker, Cimple, _stake);\r\n        if(balanceOf(staker, stCimple) == 0) addStakeholder(staker);\r\n        mint(staker, stCimple, _stake);\r\n    }\r\n\r\n    /**\r\n        * @notice A method for a stakeholder to remove a stake.\r\n        * @param _stake The size of the stake to be removed.\r\n        */\r\n    function removeStake(address unstaker, uint256 _stake) public onlyOwner{\r\n        burn(unstaker, stCimple, _stake);\r\n        if(balanceOf(unstaker, stCimple) == 0) removeStakeholder(unstaker);\r\n        mint(unstaker, Cimple, _stake);\r\n    }\r\n   \r\n    function totalRewards() public view  returns(uint256) {\r\n        uint256 _totalRewards = 0;\r\n        for (uint256 s = 0; s < stakeholders.length; s += 1){\r\n           _totalRewards = _totalRewards.add(balanceOf(stakeholders[s], CMPG));\r\n        }\r\n        return _totalRewards;\r\n    }\r\n    function calculateReward(address _stakeholder) public view returns(uint256) {\r\n\r\n        return balanceOf(_stakeholder, stCimple) / 100;\r\n    }\r\n\r\n    /**\r\n    * @notice A method to distribute rewards to all stakeholders.\r\n    */\r\n    function distributeRewards() public onlyOwner {\r\n        for (uint256 s = 0; s < stakeholders.length; s += 1){\r\n            address stakeholder = stakeholders[s];\r\n            uint256 reward = calculateReward(stakeholder);\r\n            mint(stakeholder, stCimple, reward);\r\n        }\r\n    }\r\n    // End staking part \r\n}",
  "sourcePath": "F:\\repo\\smartcontract_1155\\src\\contracts\\CimpleDAO.sol",
  "compiler": {
    "name": "solc",
    "version": "0.7.6+commit.7338295f.Emscripten.clang"
  },
  "schemaVersion": "3.4.4",
  "updatedAt": "2022-01-17T16:37:10.705Z",
  "networkType": "ethereum",
  "devdoc": {
    "kind": "dev",
    "methods": {
      "addStakeholder(address)": {
        "params": {
          "_stakeholder": "The stakeholder to add."
        }
      },
      "balanceOf(address,uint256)": {
        "details": "See {IERC1155-balanceOf}. Requirements: - `account` cannot be the zero address."
      },
      "balanceOfBatch(address[],uint256[])": {
        "details": "See {IERC1155-balanceOfBatch}. Requirements: - `accounts` and `ids` must have the same length."
      },
      "createStake(address,uint256)": {
        "params": {
          "_stake": "The size of the stake to be created."
        }
      },
      "isApprovedForAll(address,address)": {
        "details": "See {IERC1155-isApprovedForAll}."
      },
      "owner()": {
        "details": "Returns the address of the current owner."
      },
      "removeStake(address,uint256)": {
        "params": {
          "_stake": "The size of the stake to be removed."
        }
      },
      "removeStakeholder(address)": {
        "params": {
          "_stakeholder": "The stakeholder to remove."
        }
      },
      "renounceOwnership()": {
        "details": "Leaves the contract without owner. It will not be possible to call `onlyOwner` functions anymore. Can only be called by the current owner. NOTE: Renouncing ownership will leave the contract without an owner, thereby removing any functionality that is only available to the owner."
      },
      "safeBatchTransferFrom(address,address,uint256[],uint256[],bytes)": {
        "details": "See {IERC1155-safeBatchTransferFrom}."
      },
      "safeTransferFrom(address,address,uint256,uint256,bytes)": {
        "details": "See {IERC1155-safeTransferFrom}."
      },
      "setApprovalForAll(address,bool)": {
        "details": "See {IERC1155-setApprovalForAll}."
      },
      "supportsInterface(bytes4)": {
        "details": "See {IERC165-supportsInterface}. Time complexity O(1), guaranteed to always use less than 30 000 gas."
      },
      "totalStakes()": {
        "returns": {
          "_0": "uint256 The aggregated stakes from all stakeholders."
        }
      },
      "transferOwnership(address)": {
        "details": "Transfers ownership of the contract to a new account (`newOwner`). Can only be called by the current owner."
      },
      "uri(uint256)": {
        "details": "See {IERC1155MetadataURI-uri}. This implementation returns the same URI for *all* token types. It relies on the token type ID substitution mechanism https://eips.ethereum.org/EIPS/eip-1155#metadata[defined in the EIP]. Clients calling this function must replace the `\\{id\\}` substring with the actual token type ID."
      }
    },
    "version": 1
  },
  "userdoc": {
    "kind": "user",
    "methods": {
      "addStakeholder(address)": {
        "notice": "A method to add a stakeholder."
      },
      "createStake(address,uint256)": {
        "notice": "A method for a stakeholder to create a stake."
      },
      "distributeRewards()": {
        "notice": "A method to distribute rewards to all stakeholders."
      },
      "multipleAddressesToMintableRoleList(address[])": {
        "notice": "Add multiple addresses to mintableRoleList "
      },
      "removeAddressFromMintableRoleList(address)": {
        "notice": "Remove single address from mintableRoleList "
      },
      "removeAddressesFromMintableRoleList(address[])": {
        "notice": "Remove multiple addresses from mintableRoleList "
      },
      "removeStake(address,uint256)": {
        "notice": "A method for a stakeholder to remove a stake."
      },
      "removeStakeholder(address)": {
        "notice": "A method to remove a stakeholder."
      },
      "singleAddressToMintableRoleList(address)": {
        "notice": "Add single address to mintableRoleList "
      },
      "totalStakes()": {
        "notice": "A method to the aggregated stakes from all stakeholders."
      }
    },
    "version": 1
  }
}