{
  "contractName": "DaoLobby",
  "abi": [
    {
      "inputs": [
        {
          "internalType": "contract CimpleDAO",
          "name": "_token",
          "type": "address"
        }
      ],
      "stateMutability": "nonpayable",
      "type": "constructor"
    },
    {
      "anonymous": false,
      "inputs": [
        {
          "indexed": true,
          "internalType": "address",
          "name": "previousOwner",
          "type": "address"
        },
        {
          "indexed": true,
          "internalType": "address",
          "name": "newOwner",
          "type": "address"
        }
      ],
      "name": "OwnershipTransferred",
      "type": "event"
    },
    {
      "anonymous": false,
      "inputs": [
        {
          "indexed": true,
          "internalType": "address",
          "name": "staker",
          "type": "address"
        },
        {
          "indexed": false,
          "internalType": "uint256",
          "name": "ciIndex",
          "type": "uint256"
        },
        {
          "indexed": false,
          "internalType": "uint256",
          "name": "ciTokenCount",
          "type": "uint256"
        }
      ],
      "name": "PayFee",
      "type": "event"
    },
    {
      "anonymous": false,
      "inputs": [
        {
          "indexed": true,
          "internalType": "address",
          "name": "staker",
          "type": "address"
        },
        {
          "indexed": false,
          "internalType": "uint256",
          "name": "ciIndex",
          "type": "uint256"
        },
        {
          "indexed": false,
          "internalType": "uint256",
          "name": "ciTokenCount",
          "type": "uint256"
        }
      ],
      "name": "StakingCimpleToken",
      "type": "event"
    },
    {
      "anonymous": false,
      "inputs": [
        {
          "indexed": true,
          "internalType": "address",
          "name": "unstaker",
          "type": "address"
        },
        {
          "indexed": false,
          "internalType": "uint256",
          "name": "stCiIndex",
          "type": "uint256"
        },
        {
          "indexed": false,
          "internalType": "uint256",
          "name": "stCiTokenCount",
          "type": "uint256"
        }
      ],
      "name": "UnstakingCimpleToken",
      "type": "event"
    },
    {
      "inputs": [],
      "name": "CMPG",
      "outputs": [
        {
          "internalType": "uint256",
          "name": "",
          "type": "uint256"
        }
      ],
      "stateMutability": "view",
      "type": "function",
      "constant": true
    },
    {
      "inputs": [],
      "name": "Cimple",
      "outputs": [
        {
          "internalType": "uint256",
          "name": "",
          "type": "uint256"
        }
      ],
      "stateMutability": "view",
      "type": "function",
      "constant": true
    },
    {
      "inputs": [],
      "name": "owner",
      "outputs": [
        {
          "internalType": "address",
          "name": "",
          "type": "address"
        }
      ],
      "stateMutability": "view",
      "type": "function",
      "constant": true
    },
    {
      "inputs": [],
      "name": "renounceOwnership",
      "outputs": [],
      "stateMutability": "nonpayable",
      "type": "function"
    },
    {
      "inputs": [],
      "name": "stCimple",
      "outputs": [
        {
          "internalType": "uint256",
          "name": "",
          "type": "uint256"
        }
      ],
      "stateMutability": "view",
      "type": "function",
      "constant": true
    },
    {
      "inputs": [
        {
          "internalType": "address",
          "name": "newOwner",
          "type": "address"
        }
      ],
      "name": "transferOwnership",
      "outputs": [],
      "stateMutability": "nonpayable",
      "type": "function"
    },
    {
      "inputs": [
        {
          "internalType": "address",
          "name": "staker",
          "type": "address"
        },
        {
          "internalType": "uint256",
          "name": "stakeAmount",
          "type": "uint256"
        }
      ],
      "name": "stakingCimpleToken",
      "outputs": [
        {
          "internalType": "bool",
          "name": "",
          "type": "bool"
        }
      ],
      "stateMutability": "payable",
      "type": "function",
      "payable": true
    },
    {
      "inputs": [
        {
          "internalType": "address",
          "name": "unstaker",
          "type": "address"
        },
        {
          "internalType": "uint256",
          "name": "unstakeAmount",
          "type": "uint256"
        }
      ],
      "name": "unstakingCimpleToken",
      "outputs": [
        {
          "internalType": "bool",
          "name": "",
          "type": "bool"
        }
      ],
      "stateMutability": "payable",
      "type": "function",
      "payable": true
    },
    {
      "inputs": [],
      "name": "payFee",
      "outputs": [
        {
          "internalType": "bool",
          "name": "",
          "type": "bool"
        }
      ],
      "stateMutability": "payable",
      "type": "function",
      "payable": true
    },
    {
      "inputs": [
        {
          "internalType": "address",
          "name": "spender",
          "type": "address"
        },
        {
          "internalType": "uint256",
          "name": "cimpleAmount",
          "type": "uint256"
        }
      ],
      "name": "payFeeByToken",
      "outputs": [
        {
          "internalType": "bool",
          "name": "",
          "type": "bool"
        }
      ],
      "stateMutability": "nonpayable",
      "type": "function"
    }
  ],
  "bytecode": "0x608060405234801561001057600080fd5b506040516112923803806112928339818101604052602081101561003357600080fd5b8101908080519060200190929190505050600061005461013960201b60201c565b9050806000806101000a81548173ffffffffffffffffffffffffffffffffffffffff021916908373ffffffffffffffffffffffffffffffffffffffff1602179055508073ffffffffffffffffffffffffffffffffffffffff16600073ffffffffffffffffffffffffffffffffffffffff167f8be0079c531659141344cd1fd0a4f28419497f9722a3daafe3b4186f6b6457e060405160405180910390a35080600160006101000a81548173ffffffffffffffffffffffffffffffffffffffff021916908373ffffffffffffffffffffffffffffffffffffffff16021790555050610141565b600033905090565b611142806101506000396000f3fe6080604052600436106100915760003560e01c8063939031b511610059578063939031b5146101d6578063ac428b1114610201578063ddfc193d14610272578063f2fde38b1461029d578063f37eeedc146102ee57610091565b80632667bba21461009657806329610252146100fa578063715018a61461011a5780637678bf43146101315780638da5cb5b14610195575b600080fd5b6100e2600480360360408110156100ac57600080fd5b81019080803573ffffffffffffffffffffffffffffffffffffffff16906020019092919080359060200190929190505050610319565b60405180821515815260200191505060405180910390f35b61010261054b565b60405180821515815260200191505060405180910390f35b34801561012657600080fd5b5061012f6107c8565b005b61017d6004803603604081101561014757600080fd5b81019080803573ffffffffffffffffffffffffffffffffffffffff1690602001909291908035906020019092919050505061094e565b60405180821515815260200191505060405180910390f35b3480156101a157600080fd5b506101aa610b80565b604051808273ffffffffffffffffffffffffffffffffffffffff16815260200191505060405180910390f35b3480156101e257600080fd5b506101eb610ba9565b6040518082815260200191505060405180910390f35b34801561020d57600080fd5b5061025a6004803603604081101561022457600080fd5b81019080803573ffffffffffffffffffffffffffffffffffffffff16906020019092919080359060200190929190505050610bae565b60405180821515815260200191505060405180910390f35b34801561027e57600080fd5b50610287610d3a565b6040518082815260200191505060405180910390f35b3480156102a957600080fd5b506102ec600480360360208110156102c057600080fd5b81019080803573ffffffffffffffffffffffffffffffffffffffff169060200190929190505050610d3f565b005b3480156102fa57600080fd5b50610303610f4a565b6040518082815260200191505060405180910390f35b6000600160009054906101000a900473ffffffffffffffffffffffffffffffffffffffff1673ffffffffffffffffffffffffffffffffffffffff1662fdd58e8460016040518363ffffffff1660e01b8152600401808373ffffffffffffffffffffffffffffffffffffffff1681526020018281526020019250505060206040518083038186803b1580156103ac57600080fd5b505afa1580156103c0573d6000803e3d6000fd5b505050506040513d60208110156103d657600080fd5b810190808051906020019092919050505082111561043f576040517f08c379a000000000000000000000000000000000000000000000000000000000815260040180806020018281038252604281526020018061108e6042913960600191505060405180910390fd5b600160009054906101000a900473ffffffffffffffffffffffffffffffffffffffff1673ffffffffffffffffffffffffffffffffffffffff166368ce7d8a84846040518363ffffffff1660e01b8152600401808373ffffffffffffffffffffffffffffffffffffffff16815260200182815260200192505050600060405180830381600087803b1580156104d257600080fd5b505af11580156104e6573d6000803e3d6000fd5b505050508273ffffffffffffffffffffffffffffffffffffffff167f02e3e22c9e1a0e7844cecbe14fa26629cbf782fa7342f6a4fe0c46d154e16c1c600084604051808381526020018281526020019250505060405180910390a26001905092915050565b60008034116105c2576040517f08c379a000000000000000000000000000000000000000000000000000000000815260040180806020018281038252601b8152602001807f4572726f722c206465706f736974206d757374206265203e3d2030000000000081525060200191505060405180910390fd5b60003490506000806000600160009054906101000a900473ffffffffffffffffffffffffffffffffffffffff1673ffffffffffffffffffffffffffffffffffffffff1663c876321f426040518263ffffffff1660e01b81526004018082815260200191505060606040518083038186803b15801561063f57600080fd5b505afa158015610653573d6000803e3d6000fd5b505050506040513d606081101561066957600080fd5b8101908080519060200190929190805190602001909291908051906020019092919050505080935081945082955050505060006106af8486610f4f90919063ffffffff16565b9050600160009054906101000a900473ffffffffffffffffffffffffffffffffffffffff1673ffffffffffffffffffffffffffffffffffffffff1663156e29f6336000846040518463ffffffff1660e01b8152600401808473ffffffffffffffffffffffffffffffffffffffff1681526020018381526020018281526020019350505050600060405180830381600087803b15801561074d57600080fd5b505af1158015610761573d6000803e3d6000fd5b505050503373ffffffffffffffffffffffffffffffffffffffff167f31ceeb53a9be80f14ab4807bbbb9924118891627212791db900e78a9a9fd3830600083604051808381526020018281526020019250505060405180910390a260019550505050505090565b6107d0610f99565b73ffffffffffffffffffffffffffffffffffffffff1660008054906101000a900473ffffffffffffffffffffffffffffffffffffffff1673ffffffffffffffffffffffffffffffffffffffff1614610890576040517f08c379a00000000000000000000000000000000000000000000000000000000081526004018080602001828103825260208152602001807f4f776e61626c653a2063616c6c6572206973206e6f7420746865206f776e657281525060200191505060405180910390fd5b600073ffffffffffffffffffffffffffffffffffffffff1660008054906101000a900473ffffffffffffffffffffffffffffffffffffffff1673ffffffffffffffffffffffffffffffffffffffff167f8be0079c531659141344cd1fd0a4f28419497f9722a3daafe3b4186f6b6457e060405160405180910390a360008060006101000a81548173ffffffffffffffffffffffffffffffffffffffff021916908373ffffffffffffffffffffffffffffffffffffffff160217905550565b6000600160009054906101000a900473ffffffffffffffffffffffffffffffffffffffff1673ffffffffffffffffffffffffffffffffffffffff1662fdd58e8460006040518363ffffffff1660e01b8152600401808373ffffffffffffffffffffffffffffffffffffffff1681526020018281526020019250505060206040518083038186803b1580156109e157600080fd5b505afa1580156109f5573d6000803e3d6000fd5b505050506040513d6020811015610a0b57600080fd5b8101908080519060200190929190505050821115610a74576040517f08c379a000000000000000000000000000000000000000000000000000000000815260040180806020018281038252603d8152602001806110d0603d913960400191505060405180910390fd5b600160009054906101000a900473ffffffffffffffffffffffffffffffffffffffff1673ffffffffffffffffffffffffffffffffffffffff1663d86f5a6b84846040518363ffffffff1660e01b8152600401808373ffffffffffffffffffffffffffffffffffffffff16815260200182815260200192505050600060405180830381600087803b158015610b0757600080fd5b505af1158015610b1b573d6000803e3d6000fd5b505050508273ffffffffffffffffffffffffffffffffffffffff167fdbeaac4dc3e2a9b50f12b26e4b2808d88ad3888d63249c6ea992214e1384b35d600184604051808381526020018281526020019250505060405180910390a26001905092915050565b60008060009054906101000a900473ffffffffffffffffffffffffffffffffffffffff16905090565b600281565b6000808211610c25576040517f08c379a00000000000000000000000000000000000000000000000000000000081526004018080602001828103825260208152602001807f4572726f722c20616d6f756e74206f6620706179206d757374206265203e203081525060200191505060405180910390fd5b600160009054906101000a900473ffffffffffffffffffffffffffffffffffffffff1673ffffffffffffffffffffffffffffffffffffffff1663f5298aca846000856040518463ffffffff1660e01b8152600401808473ffffffffffffffffffffffffffffffffffffffff1681526020018381526020018281526020019350505050600060405180830381600087803b158015610cc157600080fd5b505af1158015610cd5573d6000803e3d6000fd5b505050503373ffffffffffffffffffffffffffffffffffffffff167f31ceeb53a9be80f14ab4807bbbb9924118891627212791db900e78a9a9fd3830600084604051808381526020018281526020019250505060405180910390a26001905092915050565b600081565b610d47610f99565b73ffffffffffffffffffffffffffffffffffffffff1660008054906101000a900473ffffffffffffffffffffffffffffffffffffffff1673ffffffffffffffffffffffffffffffffffffffff1614610e07576040517f08c379a00000000000000000000000000000000000000000000000000000000081526004018080602001828103825260208152602001807f4f776e61626c653a2063616c6c6572206973206e6f7420746865206f776e657281525060200191505060405180910390fd5b600073ffffffffffffffffffffffffffffffffffffffff168173ffffffffffffffffffffffffffffffffffffffff161415610e8d576040517f08c379a00000000000000000000000000000000000000000000000000000000081526004018080602001828103825260268152602001806110686026913960400191505060405180910390fd5b8073ffffffffffffffffffffffffffffffffffffffff1660008054906101000a900473ffffffffffffffffffffffffffffffffffffffff1673ffffffffffffffffffffffffffffffffffffffff167f8be0079c531659141344cd1fd0a4f28419497f9722a3daafe3b4186f6b6457e060405160405180910390a3806000806101000a81548173ffffffffffffffffffffffffffffffffffffffff021916908373ffffffffffffffffffffffffffffffffffffffff16021790555050565b600181565b6000610f9183836040518060400160405280601a81526020017f536166654d6174683a206469766973696f6e206279207a65726f000000000000815250610fa1565b905092915050565b600033905090565b6000808311829061104d576040517f08c379a00000000000000000000000000000000000000000000000000000000081526004018080602001828103825283818151815260200191508051906020019080838360005b83811015611012578082015181840152602081019050610ff7565b50505050905090810190601f16801561103f5780820380516001836020036101000a031916815260200191505b509250505060405180910390fd5b50600083858161105957fe5b04905080915050939250505056fe4f776e61626c653a206e6577206f776e657220697320746865207a65726f20616464726573734572726f722c20756e7374616b6520616d6f756e74206d757374206265203e3d20686f6c64696e6720616d6f756e74206f6620737443696d706c6520546f6b656e2e4572726f722c207374616b6520616d6f756e74206d757374206265203e3d20686f6c64696e6720616d6f756e74206f662043696d706c6520546f6b656ea2646970667358221220003c0e12095332304b08935d6c7d7d296da09933a58e4ad504953bcc69a104b964736f6c63430007060033",
  "immutableReferences": {},
  "source": "// SPDX-License-Identifier: MIT\r\npragma solidity >=0.6.0 <0.8.0;\r\n\r\nimport \"@openzeppelin/contracts/access/Ownable.sol\";\r\nimport \"@openzeppelin/contracts/math/SafeMath.sol\";\r\nimport \"./CimpleDAO.sol\";\r\n\r\ncontract DaoLobby is Ownable {\r\n  using SafeMath for uint256;\r\n  CimpleDAO private token;\r\n  //token id \r\n  uint256 public constant Cimple = 0;\r\n  uint256 public constant stCimple = 1;\r\n  uint256 public constant CMPG = 2;\r\n\r\n  event StakingCimpleToken (address indexed staker, uint256 ciIndex, uint256 ciTokenCount);\r\n  event UnstakingCimpleToken (address indexed unstaker, uint256 stCiIndex, uint256 stCiTokenCount);\r\n  event PayFee(address indexed staker, uint256 ciIndex, uint256 ciTokenCount);\r\n  constructor(CimpleDAO _token) public {\r\n    token = _token;\r\n  }\r\n  // staking cimmple token function\r\n  function stakingCimpleToken(address staker, uint256 stakeAmount) public payable returns (bool) {\r\n    require(stakeAmount <= token.balanceOf(staker, Cimple), 'Error, stake amount must be >= holding amount of Cimple Token');\r\n    token.createStake(staker, stakeAmount);\r\n    emit StakingCimpleToken(staker, stCimple, stakeAmount);\r\n    return true;\r\n  }\r\n\r\n  function unstakingCimpleToken(address unstaker, uint256 unstakeAmount) public payable returns (bool) {\r\n    require(unstakeAmount <= token.balanceOf(unstaker, stCimple), 'Error, unstake amount must be >= holding amount of stCimple Token.');\r\n    token.removeStake(unstaker, unstakeAmount);\r\n    emit UnstakingCimpleToken(unstaker, Cimple, unstakeAmount);\r\n    return true;\r\n  }\r\n\r\n  function payFee() public payable returns ( bool ) {\r\n    require(msg.value > 0, 'Error, deposit must be >= 0');\r\n    uint256 value1 = msg.value;\r\n    uint256 cimpleIR;\r\n    uint256 s1;\r\n    uint256 s2;\r\n    (cimpleIR, s1, s2) = token.calculateCimpleIR(block.timestamp);\r\n    // uint256 cimpleIR = token.getCimpleIR();\r\n    uint256 cimpleCountForValue = value1.div(cimpleIR);\r\n    token.mint(msg.sender, Cimple, cimpleCountForValue); //sending token to user\r\n    emit PayFee(msg.sender, Cimple, cimpleCountForValue);\r\n    return true;\r\n  }\r\n\r\n  function payFeeByToken(address spender, uint256 cimpleAmount) public returns(bool) {\r\n    require(cimpleAmount > 0, \"Error, amount of pay must be > 0\");\r\n    token.burn(spender,Cimple, cimpleAmount);\r\n    emit PayFee(msg.sender, Cimple, cimpleAmount);\r\n    return true;\r\n  }\r\n}\r\n",
  "sourcePath": "F:\\repo\\smartcontract_1155\\src\\contracts\\DaoLobby.sol",
  "compiler": {
    "name": "solc",
    "version": "0.7.6+commit.7338295f.Emscripten.clang"
  },
  "schemaVersion": "3.4.4",
  "updatedAt": "2022-01-17T16:37:10.717Z",
  "networkType": "ethereum",
  "devdoc": {
    "kind": "dev",
    "methods": {
      "owner()": {
        "details": "Returns the address of the current owner."
      },
      "renounceOwnership()": {
        "details": "Leaves the contract without owner. It will not be possible to call `onlyOwner` functions anymore. Can only be called by the current owner. NOTE: Renouncing ownership will leave the contract without an owner, thereby removing any functionality that is only available to the owner."
      },
      "transferOwnership(address)": {
        "details": "Transfers ownership of the contract to a new account (`newOwner`). Can only be called by the current owner."
      }
    },
    "version": 1
  },
  "userdoc": {
    "kind": "user",
    "methods": {},
    "version": 1
  }
}