{
  "contractName": "dBank",
  "abi": [
    {
      "inputs": [
        {
          "internalType": "contract Token",
          "name": "_token",
          "type": "address"
        }
      ],
      "stateMutability": "nonpayable",
      "type": "constructor"
    },
    {
      "anonymous": false,
      "inputs": [
        {
          "indexed": true,
          "internalType": "address",
          "name": "user",
          "type": "address"
        },
        {
          "indexed": false,
          "internalType": "uint256",
          "name": "etherAmount",
          "type": "uint256"
        }
      ],
      "name": "PayFee",
      "type": "event"
    },
    {
      "inputs": [],
      "name": "payFee",
      "outputs": [
        {
          "internalType": "bool",
          "name": "",
          "type": "bool"
        }
      ],
      "stateMutability": "payable",
      "type": "function",
      "payable": true
    },
    {
      "inputs": [
        {
          "internalType": "address",
          "name": "payer",
          "type": "address"
        },
        {
          "internalType": "uint256",
          "name": "amount",
          "type": "uint256"
        }
      ],
      "name": "payFeeByToken",
      "outputs": [
        {
          "internalType": "bool",
          "name": "",
          "type": "bool"
        }
      ],
      "stateMutability": "nonpayable",
      "type": "function"
    }
  ],
  "bytecode": "0x608060405234801561001057600080fd5b506040516105db3803806105db8339818101604052602081101561003357600080fd5b8101908080519060200190929190505050806000806101000a81548173ffffffffffffffffffffffffffffffffffffffff021916908373ffffffffffffffffffffffffffffffffffffffff16021790555050610547806100946000396000f3fe6080604052600436106100295760003560e01c8063296102521461002e578063ac428b111461004e575b600080fd5b6100366100bf565b60405180821515815260200191505060405180910390f35b34801561005a57600080fd5b506100a76004803603604081101561007157600080fd5b81019080803573ffffffffffffffffffffffffffffffffffffffff16906020019092919080359060200190929190505050610399565b60405180821515815260200191505060405180910390f35b6000803411610136576040517f08c379a000000000000000000000000000000000000000000000000000000000815260040180806020018281038252601b8152602001807f4572726f722c206465706f736974206d757374206265203e3d2030000000000081525060200191505060405180910390fd5b60008054906101000a900473ffffffffffffffffffffffffffffffffffffffff1673ffffffffffffffffffffffffffffffffffffffff1663e7572230426040518263ffffffff1660e01b815260040180828152602001915050602060405180830381600087803b1580156101a957600080fd5b505af11580156101bd573d6000803e3d6000fd5b505050506040513d60208110156101d357600080fd5b81019080805190602001909291905050505060008060009054906101000a900473ffffffffffffffffffffffffffffffffffffffff1673ffffffffffffffffffffffffffffffffffffffff1663545e20b86040518163ffffffff1660e01b815260040160206040518083038186803b15801561024e57600080fd5b505afa158015610262573d6000803e3d6000fd5b505050506040513d602081101561027857600080fd5b81019080805190602001909291905050509050600081348161029657fe5b04905060008054906101000a900473ffffffffffffffffffffffffffffffffffffffff1673ffffffffffffffffffffffffffffffffffffffff166340c10f1933836040518363ffffffff1660e01b8152600401808373ffffffffffffffffffffffffffffffffffffffff16815260200182815260200192505050600060405180830381600087803b15801561032a57600080fd5b505af115801561033e573d6000803e3d6000fd5b505050503373ffffffffffffffffffffffffffffffffffffffff167ffc3807f0745bd1eb5dc5780a175469ce00b0c68e8fa419b52881041a4f3794cc346040518082815260200191505060405180910390a260019250505090565b6000808211610410576040517f08c379a00000000000000000000000000000000000000000000000000000000081526004018080602001828103825260208152602001807f4572726f722c20616d6f756e74206f6620706179206d757374206265203e203081525060200191505060405180910390fd5b60008054906101000a900473ffffffffffffffffffffffffffffffffffffffff1673ffffffffffffffffffffffffffffffffffffffff16639dc29fac84846040518363ffffffff1660e01b8152600401808373ffffffffffffffffffffffffffffffffffffffff16815260200182815260200192505050600060405180830381600087803b1580156104a157600080fd5b505af11580156104b5573d6000803e3d6000fd5b505050508273ffffffffffffffffffffffffffffffffffffffff167ffc3807f0745bd1eb5dc5780a175469ce00b0c68e8fa419b52881041a4f3794cc836040518082815260200191505060405180910390a2600190509291505056fea264697066735822122025500d3d59976d9a334e2804fb32820f369cc5cb443b7d97bb523e3fc66c9b4964736f6c63430007060033",
  "immutableReferences": {},
  "source": "// SPDX-License-Identifier: MIT\r\npragma solidity >=0.6.0 <0.9.0;\r\n\r\nimport \"./Token.sol\";\r\n\r\ncontract dBank {\r\n  Token private token;\r\n  event PayFee(address indexed user, uint etherAmount);\r\n  constructor(Token _token) public {\r\n    token = _token;\r\n  }\r\n\r\n  function payFee() public payable returns (bool) {\r\n    require(msg.value > 0, 'Error, deposit must be >= 0');\r\n    token.getPrice(block.timestamp);\r\n    uint256 tokenPrice = token.getPriceOfToken();\r\n    uint256 tokenCount = msg.value/tokenPrice;\r\n    token.mint(msg.sender, tokenCount); //sending token to user\r\n    emit PayFee(msg.sender, msg.value);\r\n    return true;\r\n  }\r\n\r\n  function payFeeByToken(address payer, uint amount) public returns (bool) {\r\n    require(amount > 0, \"Error, amount of pay must be > 0\");\r\n    token.burn(payer, amount);\r\n    emit PayFee(payer, amount);\r\n    return true;\r\n  }\r\n\r\n}\r\n",
  "sourcePath": "F:\\repo\\smart_contract\\src\\contracts\\dBank.sol",
  "compiler": {
    "name": "solc",
    "version": "0.7.6+commit.7338295f.Emscripten.clang"
  },
  "schemaVersion": "3.4.4",
  "updatedAt": "2022-01-11T05:35:45.783Z",
  "networkType": "ethereum",
  "devdoc": {
    "kind": "dev",
    "methods": {},
    "version": 1
  },
  "userdoc": {
    "kind": "user",
    "methods": {},
    "version": 1
  }
}