{
  "_format": "hh-sol-artifact-1",
  "contractName": "NFT",
  "sourceName": "contracts/NFT.sol",
  "abi": [
    {
      "inputs": [],
      "stateMutability": "nonpayable",
      "type": "constructor"
    },
    {
      "anonymous": false,
      "inputs": [
        {
          "indexed": true,
          "internalType": "address",
          "name": "owner",
          "type": "address"
        },
        {
          "indexed": true,
          "internalType": "address",
          "name": "approved",
          "type": "address"
        },
        {
          "indexed": true,
          "internalType": "uint256",
          "name": "tokenId",
          "type": "uint256"
        }
      ],
      "name": "Approval",
      "type": "event"
    },
    {
      "anonymous": false,
      "inputs": [
        {
          "indexed": true,
          "internalType": "address",
          "name": "owner",
          "type": "address"
        },
        {
          "indexed": true,
          "internalType": "address",
          "name": "operator",
          "type": "address"
        },
        {
          "indexed": false,
          "internalType": "bool",
          "name": "approved",
          "type": "bool"
        }
      ],
      "name": "ApprovalForAll",
      "type": "event"
    },
    {
      "anonymous": false,
      "inputs": [
        {
          "indexed": true,
          "internalType": "address",
          "name": "previousOwner",
          "type": "address"
        },
        {
          "indexed": true,
          "internalType": "address",
          "name": "newOwner",
          "type": "address"
        }
      ],
      "name": "OwnershipTransferred",
      "type": "event"
    },
    {
      "anonymous": false,
      "inputs": [
        {
          "indexed": true,
          "internalType": "address",
          "name": "from",
          "type": "address"
        },
        {
          "indexed": true,
          "internalType": "address",
          "name": "to",
          "type": "address"
        },
        {
          "indexed": true,
          "internalType": "uint256",
          "name": "tokenId",
          "type": "uint256"
        }
      ],
      "name": "Transfer",
      "type": "event"
    },
    {
      "inputs": [],
      "name": "MINT_PRICE",
      "outputs": [
        {
          "internalType": "uint256",
          "name": "",
          "type": "uint256"
        }
      ],
      "stateMutability": "view",
      "type": "function"
    },
    {
      "inputs": [],
      "name": "TOTAL_SUPPLY",
      "outputs": [
        {
          "internalType": "uint256",
          "name": "",
          "type": "uint256"
        }
      ],
      "stateMutability": "view",
      "type": "function"
    },
    {
      "inputs": [
        {
          "internalType": "address",
          "name": "to",
          "type": "address"
        },
        {
          "internalType": "uint256",
          "name": "tokenId",
          "type": "uint256"
        }
      ],
      "name": "approve",
      "outputs": [],
      "stateMutability": "nonpayable",
      "type": "function"
    },
    {
      "inputs": [
        {
          "internalType": "address",
          "name": "owner",
          "type": "address"
        }
      ],
      "name": "balanceOf",
      "outputs": [
        {
          "internalType": "uint256",
          "name": "",
          "type": "uint256"
        }
      ],
      "stateMutability": "view",
      "type": "function"
    },
    {
      "inputs": [],
      "name": "baseTokenURI",
      "outputs": [
        {
          "internalType": "string",
          "name": "",
          "type": "string"
        }
      ],
      "stateMutability": "view",
      "type": "function"
    },
    {
      "inputs": [
        {
          "internalType": "uint256",
          "name": "tokenId",
          "type": "uint256"
        }
      ],
      "name": "getApproved",
      "outputs": [
        {
          "internalType": "address",
          "name": "",
          "type": "address"
        }
      ],
      "stateMutability": "view",
      "type": "function"
    },
    {
      "inputs": [],
      "name": "getmintaddress",
      "outputs": [
        {
          "internalType": "address[]",
          "name": "",
          "type": "address[]"
        },
        {
          "internalType": "uint256[]",
          "name": "",
          "type": "uint256[]"
        },
        {
          "internalType": "uint256[]",
          "name": "",
          "type": "uint256[]"
        }
      ],
      "stateMutability": "view",
      "type": "function"
    },
    {
      "inputs": [
        {
          "internalType": "address",
          "name": "owner",
          "type": "address"
        },
        {
          "internalType": "address",
          "name": "operator",
          "type": "address"
        }
      ],
      "name": "isApprovedForAll",
      "outputs": [
        {
          "internalType": "bool",
          "name": "",
          "type": "bool"
        }
      ],
      "stateMutability": "view",
      "type": "function"
    },
    {
      "inputs": [
        {
          "internalType": "address",
          "name": "recipient",
          "type": "address"
        }
      ],
      "name": "mintTo",
      "outputs": [
        {
          "internalType": "uint256",
          "name": "",
          "type": "uint256"
        }
      ],
      "stateMutability": "payable",
      "type": "function"
    },
    {
      "inputs": [
        {
          "internalType": "uint256",
          "name": "",
          "type": "uint256"
        }
      ],
      "name": "mintuserlist",
      "outputs": [
        {
          "internalType": "address",
          "name": "mintuser",
          "type": "address"
        },
        {
          "internalType": "uint256",
          "name": "currentminttimestamp",
          "type": "uint256"
        },
        {
          "internalType": "uint256",
          "name": "price_value",
          "type": "uint256"
        }
      ],
      "stateMutability": "view",
      "type": "function"
    },
    {
      "inputs": [],
      "name": "name",
      "outputs": [
        {
          "internalType": "string",
          "name": "",
          "type": "string"
        }
      ],
      "stateMutability": "view",
      "type": "function"
    },
    {
      "inputs": [],
      "name": "owner",
      "outputs": [
        {
          "internalType": "address",
          "name": "",
          "type": "address"
        }
      ],
      "stateMutability": "view",
      "type": "function"
    },
    {
      "inputs": [
        {
          "internalType": "uint256",
          "name": "tokenId",
          "type": "uint256"
        }
      ],
      "name": "ownerOf",
      "outputs": [
        {
          "internalType": "address",
          "name": "",
          "type": "address"
        }
      ],
      "stateMutability": "view",
      "type": "function"
    },
    {
      "inputs": [
        {
          "internalType": "address",
          "name": "dest",
          "type": "address"
        }
      ],
      "name": "payments",
      "outputs": [
        {
          "internalType": "uint256",
          "name": "",
          "type": "uint256"
        }
      ],
      "stateMutability": "view",
      "type": "function"
    },
    {
      "inputs": [],
      "name": "renounceOwnership",
      "outputs": [],
      "stateMutability": "nonpayable",
      "type": "function"
    },
    {
      "inputs": [
        {
          "internalType": "address",
          "name": "from",
          "type": "address"
        },
        {
          "internalType": "address",
          "name": "to",
          "type": "address"
        },
        {
          "internalType": "uint256",
          "name": "tokenId",
          "type": "uint256"
        }
      ],
      "name": "safeTransferFrom",
      "outputs": [],
      "stateMutability": "nonpayable",
      "type": "function"
    },
    {
      "inputs": [
        {
          "internalType": "address",
          "name": "from",
          "type": "address"
        },
        {
          "internalType": "address",
          "name": "to",
          "type": "address"
        },
        {
          "internalType": "uint256",
          "name": "tokenId",
          "type": "uint256"
        },
        {
          "internalType": "bytes",
          "name": "_data",
          "type": "bytes"
        }
      ],
      "name": "safeTransferFrom",
      "outputs": [],
      "stateMutability": "nonpayable",
      "type": "function"
    },
    {
      "inputs": [
        {
          "internalType": "address",
          "name": "operator",
          "type": "address"
        },
        {
          "internalType": "bool",
          "name": "approved",
          "type": "bool"
        }
      ],
      "name": "setApprovalForAll",
      "outputs": [],
      "stateMutability": "nonpayable",
      "type": "function"
    },
    {
      "inputs": [
        {
          "internalType": "string",
          "name": "_baseTokenURI",
          "type": "string"
        }
      ],
      "name": "setBaseTokenURI",
      "outputs": [],
      "stateMutability": "nonpayable",
      "type": "function"
    },
    {
      "inputs": [
        {
          "internalType": "bytes4",
          "name": "interfaceId",
          "type": "bytes4"
        }
      ],
      "name": "supportsInterface",
      "outputs": [
        {
          "internalType": "bool",
          "name": "",
          "type": "bool"
        }
      ],
      "stateMutability": "view",
      "type": "function"
    },
    {
      "inputs": [],
      "name": "symbol",
      "outputs": [
        {
          "internalType": "string",
          "name": "",
          "type": "string"
        }
      ],
      "stateMutability": "view",
      "type": "function"
    },
    {
      "inputs": [
        {
          "internalType": "uint256",
          "name": "tokenId",
          "type": "uint256"
        }
      ],
      "name": "tokenURI",
      "outputs": [
        {
          "internalType": "string",
          "name": "",
          "type": "string"
        }
      ],
      "stateMutability": "view",
      "type": "function"
    },
    {
      "inputs": [
        {
          "internalType": "address",
          "name": "from",
          "type": "address"
        },
        {
          "internalType": "address",
          "name": "to",
          "type": "address"
        },
        {
          "internalType": "uint256",
          "name": "tokenId",
          "type": "uint256"
        }
      ],
      "name": "transferFrom",
      "outputs": [],
      "stateMutability": "nonpayable",
      "type": "function"
    },
    {
      "inputs": [
        {
          "internalType": "address",
          "name": "newOwner",
          "type": "address"
        }
      ],
      "name": "transferOwnership",
      "outputs": [],
      "stateMutability": "nonpayable",
      "type": "function"
    },
    {
      "inputs": [
        {
          "internalType": "address payable",
          "name": "payee",
          "type": "address"
        }
      ],
      "name": "withdrawPayments",
      "outputs": [],
      "stateMutability": "nonpayable",
      "type": "function"
    }
  ],
  "bytecode": "0x60a06040523480156200001157600080fd5b50604080518082018252600681526543694d504c4560d01b60208083019182528351808501909452600384526213919560ea1b9084015281519192916200005b916000916200013b565b508051620000719060019060208401906200013b565b5050506040516200008290620001ca565b604051809103906000f0801580156200009f573d6000803e3d6000fd5b5060601b6001600160601b031916608052620000c2620000bc3390565b620000e9565b604080516020810191829052600090819052620000e2916009916200013b565b506200022c565b600680546001600160a01b038381166001600160a01b0319831681179093556040519116919082907f8be0079c531659141344cd1fd0a4f28419497f9722a3daafe3b4186f6b6457e090600090a35050565b8280546200014990620001ef565b90600052602060002090601f0160209004810192826200016d5760008555620001b8565b82601f106200018857805160ff1916838001178555620001b8565b82800160010185558215620001b8579182015b82811115620001b85782518255916020019190600101906200019b565b50620001c6929150620001d8565b5090565b6105ef806200228483390190565b5b80821115620001c65760008155600101620001d9565b600181811c908216806200020457607f821691505b602082108114156200022657634e487b7160e01b600052602260045260246000fd5b50919050565b60805160601c6120326200025260003960008181610fb801526113ec01526120326000f3fe6080604052600436106101665760003560e01c8063715018a6116100d1578063b88d4fde1161008a578063d547cfb711610064578063d547cfb71461043f578063e2982c2114610454578063e985e9c514610474578063f2fde38b146104bd57600080fd5b8063b88d4fde146103e4578063c002d23d14610404578063c87b56dd1461041f57600080fd5b8063715018a614610353578063755edd17146103685780638da5cb5b1461037b578063902d55a51461039957806395d89b41146103af578063a22cb465146103c457600080fd5b806330176e131161012357806330176e131461026057806331b3eb941461028057806342842e0e146102a0578063558bf0de146102c05780636352211e1461030557806370a082311461032557600080fd5b806301ffc9a71461016b57806306fdde03146101a0578063081812fc146101c2578063095ea7b3146101fa57806320978fdd1461021c57806323b872dd14610240575b600080fd5b34801561017757600080fd5b5061018b610186366004611be0565b6104dd565b60405190151581526020015b60405180910390f35b3480156101ac57600080fd5b506101b561052f565b6040516101979190611dcb565b3480156101ce57600080fd5b506101e26101dd366004611c5e565b6105c1565b6040516001600160a01b039091168152602001610197565b34801561020657600080fd5b5061021a610215366004611bb5565b61065b565b005b34801561022857600080fd5b50610231610771565b60405161019793929190611d60565b34801561024c57600080fd5b5061021a61025b366004611ac7565b6109f6565b34801561026c57600080fd5b5061021a61027b366004611c18565b610a27565b34801561028c57600080fd5b5061021a61029b366004611a73565b610a68565b3480156102ac57600080fd5b5061021a6102bb366004611ac7565b610a9e565b3480156102cc57600080fd5b506102e06102db366004611c5e565b610ab9565b604080516001600160a01b039094168452602084019290925290820152606001610197565b34801561031157600080fd5b506101e2610320366004611c5e565b610af6565b34801561033157600080fd5b50610345610340366004611a73565b610b6d565b604051908152602001610197565b34801561035f57600080fd5b5061021a610bf4565b610345610376366004611a73565b610c2a565b34801561038757600080fd5b506006546001600160a01b03166101e2565b3480156103a557600080fd5b5061034561271081565b3480156103bb57600080fd5b506101b5610ddb565b3480156103d057600080fd5b5061021a6103df366004611b84565b610dea565b3480156103f057600080fd5b5061021a6103ff366004611b07565b610df5565b34801561041057600080fd5b50610345661c6bf52634000081565b34801561042b57600080fd5b506101b561043a366004611c5e565b610e2d565b34801561044b57600080fd5b506101b5610f08565b34801561046057600080fd5b5061034561046f366004611a73565b610f96565b34801561048057600080fd5b5061018b61048f366004611a8f565b6001600160a01b03918216600090815260056020908152604080832093909416825291909152205460ff1690565b3480156104c957600080fd5b5061021a6104d8366004611a73565b611034565b60006001600160e01b031982166380ac58cd60e01b148061050e57506001600160e01b03198216635b5e139f60e01b145b8061052957506301ffc9a760e01b6001600160e01b03198316145b92915050565b60606000805461053e90611f25565b80601f016020809104026020016040519081016040528092919081815260200182805461056a90611f25565b80156105b75780601f1061058c576101008083540402835291602001916105b7565b820191906000526020600020905b81548152906001019060200180831161059a57829003601f168201915b5050505050905090565b6000818152600260205260408120546001600160a01b031661063f5760405162461bcd60e51b815260206004820152602c60248201527f4552433732313a20617070726f76656420717565727920666f72206e6f6e657860448201526b34b9ba32b73a103a37b5b2b760a11b60648201526084015b60405180910390fd5b506000908152600460205260409020546001600160a01b031690565b600061066682610af6565b9050806001600160a01b0316836001600160a01b031614156106d45760405162461bcd60e51b815260206004820152602160248201527f4552433732313a20617070726f76616c20746f2063757272656e74206f776e656044820152603960f91b6064820152608401610636565b336001600160a01b03821614806106f057506106f0813361048f565b6107625760405162461bcd60e51b815260206004820152603860248201527f4552433732313a20617070726f76652063616c6c6572206973206e6f74206f7760448201527f6e6572206e6f7220617070726f76656420666f7220616c6c00000000000000006064820152608401610636565b61076c83836110cc565b505050565b6060806060600061078160085490565b67ffffffffffffffff8111156107a757634e487b7160e01b600052604160045260246000fd5b6040519080825280602002602001820160405280156107d0578160200160208202803683370190505b50905060006107de60085490565b67ffffffffffffffff81111561080457634e487b7160e01b600052604160045260246000fd5b60405190808252806020026020018201604052801561082d578160200160208202803683370190505b509050600061083b60085490565b67ffffffffffffffff81111561086157634e487b7160e01b600052604160045260246000fd5b60405190808252806020026020018201604052801561088a578160200160208202803683370190505b50905060005b6008548110156109e957600781815481106108bb57634e487b7160e01b600052603260045260246000fd5b600091825260209091206003909102015484516001600160a01b03909116908590839081106108fa57634e487b7160e01b600052603260045260246000fd5b60200260200101906001600160a01b031690816001600160a01b0316815250506007818154811061093b57634e487b7160e01b600052603260045260246000fd5b90600052602060002090600302016001015483828151811061096d57634e487b7160e01b600052603260045260246000fd5b6020026020010181815250506007818154811061099a57634e487b7160e01b600052603260045260246000fd5b9060005260206000209060030201600201548282815181106109cc57634e487b7160e01b600052603260045260246000fd5b6020908102919091010152806109e181611f60565b915050610890565b5091959094509092509050565b610a00338261113a565b610a1c5760405162461bcd60e51b815260040161063690611e65565b61076c838383611231565b6006546001600160a01b03163314610a515760405162461bcd60e51b815260040161063690611e30565b8051610a64906009906020840190611964565b5050565b6006546001600160a01b03163314610a925760405162461bcd60e51b815260040161063690611e30565b610a9b816113cd565b50565b61076c83838360405180602001604052806000815250610df5565b60078181548110610ac957600080fd5b60009182526020909120600390910201805460018201546002909201546001600160a01b03909116925083565b6000818152600260205260408120546001600160a01b0316806105295760405162461bcd60e51b815260206004820152602960248201527f4552433732313a206f776e657220717565727920666f72206e6f6e657869737460448201526832b73a103a37b5b2b760b91b6064820152608401610636565b60006001600160a01b038216610bd85760405162461bcd60e51b815260206004820152602a60248201527f4552433732313a2062616c616e636520717565727920666f7220746865207a65604482015269726f206164647265737360b01b6064820152608401610636565b506001600160a01b031660009081526003602052604090205490565b6006546001600160a01b03163314610c1e5760405162461bcd60e51b815260040161063690611e30565b610c28600061144b565b565b600080610c3660085490565b90506127108110610c7e5760405162461bcd60e51b815260206004820152601260248201527113585e081cdd5c1c1b1e481c995858da195960721b6044820152606401610636565b661c6bf5263400003414610ceb5760405162461bcd60e51b815260206004820152602e60248201527f5472616e73616374696f6e2076616c756520646964206e6f7420657175616c2060448201526d746865206d696e7420707269636560901b6064820152608401610636565b610cf9600880546001019055565b6000610d0460085490565b9050610d10848261149d565b604080516060810182526001600160a01b0395861681524260208201908152349282019283526007805460018101825560009190915291517fa66cc928b5edb82af9bd49922954155ab7b0942694bea4ce44661d9a8736c688600390930292830180546001600160a01b031916919098161790965594517fa66cc928b5edb82af9bd49922954155ab7b0942694bea4ce44661d9a8736c689860155517fa66cc928b5edb82af9bd49922954155ab7b0942694bea4ce44661d9a8736c68a909401939093555090919050565b60606001805461053e90611f25565b610a643383836114b7565b610dff338361113a565b610e1b5760405162461bcd60e51b815260040161063690611e65565b610e2784848484611586565b50505050565b6000818152600260205260409020546060906001600160a01b0316610eac5760405162461bcd60e51b815260206004820152602f60248201527f4552433732314d657461646174613a2055524920717565727920666f72206e6f60448201526e3732bc34b9ba32b73a103a37b5b2b760891b6064820152608401610636565b6000610eb66115b9565b90506000815111610ed65760405180602001604052806000815250610f01565b80610ee0846115c8565b604051602001610ef1929190611cf4565b6040516020818303038152906040525b9392505050565b60098054610f1590611f25565b80601f0160208091040260200160405190810160405280929190818152602001828054610f4190611f25565b8015610f8e5780601f10610f6357610100808354040283529160200191610f8e565b820191906000526020600020905b815481529060010190602001808311610f7157829003601f168201915b505050505081565b6040516371d4ed8d60e11b81526001600160a01b0382811660048301526000917f00000000000000000000000000000000000000000000000000000000000000009091169063e3a9db1a9060240160206040518083038186803b158015610ffc57600080fd5b505afa158015611010573d6000803e3d6000fd5b505050506040513d601f19601f820116820180604052508101906105299190611c76565b6006546001600160a01b0316331461105e5760405162461bcd60e51b815260040161063690611e30565b6001600160a01b0381166110c35760405162461bcd60e51b815260206004820152602660248201527f4f776e61626c653a206e6577206f776e657220697320746865207a65726f206160448201526564647265737360d01b6064820152608401610636565b610a9b8161144b565b600081815260046020526040902080546001600160a01b0319166001600160a01b038416908117909155819061110182610af6565b6001600160a01b03167f8c5be1e5ebec7d5bd14f71427d1e84f3dd0314c0f7b2291e5b200ac8c7c3b92560405160405180910390a45050565b6000818152600260205260408120546001600160a01b03166111b35760405162461bcd60e51b815260206004820152602c60248201527f4552433732313a206f70657261746f7220717565727920666f72206e6f6e657860448201526b34b9ba32b73a103a37b5b2b760a11b6064820152608401610636565b60006111be83610af6565b9050806001600160a01b0316846001600160a01b031614806111f95750836001600160a01b03166111ee846105c1565b6001600160a01b0316145b8061122957506001600160a01b0380821660009081526005602090815260408083209388168352929052205460ff165b949350505050565b826001600160a01b031661124482610af6565b6001600160a01b0316146112a85760405162461bcd60e51b815260206004820152602560248201527f4552433732313a207472616e736665722066726f6d20696e636f72726563742060448201526437bbb732b960d91b6064820152608401610636565b6001600160a01b03821661130a5760405162461bcd60e51b8152602060048201526024808201527f4552433732313a207472616e7366657220746f20746865207a65726f206164646044820152637265737360e01b6064820152608401610636565b6113156000826110cc565b6001600160a01b038316600090815260036020526040812080546001929061133e908490611ee2565b90915550506001600160a01b038216600090815260036020526040812080546001929061136c908490611eb6565b909155505060008181526002602052604080822080546001600160a01b0319166001600160a01b0386811691821790925591518493918716917fddf252ad1be2c89b69c2b068fc378daa952ba7f163c4a11628f55a4df523b3ef91a4505050565b6040516351cff8d960e01b81526001600160a01b0382811660048301527f000000000000000000000000000000000000000000000000000000000000000016906351cff8d990602401600060405180830381600087803b15801561143057600080fd5b505af1158015611444573d6000803e3d6000fd5b5050505050565b600680546001600160a01b038381166001600160a01b0319831681179093556040519116919082907f8be0079c531659141344cd1fd0a4f28419497f9722a3daafe3b4186f6b6457e090600090a35050565b610a648282604051806020016040528060008152506116e2565b816001600160a01b0316836001600160a01b031614156115195760405162461bcd60e51b815260206004820152601960248201527f4552433732313a20617070726f766520746f2063616c6c6572000000000000006044820152606401610636565b6001600160a01b03838116600081815260056020908152604080832094871680845294825291829020805460ff191686151590811790915591519182527f17307eab39ab6107e8899845ad3d59bd9653f200f220920489ca2b5937696c31910160405180910390a3505050565b611591848484611231565b61159d84848484611715565b610e275760405162461bcd60e51b815260040161063690611dde565b60606009805461053e90611f25565b6060816115ec5750506040805180820190915260018152600360fc1b602082015290565b8160005b8115611616578061160081611f60565b915061160f9050600a83611ece565b91506115f0565b60008167ffffffffffffffff81111561163f57634e487b7160e01b600052604160045260246000fd5b6040519080825280601f01601f191660200182016040528015611669576020820181803683370190505b5090505b84156112295761167e600183611ee2565b915061168b600a86611f7b565b611696906030611eb6565b60f81b8183815181106116b957634e487b7160e01b600052603260045260246000fd5b60200101906001600160f81b031916908160001a9053506116db600a86611ece565b945061166d565b6116ec8383611822565b6116f96000848484611715565b61076c5760405162461bcd60e51b815260040161063690611dde565b60006001600160a01b0384163b1561181757604051630a85bd0160e11b81526001600160a01b0385169063150b7a0290611759903390899088908890600401611d23565b602060405180830381600087803b15801561177357600080fd5b505af19250505080156117a3575060408051601f3d908101601f191682019092526117a091810190611bfc565b60015b6117fd573d8080156117d1576040519150601f19603f3d011682016040523d82523d6000602084013e6117d6565b606091505b5080516117f55760405162461bcd60e51b815260040161063690611dde565b805181602001fd5b6001600160e01b031916630a85bd0160e11b149050611229565b506001949350505050565b6001600160a01b0382166118785760405162461bcd60e51b815260206004820181905260248201527f4552433732313a206d696e7420746f20746865207a65726f20616464726573736044820152606401610636565b6000818152600260205260409020546001600160a01b0316156118dd5760405162461bcd60e51b815260206004820152601c60248201527f4552433732313a20746f6b656e20616c7265616479206d696e746564000000006044820152606401610636565b6001600160a01b0382166000908152600360205260408120805460019290611906908490611eb6565b909155505060008181526002602052604080822080546001600160a01b0319166001600160a01b03861690811790915590518392907fddf252ad1be2c89b69c2b068fc378daa952ba7f163c4a11628f55a4df523b3ef908290a45050565b82805461197090611f25565b90600052602060002090601f01602090048101928261199257600085556119d8565b82601f106119ab57805160ff19168380011785556119d8565b828001600101855582156119d8579182015b828111156119d85782518255916020019190600101906119bd565b506119e49291506119e8565b5090565b5b808211156119e457600081556001016119e9565b600067ffffffffffffffff80841115611a1857611a18611fbb565b604051601f8501601f19908116603f01168101908282118183101715611a4057611a40611fbb565b81604052809350858152868686011115611a5957600080fd5b858560208301376000602087830101525050509392505050565b600060208284031215611a84578081fd5b8135610f0181611fd1565b60008060408385031215611aa1578081fd5b8235611aac81611fd1565b91506020830135611abc81611fd1565b809150509250929050565b600080600060608486031215611adb578081fd5b8335611ae681611fd1565b92506020840135611af681611fd1565b929592945050506040919091013590565b60008060008060808587031215611b1c578081fd5b8435611b2781611fd1565b93506020850135611b3781611fd1565b925060408501359150606085013567ffffffffffffffff811115611b59578182fd5b8501601f81018713611b69578182fd5b611b78878235602084016119fd565b91505092959194509250565b60008060408385031215611b96578182fd5b8235611ba181611fd1565b915060208301358015158114611abc578182fd5b60008060408385031215611bc7578182fd5b8235611bd281611fd1565b946020939093013593505050565b600060208284031215611bf1578081fd5b8135610f0181611fe6565b600060208284031215611c0d578081fd5b8151610f0181611fe6565b600060208284031215611c29578081fd5b813567ffffffffffffffff811115611c3f578182fd5b8201601f81018413611c4f578182fd5b611229848235602084016119fd565b600060208284031215611c6f578081fd5b5035919050565b600060208284031215611c87578081fd5b5051919050565b6000815180845260208085019450808401835b83811015611cbd57815187529582019590820190600101611ca1565b509495945050505050565b60008151808452611ce0816020860160208601611ef9565b601f01601f19169290920160200192915050565b60008351611d06818460208801611ef9565b835190830190611d1a818360208801611ef9565b01949350505050565b6001600160a01b0385811682528416602082015260408101839052608060608201819052600090611d5690830184611cc8565b9695505050505050565b606080825284519082018190526000906020906080840190828801845b82811015611da25781516001600160a01b031684529284019290840190600101611d7d565b50505083810382850152611db68187611c8e565b9150508281036040840152611d568185611c8e565b602081526000610f016020830184611cc8565b60208082526032908201527f4552433732313a207472616e7366657220746f206e6f6e20455243373231526560408201527131b2b4bb32b91034b6b83632b6b2b73a32b960711b606082015260800190565b6020808252818101527f4f776e61626c653a2063616c6c6572206973206e6f7420746865206f776e6572604082015260600190565b60208082526031908201527f4552433732313a207472616e736665722063616c6c6572206973206e6f74206f6040820152701ddb995c881b9bdc88185c1c1c9bdd9959607a1b606082015260800190565b60008219821115611ec957611ec9611f8f565b500190565b600082611edd57611edd611fa5565b500490565b600082821015611ef457611ef4611f8f565b500390565b60005b83811015611f14578181015183820152602001611efc565b83811115610e275750506000910152565b600181811c90821680611f3957607f821691505b60208210811415611f5a57634e487b7160e01b600052602260045260246000fd5b50919050565b6000600019821415611f7457611f74611f8f565b5060010190565b600082611f8a57611f8a611fa5565b500690565b634e487b7160e01b600052601160045260246000fd5b634e487b7160e01b600052601260045260246000fd5b634e487b7160e01b600052604160045260246000fd5b6001600160a01b0381168114610a9b57600080fd5b6001600160e01b031981168114610a9b57600080fdfea2646970667358221220ddf61077c4590b7508bdc490bb073eb26431493283c7d00ccfbb14b5f7acc98764736f6c63430008040033608060405234801561001057600080fd5b5061001a3361001f565b61006f565b600080546001600160a01b038381166001600160a01b0319831681178455604051919092169283917f8be0079c531659141344cd1fd0a4f28419497f9722a3daafe3b4186f6b6457e09190a35050565b6105718061007e6000396000f3fe6080604052600436106100555760003560e01c806351cff8d91461005a578063715018a61461007c5780638da5cb5b14610091578063e3a9db1a146100be578063f2fde38b14610102578063f340fa0114610122575b600080fd5b34801561006657600080fd5b5061007a6100753660046104aa565b610135565b005b34801561008857600080fd5b5061007a6101d7565b34801561009d57600080fd5b506000546040516001600160a01b0390911681526020015b60405180910390f35b3480156100ca57600080fd5b506100f46100d93660046104aa565b6001600160a01b031660009081526001602052604090205490565b6040519081526020016100b5565b34801561010e57600080fd5b5061007a61011d3660046104aa565b61020d565b61007a6101303660046104aa565b6102a8565b6000546001600160a01b031633146101685760405162461bcd60e51b815260040161015f906104cd565b60405180910390fd5b6001600160a01b0381166000818152600160205260408120805491905590610190908261033c565b816001600160a01b03167f7084f5476618d8e60b11ef0d7d3f06914655adb8793e28ff7f018d4c76d505d5826040516101cb91815260200190565b60405180910390a25050565b6000546001600160a01b031633146102015760405162461bcd60e51b815260040161015f906104cd565b61020b600061045a565b565b6000546001600160a01b031633146102375760405162461bcd60e51b815260040161015f906104cd565b6001600160a01b03811661029c5760405162461bcd60e51b815260206004820152602660248201527f4f776e61626c653a206e6577206f776e657220697320746865207a65726f206160448201526564647265737360d01b606482015260840161015f565b6102a58161045a565b50565b6000546001600160a01b031633146102d25760405162461bcd60e51b815260040161015f906104cd565b6001600160a01b0381166000908152600160205260408120805434928392916102fc908490610502565b90915550506040518181526001600160a01b038316907f2da466a7b24304f47e87fa2e1e5a81b9831ce54fec19055ce277ca2f39ba42c4906020016101cb565b8047101561038c5760405162461bcd60e51b815260206004820152601d60248201527f416464726573733a20696e73756666696369656e742062616c616e6365000000604482015260640161015f565b6000826001600160a01b03168260405160006040518083038185875af1925050503d80600081146103d9576040519150601f19603f3d011682016040523d82523d6000602084013e6103de565b606091505b50509050806104555760405162461bcd60e51b815260206004820152603a60248201527f416464726573733a20756e61626c6520746f2073656e642076616c75652c207260448201527f6563697069656e74206d61792068617665207265766572746564000000000000606482015260840161015f565b505050565b600080546001600160a01b038381166001600160a01b0319831681178455604051919092169283917f8be0079c531659141344cd1fd0a4f28419497f9722a3daafe3b4186f6b6457e09190a35050565b6000602082840312156104bb578081fd5b81356104c681610526565b9392505050565b6020808252818101527f4f776e61626c653a2063616c6c6572206973206e6f7420746865206f776e6572604082015260600190565b6000821982111561052157634e487b7160e01b81526011600452602481fd5b500190565b6001600160a01b03811681146102a557600080fdfea264697066735822122097aaf8330e2b679c3d08b05923d025844a488ff53c65b2f148c20b20172688e864736f6c63430008040033",
  "linkReferences": {},
  "deployedLinkReferences": {}
}